:040000000CEF00F011
:10000800FACF03F0FBCF04F0E9CF05F011ED09F0CA
:100018004FEF09F01F0E306E000E316E99D1250E8C
:100028003818D8B404D0385021EC0DF091D1000E16
:10003800376E000E366E000E356E05D035841D4ABB
:100048001E2A01D00BD01DC0F6FF1EC0F7FF080006
:10005800F550300AD8B4F2D701D0F5D71DC0F6FF55
:100068001EC0F7FF0800F55061EC0CF0D8A03BD09B
:10007800000E376E000E366E00D036C011F037C055
:1000880012F0000E146E0A0E136E4DEC0CF011C037
:1000980036F012C037F0D00E2B6EFF0E2C6E1DC03E
:1000A800F6FF1EC0F7FF0800F5502D6E2E6A2B5084
:1000B8002D262C502E222D5036262E5037221D4A02
:1000C8001E2A1DC0F6FF1EC0F7FF0800F55061ECA0
:1000D8000CF0D8A008D0D1D706D048D11BD0358E87
:1000E80019D036D117D01DC0F6FF1EC0F7FF1D4A24
:1000F8001E2A0800F5CF38F03850000AD8B436D197
:10010800640AD8B407D00D0AD8B404D0110AD8B4F8
:10011800E6D71ED135BE15D030C0D9FF31C0DAFFC1
:10012800DECF33F0DDCF34F0020E3026000E312260
:1001380034AE4ED0030E3512336C341ED8B0342A88
:1001480047D030C0D9FF31C0DAFFDECF33F0DDCF82
:1001580034F0020E3026000E31223AD0010E386EED
:10016800050E3818D8B43DD001D03BD03850020D18
:10017800620EF324F66EFF0EF420F76E0900F550B8
:10018800335C0900F5503458D8A02BD001D029D0C1
:10019800382AE6D726D0010E386E040E3818D8B49F
:1001A80020D001D01ED03850020D6C0EF324F66E0C
:1001B800FF0EF420F76E0900F550335C0900F55086
:1001C8003458D8A00ED001D00CD0382AE6D709D0A0
:1001D8003550800B000AD8B4C1D7800AD8B4DBD711
:1001E80000D036503710D8B40AD035C02BF0030EE3
:1001F8002B16D8B404D03606D8A0370600D0800E07
:1002080038BE7F0E2B6E3650385C3750800A2B581C
:10021800D8B007D03850365E000E38BEFF0E375AB9
:1002280005D0000E376E000E366E00D035A41AD0F9
:1002380035C02BF0030E2B16D8B404D02D0E21ECAC
:100248000DF000D036503710D8B426D0300E21EC3F
:100258000DF03606D8A0370636503710D8B41CD063
:10026800F5D71AD036503710D8B40CD0200E21EC60
:100278000DF03606D8A0370636503710D8B402D05D
:10028800F5D700D035C02BF0030E2B16D8B404D008
:100298002D0E21EC0DF000D038C032F053D045D0EF
:1002A8003250020D620EF324F66EFF0EF420F76E44
:1002B8000900F5CF13F00A00F5CF14F033C011F0A0
:1002C80034C012F029EC0AF011C018F012C019F06D
:1002D800000E1B6E0A0E1A6EFAEC0AF01850300F58
:1002E800386E2CD033C011F034C012F03250020DE9
:1002F8006C0EF324F66EFF0EF420F76E0900F5CFAE
:1003080013F00A00F5CF14F029EC0AF011500F0B86
:100318002F6E2F50010DE60EF324F66EFF0EF4201B
:10032800F76E0800F5CF38F009D03550800B000A79
:10033800D8B4B6D7800AD8B4D5D700D0385021EC75
:100348000DF000D032063228D8B402D0EED700D053
:100358001DC0F6FF1EC0F7FF1D4A1E2A0800F5CF74
:1003680038F03850D8B402D05AD600D01200DAEC9F
:100378000CF0700ED36EF19E040E936E000E946E08
:10038800000E956E0F0EC16E000E926E000E966EE8
:100398002AEC08F0A00E116E860E126E010E136E76
:1003A800000E146E39EC0DF082EC0CF0B9EC0CF088
:1003B800000E456E000E466E000E476E000E486E2B
:1003C80000D048EC0DF0F7EC09F060506B18D8B489
:1003D8003CD060C06BF0EBEC0BF00001F06F00015B
:1003E800F051090DF3CF11F0F4CF12F0000E146E96
:1003F800050E136E82EC08F01150200F0001EF6F0C
:100408009F0E1D6EFF0E1E6E5CC01FF0206A5DC041
:1004180021F0226A60C023F0246A5EC025F0266AB3
:100428005AC027F0286A6AC029F02A6A0EEC00F040
:10043800740E1D6EFF0E1E6EF0C01FF0206AEFC016
:1004480021F0226A0EEC00F000D049044A10D8A42A
:10045800B8D7900E5118D8A403D0C4EC09F000D036
:10046800000E4A6E000E496E58EC0DF0D30E1D6E4C
:10047800FF0E1E6E51C01FF0206A0EEC00F0000146
:10048800F269000E0001F16F140E0001F16501D050
:1004980013D00001F151010DAA0EF324D96E000EFC
:1004A800F420DA6E5150DE18D8A403D0F1C0F2F06F
:1004B80000D00001F12BE8D70001F229D8B481D788
:1004C800BD0E1D6EFF0E1E6EF2C01FF0206A0EECF0
:1004D80000F0000E3C6E3C0E3B6E000E3E6E500E61
:1004E8003D6E000E406E140E3F6E0001F251020D7B
:1004F800800EF324D96E000EF420DA6EDECF41F0C0
:10050800DDCF42F081EC0AF0000E1D6E3C0E1C6E31
:10051800000E1F6E500E1E6E000E216E140E206E01
:10052800FF0E236E226861EC03F04D0E396E000158
:10053800F251040D000EF3243A6E010EF4203B6EC6
:10054800FF0E3D6E3C68000E3F6E000E3E6E010EC3
:10055800406E340EBEEC06F00001F251020D800E22
:10056800F324D96E000EF420DA6EDE500EE1F80E98
:10057800DE18D8A40AD083828394839684908492C8
:1005880084948398839A839C00D00001F251020DD1
:10059800800EF324D96E000EF420DA6E1F0EDE18DA
:1005A800DE10D8A41BD0030E0001F219D8B405D070
:1005B800040E0001F219D8A407D08392839483868D
:1005C80084908492849406D08392839483968490B2
:1005D800849284848398839A839C00D00001F2518A
:1005E800020D800EF324D96E000EF420DA6EE00EB0
:1005F800DE180EE1070EDE18D8A40AD08392838491
:1006080083968490849284948398839A839C00D060
:100618000001F251020D800EF324D96E000EF42071
:10062800DA6E1F0EDE180EE1F80EDE18D8A40AD016
:100638008392839483968480849284848398839A13
:10064800839C00D00001F251020D800EF324D96E74
:10065800000EF420DA6EDE50DE10D8A423D0090E86
:100668000001F219D8B40AD00A0E0001F219D8B460
:1006780005D00B0E0001F219D8A40AD083928394F6
:1006880083968480848284848398839A839C0AD006
:100698008392839483968490849284948388838AB3
:1006A800838C00D0828008EC0DF034EC0DF048EC1F
:1006B8000DF0829086D60CEF00F020C024F021C007
:1006C80025F0241E251E244A252A010E24242A6EDC
:1006D800000E25202B6E000E276E010E266E20C000
:1006E80024F021C025F0D89024362536241E251E56
:1006F800244A252A24C028F025C029F0000E2D6E92
:10070800000E2C6E20C02EF021C02FF01E50202489
:10071800186E22C019F023C01AF01C5020EC0CF0FF
:10072800205000081E24186E22C019F023C01AF0A9
:100738001C5020EC0CF01EC018F022C019F023C089
:100748001AF01C50202420EC0CF01EC018F022C017
:1007580019F023C01AF0205000081C2420EC0CF0DB
:1007680078D02BBE0BD02E06D8A02F06020E282636
:10077800000E292228502A2629502B222C4A2D2ABD
:10078800020E2626000E272226502A2627502B2224
:100798001E502E24186E22C019F023C01AF01C50C7
:1007A8002C2420EC0CF01E502E24186E22C019F0B8
:1007B80023C01AF02C5000081C2420EC0CF02E50FA
:1007C80000081E24186E22C019F023C01AF01C500D
:1007D8002C2420EC0CF02E5000081E24186E22C089
:1007E80019F023C01AF02C5000081C2420EC0CF03F
:1007F8001E502C24186E22C019F023C01AF01C5069
:100808002E2420EC0CF01E502C24186E22C019F057
:1008180023C01AF02E5000081C2420EC0CF02C5099
:1008280000081E24186E22C019F023C01AF01C50AC
:100838002E2420EC0CF02C5000081E24186E22C028
:1008480019F023C01AF02E5000081C2420EC0CF0DC
:1008580000D02E502C5C2D50800A246E2F50800A18
:100868002458D8A07ED71200F0925250D8B4A1D004
:10087800CE50CFCF01F0026A01C002F0016A011028
:100888004B6E02504C6E000ECF6E000ECE6E91D0A5
:10089800000ECF6E000ECE6E9E90900ECD6ECD8067
:1008A800000E586E000E456E000E466E000E476E26
:1008B800000E486E010E526EF18852C080FF8AD039
:1008C800350E4B5C210E4C58D8A009D01C0E4B5C41
:1008D800250E4C58D8B003D0020E526E27D054ECD7
:1008E8000DF02AD029D076D0A10E4B5C0F0E4C58B3
:1008F800D8A009D0880E4B5C130E4C58D8B003D042
:10090800030E526E4ED054EC0DF051D050D062D040
:10091800910E4B5C010E4C58D8A00BD0BC0E4B5C12
:10092800020E4C58D8B005D0040ED7D752C080FF5D
:1009380003D054EC0DF000D0F1984CD0910E4B5CE4
:10094800010E4C58D8A030D0080E4B5C070E4C58FE
:10095800D8B02AD0D8904534456E4634466E4734D0
:10096800476E4834486EE90E4B5C030E4C58D8A0CD
:1009780007D0010E4526000E46224722482200D005
:10098800582A1F0E5864BCD746C051F0000E526E4C
:1009980052C080FF000E4A6E010E496EF09807D0D3
:1009A800AFD752C080FF03D054EC0DF000D0F188CF
:1009B80011D05250000AD8B46BD7010AD8B480D7E6
:1009C800030AD8B491D7010AD8B4A2D7070AD8B471
:1009D800B5D700D01200366E800E3660A6D09F0EB6
:1009E8002E6401D0A2D03450D8A403D0010E346EA6
:1009F80000D01F0E2F6404D07E0E2F6403D000D0C9
:100A08003F0E2F6E000E386E040E386401D08DD064
:100A1800530E2F6015D0E00E2F24116E126AFF0EB0
:100A28001222000E146E050E136E4DEC0CF03850A9
:100A38001126000E1222870E1124F66EFD0E14D018
:100A4800AD0E2F24116E126AFF0E1222000E146EC4
:100A5800050E136E4DEC0CF038501126000E1222C4
:100A6800860E1124F66EFE0E1220F76E0800F5CFE2
:100A780035F000D0000E376E060E376401D053D023
:100A880035A023D03404D8A40CD02E503724186EA7
:100A980030C019F031C01AF03650382420EC0CF070
:100AA8003ED037503402F3502E24236E34C024F045
:100AB80034C025F030C026F031C027F03850340259
:100AC800F350362420EC0BF02AD03050321804E1D1
:100AD80031503318D8B423D03404D8A40CD02E50B5
:100AE8003724186E32C019F033C01AF03650382443
:100AF80020EC0CF014D037503402F3502E24236E1F
:100B080034C024F034C025F032C026F033C027F0BA
:100B180038503402F350362420EC0BF000D0372A3A
:100B2800D8903532A9D7382A6FD7120027C02FF0AE
:100B380028C030F02F1E301E2F4A302A010E2F24D5
:100B4800356E000E3020366E000E326E010E316E9C
:100B580027C02FF028C030F0D8902F3630362F1EFF
:100B6800301E2F4A302A2FC033F030C034F0000E28
:100B7800386E000E376E27C039F028C03AF067D0BB
:100B880036BE0BD03906D8A03A06020E3326000E20
:100B980034223350352634503622374A382A020E4A
:100BA8003126000E3222315035263250362229A005
:100BB80025D0395000082524186E395039242B24A3
:100BC8002F6E2F28196E2DC01AF02EC01BF023503F
:100BD8003724CDEC08F0375000082524186E37501C
:100BE80037242B242F6E2F28196E2DC01AF02EC0F3
:100BF8001BF023503924CDEC08F000D029A227D0CF
:100C0800395000082524186E395039242B242F6EAA
:100C18002F28196E2DC01AF02EC01BF0375000086F
:100C28002324CDEC08F0375000082524186E3750DF
:100C380037242B242F6E2F28196E2DC01AF02EC0A2
:100C48001BF0395000082324CDEC08F000D03950AF
:100C5800375C3850800A2F6E3A50800A2F58D8A037
:100C68008FD71200010E19EC0DF0000E186E960EBB
:100C7800176EAAEC0AF0110E19EC0DF0010E186EA1
:100C8800F40E176EAAEC0AF0B10E19EC0DF0010E75
:100C980011EC0DF02C0E11EC0DF02D0E11EC0DF0E9
:100CA800B20E19EC0DF0010E11EC0DF02C0E11EC3A
:100CB8000DF02D0E11EC0DF0B30E19EC0DF0010E28
:100CC80011EC0DF02C0E11EC0DF02D0E11EC0DF0B9
:100CD800010E11EC0DF02C0E11EC0DF02D0E11EC97
:100CE8000DF0B40E19EC0DF0070E11EC0DF0C00E5E
:100CF80019EC0DF0A20E11EC0DF0020E11EC0DF036
:100D0800840E11EC0DF0C10E19EC0DF0C50E11ECAE
:100D18000DF0C20E19EC0DF00A0E11EC0DF0000EDC
:100D280011EC0DF0C30E19EC0DF08A0E11EC0DF05C
:100D38002A0E11EC0DF0C40E19EC0DF08A0E11EC10
:100D48000DF0EE0E11EC0DF0C50E19EC0DF00E0EB7
:100D580011EC0DF0200E19EC0DF0360E19EC0DF01B
:100D6800C80E11EC0DF03A0E19EC0DF0050E11EC51
:100D78000DF012000001E86FE8C0EEF039C0EDF0A8
:100D88003AC011F03BC012F08EEC0BF011C0E9F044
:100D980012C0EAF0000E0001EC6F000EEB6F64D099
:100DA8006C50D8B434D04050050D0001EE51416E5E
:100DB800426AF3504126F450422242BE28D04250A3
:100DC80004E1810E415CD8A022D0000E0001EE6F34
:100DD8004050070DF3500001ED25030F0001ED6FA2
:100DE800A00E0001ED6504D0A00E0001ED6F00D04B
:100DF8000001EB513A24D96E0001EC513B20DA6E28
:100E0800200EDE18D8B42CD002D02AD000D0EDC0E5
:100E18002EF00001EB513A24D96E0001EC513B2031
:100E2800DA6EDF502F6E3CC030F03DC031F03EC06E
:100E380032F03FC033F040C034F00001EE51EFEC27
:100E480004F04050060DF3500001EE250001EE6F4E
:100E5800800E0001EE6504D0800E0001EE6F00D018
:100E68000001EB4BEC2B00D00001E9510001EB5DD8
:100E78000001EA510001EC59D8A092D71200E00E07
:100E880019EC0DF0020E11EC0DF01C0E11EC0DF02A
:100E9800070E11EC0DF0120E11EC0DF0370E11ECDF
:100EA8000DF0320E11EC0DF0290E11EC0DF02D0E97
:100EB80011EC0DF0290E11EC0DF0250E11EC0DF0D2
:100EC8002B0E11EC0DF0390E11EC0DF0000E11EC9B
:100ED8000DF0010E11EC0DF0030E11EC0DF0100EDB
:100EE80011EC0DF0E10E19EC0DF0030E11EC0DF004
:100EF8001D0E11EC0DF0070E11EC0DF0060E11ECA5
:100F08000DF02E0E11EC0DF02C0E11EC0DF0290E3B
:100F180011EC0DF02D0E11EC0DF02E0E11EC0DF064
:100F28002E0E11EC0DF0370E11EC0DF03F0E11ECFA
:100F38000DF0000E11EC0DF0000E11EC0DF0020E8C
:100F480011EC0DF0100E11EC0DF0130E19EC0DF064
:100F5800000E186E0A0E176EAAEC0AF0290E19EC8C
:100F68000DF0000E186E640E176EAAEC0AF012004F
:100F7800236E800E236069D09F0E186401D065D05F
:100F8800FF0E1D6EFF0E1E6E195023C01FF0206A43
:100F98001F26000E20221D501F261E50202220BE74
:100FA8000AD0205004E1800E1F5CD8A004D0235042
:100FB8000008800F196EFF0E1D6EFF0E1E6E1A5070
:100FC80018C01FF0206A1F26000E20221D501F2661
:100FD8001E50202220BE0BD0205004E1A00E1F5C22
:100FE800D8A005D018500008A00F1A6E00D018C05D
:100FF80014F0235019241D6E1D04156E18501A2460
:101008001E6E1E04166E2350D3EC0AF01C50216E7F
:101018001BC022F0828482981AC018F01850D8B4E5
:1010280013D001D011D019C023F02350D8B40AD05E
:1010380001D008D02150D0EC0CF02250D0EC0CF0AC
:101048002306F3D71806EAD782881200E4EC0CF0DE
:1010580038EC0CF0000E256E000E246E91EC0CF0AE
:10106800C90E4F6E000E506E4FC011F050C012F0F6
:10107800F70E136EFF0E146E07EC0CF0020E396EAD
:101088004FC03AF050C03BF0FF0E3D6E3C68000E7A
:101098003F6E000E3E6E010E406E320EBEEC06F044
:1010A80005D0530E0001BF6F500E04D0460E00014C
:1010B800BF6F410E0001C06F320E0001C16F340EC8
:1010C8000001C26F330E0001C46F310E0001C66FFC
:1010D800330E0001C76F960E396EBF0E3A6E000EC2
:1010E8003B6EFF0E3D6E3C68000E3F6E000E3E6E7E
:1010F800010E406E010EBEEC06F01200000E166ED8
:1011080014AE07D0136C141ED8B0142A010E166E34
:1011180000D012AE07D0116C121ED8B0122A010EE0
:10112800161A00D0000E186E000E176E1350141009
:10113800D8B421D0010E156E05D0D89013361436C8
:10114800152A00D014BE02D0F8D700D0D890173690
:1011580018361350115C14501258D8A006D01350EA
:10116800115E1450125A178000D0D89014321332DE
:10117800152EECD700D01650D8B405D0176C181E11
:10118800D8B0182A00D017C011F018C012F000D03B
:101198001200226E800E22603FD09F0E186401D08C
:1011A8003BD0FF0E1C6EFF0E1D6E195018C01EF0AE
:1011B8001F6A1E26000E1F221C501E261D501F22AD
:1011C8001FBE0BD01F5004E1A00E1E5CD8A005D096
:1011D80018500008A00F196E00D01B50206E1AC0BE
:1011E80021F018C014F022C015F0185019241C6EF4
:1011F8001C04166E2250D3EC0AF08284829807D021
:101208002050D0EC0CF02150D0EC0CF000D0190696
:101218001928D8A4F5D7828812000600EACF06F06C
:10122800E1CF07F0E2CF08F0D9CF09F0DACF0AF022
:10123800F3CF0BF0F4CF0CF0F6CF0DF0F7CF0EF0A4
:10124800F8CF0FF0F5CF10F09EA003D02EEC0DF0E4
:1012580000D0F0A203D038EC04F000D010C0F5FFA5
:101268000FC0F8FF0EC0F7FF0DC0F6FF0CC0F4FF6B
:101278000BC0F3FF0AC0DAFF09C0D9FF08C0E2FFBC
:1012880007C0E1FF06C0EAFF05C0E9FF04C0FBFF95
:1012980003C0FAFF110000EEC9F01F0EEE6AE8065F
:1012A800FDE100EE45F0260EEE6AE806FDE1AE0E21
:1012B800F66E140EF76E000EF86E01EE00F010EEEA
:1012C80054F00900F5CFEEFFE550E150FAE18A0E3F
:1012D800F66E160EF76E000EF86E00EE80F010EE49
:1012E80049F00900F5CFEEFFE550E150FAE1B60EFE
:1012F800F66E1A0EF76E000EF86E0900F5CF6BF059
:101308000900F5CF6CF0000EF86E0001BBEF01F09C
:10131800136E000EAC6E000EAB6E13A002D0AC883C
:1013280000D013A203D0AC8CAB8C00D013A402D095
:10133800AC8E00D013A602D0AB8802D0AB8A00D006
:1013480013B8AC849E9813AA02D0AB8600D013AC15
:1013580002D09D8A01D09D9A9E9A13AE02D09D8894
:1013680001D09D9811C0AFFF1250B06EAC8AAB8E01
:10137800949C948EACB8ACBE02D0948C00D0120071
:10138800680E136E000E146E000E606E150E5D6E04
:10139800070E5C6E040E5B6E070E5A6E110E5E6EC3
:1013A800240E6A6EFFEC0CF013501324CCEC0BF0F7
:1013B8001450CCEC0BF06050CCEC0BF05D50CCEC46
:1013C8000BF05C50CCEC0BF05B50CCEC0BF05A50B3
:1013D800CCEC0BF05E50CCEC0BF06A50CCEC0BF084
:1013E800F6EC0CF01200680E156E000E146EFFEC91
:1013F8000CF015501524CCEC0BF01450CCEC0BF081
:10140800C5EC0CF0D8801534CCEC0BF0010E6AEC6E
:101418000BF0606E010E6AEC0BF05D6E010E6AEC6B
:101428000BF05C6E010E6AEC0BF05B6E010E6AEC61
:101438000BF05A6E010E6AEC0BF05E6E000E6AEC51
:101448000BF06A6EF6EC0CF01200000E176E000E30
:10145800166E13501410D8B421D0010E156E05D095
:10146800D89013361436152A00D014BE02D0F8D7F7
:1014780000D0D890163617361350115C14501258F5
:10148800D8A006D01350115E1450125A168000D0FE
:10149800D89014321332152EECD700D016C011F0A4
:1014A80017C012F0120043482D004348000043487B
:1014B8002B004257440046574400504C5900564CA4
:1014C8002D00564C2B004551200020302000313093
:1014D800300032303000203120002032200020330C
:1014E800200020342000203520002036200020371E
:1014F800200020382000203920003F5000083D24DB
:10150800186ED8803F34196E41C01AF042C01BF0E3
:101518003B50CDEC08F03BC023F03CC024F03DC06C
:1015280025F03EC026F03FC027F040C028F0000E4E
:101538002A6E030E296E000E2C6E000E2B6E41C013
:101548002DF042C02EF09AEC05F0120017C011F0F1
:1015580018C012F0000E146EFA0E136E4DEC0CF05B
:1015680011C01BF012C01CF01BC019F01CC01AF0EF
:10157800191E1A1E194A1A2AFF0E19241B6EFF0E6D
:101588001A201C6EB80EB16E1BC0D6FF1C50D76E49
:10159800A192B18000D0A1A2FED7B1901200176E1F
:1015A8002A0E19EC0DF0000E11EC0DF0175059240D
:1015B80011EC0DF0000E11EC0DF01550592411EC42
:1015C8000DF02B0E19EC0DF0000E11EC0DF014506F
:1015D8005F2411EC0DF0000E11EC0DF016505F2495
:1015E80011EC0DF02C0E19EC0DF012001A501B1016
:1015F800D8B41DD0010E1C6E05D0D8901A361B36F3
:101608001C2A00D01BBE02D0F8D700D01A50185C94
:101618001B501958D8A005D01A50185E1B50195ADB
:1016280000D0D8901B321A321C2EF0D700D018C028
:1016380018F019C019F012002B6E2BC02CF02D6A6F
:101648000ED023C018F025C019F026C01AF027C004
:101658001BF02C50CDEC08F02C4A2D2A00D0245039
:101668002BC028F0296A2826000E292228502C5C35
:101678002D50800A2A6E2950800A2A58D8A0E1D70E
:10168800120000F800F800F81F001F00E0071F0014
:101698001F001FF80000000000000000000000000C
:1016A800000000000000000000000000A262E2222A
:1016B80002C2E0A8906898B030187A10385A424AA6
:1016C80052535032342F332F30310000116E50EC0A
:1016D8000DF0000E126E070E126401D00FD028EC28
:1016E8000DF081AA03D0D880133604D013501324E8
:1016F800136E00D04CEC0DF0122AEDD71150D8B46F
:1017080003D0EDEC0CF003D03EEC0DF000D01350FC
:1017180000D0120011C015F012C016F003D0154AFF
:10172800162A00D015C0D9FF16C0DAFFDF50D8A49A
:10173800F6D711C013F012C014F0131E141E134A6A
:10174800142A15501324116E16501420126E00D04E
:1017580012002A0E19EC0DF0000E11EC0DF0000E1F
:1017680011EC0DF0000E11EC0DF07F0E11EC0DF0E8
:101778002B0E19EC0DF0000E11EC0DF0000E11EC13
:101788000DF0000E11EC0DF09F0E11EC0DF0120093
:10179800116E000E126E070E126401D011D011AE38
:1017A80003D050EC0DF003D043EC0DF000D028EC42
:1017B8000DF04CEC0DF011501124116E122AEBD7DC
:1017C80050EC0DF028EC0DF04CEC0DF01200480E2A
:1017D800166EAA0E146EFFEC0CF016501624CCEC04
:1017E8000BF01450CCEC0BF0C5EC0CF0D880163490
:1017F800CCEC0BF0000E6AEC0BF0156EF6EC0CF06E
:10180800155000D0120011C015F012C016F005D006
:10181800154A162A134A142A00D013C0F6FF14C01A
:10182800F7FF15C0D9FF16C0DAFF0800F5CFDFFFB4
:10183800DF50D8A4EDD712001B6E800E1B6013D0AA
:101848009F0E186401D00FD018C014F01B28156E15
:101858001828166E1B50D3EC0AF01A5011EC0DF034
:10186800195011EC0DF0120082888294800EC76E18
:10187800300EC66E36EC06F0ADEC0BF043EC07F01C
:10188800360E19EC0DF0C00E11EC0DF0010E536E72
:10189800120011501302F3CF15F0F4CF16F01150C7
:1018A8001402F350162612501302F350162615C0D0
:1018B80011F016C012F000D01200136E000E126E56
:1018C8003A0E136006D02F0E136403D0010E126E69
:1018D80000D012C011F0113000D01200156EFFECCC
:1018E8000CF015501524CCEC0BF01350CCEC0BF08D
:1018F8001450CCEC0BF0F6EC0CF01200480E166EFF
:10190800AC0E136E020E146E165072EC0CF0EE0E46
:10191800136E1650ACEC0CF01200000E186E800E10
:10192800196EA00E1A6E24C01BF025C01CF0000E04
:10193800BCEC07F01200030ED56EDB0ED66E0B0E54
:10194800D76EF294D58E00D0F2A4FED7D59E1200A1
:10195800146EFFEC0CF014501424CCEC0BF0135064
:10196800CCEC0BF0F6EC0CF01200F092F198F08849
:10197800000ECF6E000ECE6E9E909D80F28CF28E81
:1019880012004CEC0DF050EC0DF028EC0DF043EC8F
:101998000DF04CEC0DF01200126E9E96C9CF11F0AE
:1019A80012C0C9FF00D0C7A0FED71200000E126EE9
:1019B800190E116E3C0E8CEC09F0700ED36E1200ED
:1019C8008390000E186E640E176EAAEC0AF08380DE
:1019D800120043EC0DF028EC0DF04CEC0DF050EC3F
:1019E8000DF012004CEC0DF043EC0DF028EC0DF06E
:1019F80050EC0DF0120050EC0DF028EC0DF043EC1B
:101A08000DF04CEC0DF01200F90ECB6E050ECA6EFF
:101A18004A0EBB6E3C0EBA6E1200136E8298828418
:101A28001350D0EC0CF082881200136E82988294C6
:101A38001350D0EC0CF082881200116E00D0ACA2CA
:101A4800FED711C0ADFF12009388060EE82EFED710
:101A580000D01200000E526EF198CD909E901200A8
:101A68009FEC0CF09FEC0CF0120028EC0DF050EC01
:101A78000DF0120028EC0DF04CEC0DF01200819ADC
:101A8800939A00D000D01200000EBA6E8292120013
:101A98008198939800D01200938A00D000D0120049
:101AA800000E526ECD901200F088F1981200FF01DE
:10FD860000000000000000005F0000000700070000
:10FD9600147F147F14242A7F2A12231308646236E0
:10FDA600495620500008070300001C22410000416C
:10FDB600221C002A1C7F1C2A08083E0808008070A6
:10FDC60030000808080808000060600020100804D9
:10FDD600023E5149453E00427F400072494949462C
:10FDE6002141494D331814127F1027454545393CAA
:10FDF6004A49493141211109073649494936464997
:10FE060049291E00001400000040340000000814B8
:10FE16002241141414141400412214080201590931
:10FE2600063E415D594E7C1211127C7F4949493686
:10FE36003E414141227F4141413E7F494949417FFF
:10FE4600090909013E414151737F0808087F0041B5
:10FE56007F41002040413F017F081422417F4040FE
:10FE660040407F021C027F7F0408107F3E414141D3
:10FE76003E7F090909063E4151215E7F091929463F
:10FE8600264949493203017F01033F4040403F1F55
:10FE96002040201F3F4038403F631408146303048A
:10FEA6007804036159494D43007F414141020408EA
:10FEB6001020004141417F040201020440404040BD
:10FEC60040000307080020545478407F28444438F3
:10FED6003844444428384444287F3854545418003D
:10FEE600087E090218A4A49C787F080404780044BC
:10FEF6007D40002040403D007F1028440000417FA7
:10FF060040007C047804787C08040478384444442F
:10FF160038FC1824241818242418FC7C0804040827
:10FF2600485454542404043F44243C4040207C1C40
:10FF36002040201C3C4030403C44281028444C9033
:10FF460090907C4464544C4400083641000000778D
:10FF560000000041360800020102040201000A0006
:10FF66006400E8031027010010000001001020546F
:10FF7600656D7065726174757265203D202564201B
:10FF86006465677265657343203D2025642064655A
:10FF96006772656573460D0A00253032783A25305A
:10FFA60032783A2530327820253032782F25303293
:10FFB600782F25303278004B6579204C6F63617459
:10FFC600696F6E203D202564200D0A0A004E4543C8
:10FFD6005F427574746F6E203D202578200D0A00EF
:10FFE60030313233343536373839616263646566A9
:0AFFF600004C414220313120000090
:020000040030CA
:04000000FF08191EBE
:0200060081FF78
:00000001FF
