:020000040000FA
:100000000F0EC16E000E936E000E956E966E060E6C
:10001000406E010E416E020E426E030E436E040EE0
:10002000446E000E456E050E466E070E476E080EB6
:10003000506E0C0E516E100E526E140E536E000E5A
:10004000546E180E556E1C0E566E040E576E000E32
:10005000286E080E296E00EE40F010EE50F0EF50C2
:10006000816EE750836E3BEC00F0E92AE12A290615
:10007000F6E127EF00F0F60E216E0000FF0E206E75
:0C00800000002006FDE12106F8E112005E
:02008C00000072
:020000040030CA
:0100010008F6
:0100020019E4
:010003001EDE
:010006008178
:00000001FF
