:040000000CEF00F011
:10000800FACF03F0FBCF04F0E9CF05F0F7ED1DF0D0
:1000180078EF20F0820E0001986F000E0001996FB2
:100028001EEF06F0250E0001AD19D8B406D0000168
:10003800AD51F0EC25F01EEF06F0000E0001A16FA7
:10004800000EA06F000E0001A96F000EA86F07D068
:100058000001A8850001804B812B01D00BD080C006
:10006800F6FF81C0F7FF0800F550300AD8B4F0D782
:1000780001D0F5D780C0F6FF81C0F7FF0800F55022
:1000880096EC24F0D8A04DD0000E0001A16F000E10
:10009800A06F00D0A0C011F0A1C012F0000E146E25
:1000A8000A0E136E01EC24F011C0A0F012C0A1F0EA
:1000B800D00E00018E6FFF0E00018F6F80C0F6FF1B
:1000C80081C0F7FF0800F5500001906F916B0001A7
:1000D8008E510001902700018F51000191230001EA
:1000E80090510001A027000191510001A1230001B6
:1000F800804B812B80C0F6FF81C0F7FF0800F550C8
:1001080096EC24F0D8A00DD0C5D70BD02FEF06F071
:100118000001A98524D00001A88F21D01EEF06F088
:100128001ED080C0F6FF81C0F7FF0001804B812BF5
:100138000800F5CFADF00001AD51000AD8B42FEF9B
:1001480006F0640AD8B40BD0020AD8B4E1D70F0A73
:10015800D8B405D0110AD8B4DED71EEF06F0070EC2
:100168000001A915D8B49AD3000E00019B6F060EA2
:100178009A6F98C0D9FF99C0DAFFDECFAAF0DECF18
:10018800ABF0DDCFACF0030E00019827000E9923E9
:100198000001ACAF12D0AAC011F0ABC012F0ACC0D5
:1001A80013F061EC24F011C0AAF012C0ABF013C038
:1001B800ACF0030E0001A81300D0000E0001A36FDD
:1001C800000EA26F0001AA510001AB110001AC1191
:1001D800D8B493D0820E00018E6FFF0E00018F6F8E
:1001E800AAC090F0ABC091F0ACC092F0ADC093F053
:1001F800100E06D00001D890933392339133903388
:10020800E82EF8D70001905100018E250001A26F59
:10021800000E00018F210001A36F0001A207D8A0E2
:10022800A307A2C011F0A3C012F0000E146E030EB3
:10023800136E01EC24F011C0A2F012C0A3F0A2C00A
:1002480017F0A3C018F0000E1A6E0A0E196E61ECB2
:100258001DF017C0A2F018C0A3F00001A3AF05D08D
:100268000001A207D8A0A30700D00001A2510008EE
:1002780091EC09F043C09CF044C09DF045C09EF04D
:100288009CC01FF09DC020F09EC021F0AAC022F0A3
:10029800ABC023F0ACC024F024EC18F01FC09CF0D5
:1002A80020C09DF021C09EF09CC011F09DC012F0AE
:1002B8009EC013F0000E146E800E156E3F0E166E63
:1002C800ACEC1DF0D8B005D00001A207D8A0A30758
:1002D80014D09CC011F09DC012F09EC013F0000E07
:1002E800146E200E156E410E166EACEC1DF0D8A0E3
:1002F80004D00001A24BA32B00D000019BBF08D063
:1003080000019B511EE10D0E00019A5DD8B019D075
:10031800AAC04DF0ABC04EF0ACC04FF000019A51EE
:10032800B8EC0EF043C050F044C051F045C052F054
:10033800EAEC11F04DC0AAF04EC0ABF04FC0ACF0E3
:1003480000D00001A3BF08D00001A35128E10A0E84
:100358000001A25DD8B023D00001AA510001AB1161
:100368000001AC11D8B477D0AAC02EF0ABC02FF0E2
:10037800ACC030F08EEC19F02E502F103010311028
:10038800D8A469D00001A3BF66D00001A35107E13A
:10039800020E0001A25DD8B002D05DD000D09CC092
:1003A80011F09DC012F09EC013F0700E146E890EED
:1003B800156E400E166EACEC1DF0D8B003D00001DF
:1003C800F70E02D00001F80EA227FF0EA32300D0DB
:1003D8000001A25191EC09F043C09CF044C09DF08B
:1003E80045C09EF017D0AAC011F0ABC012F0ACC047
:1003F80013F09CC014F09DC015F09EC016F09FEC41
:1004080017F011C0A4F012C0A5F013C0A6F014C0D4
:10041800A7F017D0AAC011F0ABC012F0ACC013F00F
:100428009CC014F09DC015F09EC016F017EC17F094
:1004380011C0A4F012C0A5F013C0A6F014C0A7F014
:1004480000D0000E0001AA6F000E0001AB6F000E75
:100458000001AC6F34D0AAC02EF0ABC02FF0ACC0F6
:1004680030F08EEC19F02EC0A4F02FC0A5F030C0EB
:10047800A6F031C0A7F0AAC059F0ABC05AF0ACC082
:100488005BF0A4C019F0A5C01AF0A6C01BF0A7C065
:100498001CF0E1EC20F019C05CF01AC05DF01BC044
:1004A8005EF053EC22F059C0AAF05AC0ABF05BC022
:1004B800ACF0000E0001A36F000EA26F00D0010E79
:1004C8000001AD6F0A0E0001AD19D8B422D001D0D9
:1004D80020D00001AD51040D9C0EF324F66EFD0EE4
:1004E800F420F76E0900F5500001A45D0900F550ED
:1004F8000001A5590900F5500001A6590900F55059
:100508000001A759D8A005D001D003D00001AD2B18
:10051800D9D7ADC08EF000018F6B8EBF8F07000159
:100528009A5100018E2700019B5100018F23000181
:10053800A25100018E270001A35100018F23000161
:100548008E510001A05F00018F510001A15B0001E5
:100558009A5100019B11D8B405D00001A007D8A07A
:10056800A10700D0030E0001A81500018E6F000E30
:100578000001A91500018F6F00018E5100018F1134
:10058800D8B405D00001A007D8A0A10700D0000169
:10059800A8A531D0030E0001A81500018E6F000E2A
:1005A8000001A91500018F6F00018E5100018F1104
:1005B800D8B40CD02D0EF0EC25F008D0300EF0ECAD
:1005C80025F00001A007D8A0A10700D00001A1BF15
:1005D80077D00001A151F2E10001A005D8A070D0A8
:1005E800EDD76ED008D0200EF0EC25F00001A00762
:1005F800D8A0A10700D00001A1BF07D00001A151D8
:10060800F2E10001A005D8B0EED7030E0001A8154D
:1006180000018E6F000E0001A91500018F6F000107
:100628008E5100018F11D8B44BD02D0EF0EC25F06F
:1006380047D0A4C011F0A5C012F0A6C013F0A7C0FF
:1006480014F00001AD51040D9C0EF324F66EFD0E5E
:10065800F420F76E0900F5CF15F00900F5CF16F074
:100668000900F5CF17F00A00F5CF18F03FEC1EF09F
:1006780011C09CF012C09DF013C09EF014C09FF0F2
:100688009CC01EF09DC01FF09EC020F09FC021F0AE
:100698000A0E226E000E236E000E246E000E256ECA
:1006A800D1EC1FF01EC09CF01FC09DF020C09EF032
:1006B80021C09FF000019C51300FF0EC25F000D0D4
:1006C8000001AD070001AD29D8B40AD0B2D708D0CF
:1006D800300EF0EC25F00001A207D8A0A30700D047
:1006E8000001A3BF07D00001A351F2E10001A20558
:1006F800D8B0EED700019BBF0CD000019B5105E19B
:10070800090E00019A5DD8A004D0080E0001AD6F53
:1007180003D09AC0ADF000D00001AD5100019A5F3E
:10072800000E0001ADBFFF0E00019B5B0001AD5143
:100738000001D8B404D02E0EF0EC25F000D0000152
:10074800AD5191EC09F043C094F044C095F045C018
:1007580096F0AAC022F0ABC023F0ACC024F094C03D
:100768001FF095C020F096C021F024EC18F01FC0AF
:100778002EF020C02FF021C030F08EEC19F02EC0E2
:10078800A4F02FC0A5F030C0A6F031C0A7F06ED0FD
:10079800A4C011F0A5C012F0A6C013F0A7C014F0B1
:1007A8000001AD51040D9C0EF324F66EFD0EF420ED
:1007B800F76E0900F5CF15F00900F5CF16F009001E
:1007C800F5CF17F00A00F5CF18F03FEC1EF011C076
:1007D8009CF012C09DF013C09EF014C09FF09CC006
:1007E8001EF09DC01FF09EC020F09FC021F00A0E91
:1007F800226E000E236E000E246E000E256ED1ECC4
:100808001FF01EC09CF01FC09DF020C09EF021C0AC
:100818009FF000019C51300FF0EC25F0A4C01EF0B1
:10082800A5C01FF0A6C020F0A7C021F00001AD515F
:10083800040D9C0EF324F66EFD0EF420F76E0900ED
:10084800F5CF22F00900F5CF23F00900F5CF24F009
:100858000A00F5CF25F0D1EC1FF01EC0A4F01FC090
:10086800A5F020C0A6F021C0A7F000D00001AD0778
:100878000001AD29D8B40AD08BD708D0300EF0ECDF
:1008880025F000019A07D8A09B0700D000019A51D3
:1008980000019B11D8B4CED1F1D7CCD10001A8BFAB
:1008A80023D098C0D9FF99C0DAFFDECFA4F0DDCFFE
:1008B800A5F00001000EA5BFFF0EA66FA76F020EE0
:1008C80000019827000E99230001A7AF78D0030EE6
:1008D8000001A8130001A71FA61FA51FA46D000EE5
:1008E800A523A623A7236BD098C0D9FF99C0DAFF08
:1008F800DECF8EF0DDCF8FF08EC0A4F08FC0A5F0D4
:100908000001A66BA76B020E00019827000E992321
:1009180056D0010E0001AD6F0A0E0001AD19D8B412
:1009280058D001D056D00001AD51040D9C0EF324CF
:10093800F66EFD0EF420F76E0900F5500001A45D77
:100948000900F5500001A5590900F5500001A65904
:100958000900F5500001A759D8A03BD001D039D0E3
:100968000001AD2BD9D735D0010E0001AD6F080EAF
:100978000001AD19D8B42DD001D02BD00001AD5154
:10098800040D120EF324F66EFE0EF420F76E090025
:10099800F5500001A45D0900F5500001A5590900B2
:1009A800F5500001A6590900F5500001A759D8A033
:1009B80010D001D00ED00001AD2BD9D70AD000013C
:1009C800A851800B000AD8B4A4D7800AD8B4CCD7D1
:1009D80000D00001A0510001A111D8B415D0030E18
:1009E8000001A81500018E6F000E0001A915000175
:1009F8008F6F00018E5100018F11D8B405D000010E
:100A0800A007D8A0A10700D0800E0001ADBF7F0EBF
:100A180000018E6F0001A0510001AD5D0001A151E0
:100A2800800A00018E59D8B00BD00001AD510001E9
:100A3800A05F000E0001ADBFFF0E0001A15B06D054
:100A4800000E0001A16F000EA06F00D00001A8A544
:100A580029D0030E0001A81500018E6F000E0001B9
:100A6800A91500018F6F00018E5100018F11D8B4B4
:100A780004D02D0EF0EC25F000D00001A0510001AB
:100A8800A111D8B438D0300EF0EC25F00001A00741
:100A9800D8A0A1070001A0510001A111D8B42BD002
:100AA800F2D729D00001A0510001A111D8B40FD06C
:100AB800200EF0EC25F00001A007D8A0A107000146
:100AC800A0510001A111D8B402D0F2D700D0030E72
:100AD8000001A81500018E6F000E0001A915000184
:100AE8008F6F00018E5100018F11D8B404D02D0EE4
:100AF800F0EC25F000D00001AD5100019A6F9B6B1E
:100B08009ABF9B078AD07AD09AC08EF09BC08FF08C
:100B18000001D8908E378F370001D8908E378F37E5
:100B28009C0E00018E25F66EFD0E8F21F76E0900D2
:100B3800F5CF15F00900F5CF16F00900F5CF17F03D
:100B48000A00F5CF18F0A4C011F0A5C012F0A6C095
:100B580013F0A7C014F03FEC1EF011C01EF012C035
:100B68001FF013C020F014C021F00A0E226E000EF0
:100B7800236E000E246E000E256ED1EC1FF01E5061
:100B8800300F0001AD6F44D0A4C011F0A5C012F021
:100B9800A6C013F0A7C014F09AC08EF09BC08FF0C7
:100BA8000001D8908E378F370001D8908E378F3755
:100BB800120E00018E25F66EFE0E8F21F76E0900CB
:100BC800F5CF15F00900F5CF16F00900F5CF17F0AD
:100BD8000A00F5CF18F03FEC1EF011500F0B000182
:100BE800976F00019751010D5B0EF324F66EFF0E0F
:100BF800F420F76E0800F5CFADF00AD00001A85137
:100C0800800B000AD8B480D7800AD8B4BDD700D0EA
:100C18000001AD51F0EC25F000D000019A07D8A0F2
:100C28009B0700019A29EAE100019B29D8B402D068
:100C3800E5D700D080C0F6FF81C0F7FF0001804BE8
:100C4800812B0800F5CFADF00001AD51D8B403D029
:100C580016EF00F000D012006404D8A45DD36DC074
:100C68004AF04B6A4ABE4B064AAE29D02D0E000107
:100C7800D26F6DC04AF04B6A4ABE4B064A1E4B1EE5
:100C88004A4A4B2A4AC04CF04BC04DF07F0E4C14D8
:100C9800176E186A000E1A6E0A0E196E61EC1DF0B6
:100CA8001750300F0001D36F7F0E4C143D6E3E6A13
:100CB800000E406E0A0E3F6E90EC1FF01DD02B0EFA
:100CC8000001D26F6D50176E186A17BE1806000E15
:100CD8001A6E0A0E196E61EC1DF01750300F0001E4
:100CE800D36F6D503D6E3E6A3DBE3E06000E406EAF
:100CF8000A0E3F6E90EC1FF03D50300F0001D46F8C
:100D080000D06EAE41D02D0E0001B96F6EC04AF012
:100D18004B6A4ABE4B064A1E4B1E4A4A4B2A4AC0D9
:100D28004EF04BC04FF04EC017F04FC018F0000EF9
:100D38001A6E640E196E61EC1DF01750300F000129
:100D4800BA6F000E1A6E0A0E196E4EC017F04FC019
:100D580018F061EC1DF017C03DF018C03EF0000E11
:100D6800406E0A0E3F6E90EC1FF03D50300F0001B0
:100D7800BB6F4EC03DF04FC03EF0000E406E0A0EF5
:100D88003F6E90EC1FF036D02B0E0001B96F6E50FD
:100D9800176E186A17BE1806000E1A6E640E196EC2
:100DA80061EC1DF01750300F0001BA6F000E1A6E7B
:100DB8000A0E196E6E50176E186A17BE180661EC87
:100DC8001DF017C03DF018C03EF0000E406E0A0E30
:100DD8003F6E90EC1FF03D50300F0001BB6F6E501E
:100DE8003D6E3E6A3DBE3E06000E406E0A0E3F6EE8
:100DF80090EC1FF03D50300F0001BC6F00D06838F8
:100E08000F0B300F01016A6F68500F0B300F010193
:100E18006B6F69380F0B300F01016D6F69500F0B45
:100E2800300F01016E6F6B380F0B300F0101706FBF
:100E38006B500F0B300F0101716F6A380F0B300FB9
:100E480001014F6F6A500F0B300F0101506F663868
:100E58000F0B300F0101526F66500F0B300F01015D
:100E6800536F6F380F0B300F0101556F6F500F0B19
:100E7800300F0101566F6350D8A40BD0CA0E116E03
:100E8800000E126EB30E136EFF0E146E4CEC23F0B0
:100E98002CD06304D8A40BD0CA0E116E000E126EAB
:100EA800E50E136EFF0E146E4CEC23F01ED0020EEE
:100EB8006318D8A40BD0CA0E116E000E126EE90E7C
:100EC800136EFF0E146E4CEC23F00FD0030E631854
:100ED800D8A40BD0CA0E116E000E126EED0E136E52
:100EE800FF0E146E4CEC23F000D0E3C017F0186A24
:100EF800000E1A6E640E196E61EC1DF01750300F5B
:100F08000001CE6FE3C017F0186A000E1A6E0A0EC1
:100F1800196E61EC1DF01750300F0001CF6FE3C060
:100F28003DF03E6A000E406E0A0E3F6E90EC1FF0D8
:100F38003D50300F0001D06FB6C017F0186A000E90
:100F48001A6E640E196E61EC1DF01750300F000117
:100F5800C66FB6C017F0186A000E1A6E0A0E196E20
:100F680061EC1DF01750300F0001C76FB6C03DF09F
:100F78003E6A000E406E0A0E3F6E90EC1FF03D5028
:100F8800300F0001C86F0001E205D8A40BD0790E1C
:100F9800116E010E126ECD0E136EFF0E146E4CEC18
:100FA80023F00BD0790E116E010E126ED20E136E55
:100FB800FF0E146E4CEC23F000D00001E105D8A41C
:100FC8000BD0C20E116E000E126EE10E136EFF0EE4
:100FD800146E4CEC23F00BD0C20E116E000E126E84
:100FE800B30E136EFF0E146E4CEC23F000D067C0E6
:100FF80017F0186A000E1A6E640E196E61EC1DF077
:101008001750300F0001BE6F67C017F0186A000E46
:101018001A6E0A0E196E61EC1DF01750300F0001A0
:10102800BF6F67C03DF03E6A000E406E0A0E3F6E0D
:1010380090EC1FF03D50300F0001C06FD6C02EF06D
:10104800D7C02FF0D8C030F08EEC19F02E50300FEA
:101058000101736F000E226E200E236E410E246E66
:10106800D6C01FF0D7C020F0D8C021F024EC18F06B
:101078001FC02EF020C02FF021C030F08EEC19F0E8
:101088002EC03DF02FC03EF0000E406E0A0E3F6E9F
:1010980090EC1FF03D50300F0101756F000E226E6D
:1010A800C80E236E420E246ED6C01FF0D7C020F0A3
:1010B800D8C021F024EC18F01FC02EF020C02FF06B
:1010C80021C030F08EEC19F02EC03DF02FC03EF05C
:1010D800000E406E0A0E3F6E90EC1FF03D50300F30
:1010E8000101766F5FC017F060C018F0030E1A6E2A
:1010F800E80E196E61EC1DF01750300F01017E6F7C
:101108005FC017F060C018F0000E1A6E640E196EFA
:1011180061EC1DF01750300F01017F6F5FC017F0B1
:1011280060C018F0000E1A6E0A0E196E61EC1DF000
:101138001750300F0101806F5FC03DF060C03EF076
:10114800000E406E0A0E3F6E90EC1FF03D50300FBF
:101158000101816F170E396ED20E3A6E000E3B6E8A
:10116800FF0E3D6EE00E3C6E000E3F6E000E3E6EB2
:10117800020E406E010E01EC1AF0170E396EB90E10
:101188003A6E000E3B6EFF0E3D6EE00E3C6E000E9A
:101198003F6E000E3E6E020E406E3C0E01EC1AF0E1
:1011A800340E396E6A0E3A6E010E3B6E070E3D6EB6
:1011B8003C68000E3F6E000E3E6E020E406E0F0E33
:1011C80001EC1AF0520E396E4F0E3A6E010E3B6E5C
:1011D800070E3D6EE00E3C6E000E3F6E000E3E6E3A
:1011E800020E406E0F0E01EC1AF06E0E396ECA0E2A
:1011F8003A6E000E3B6E070E3D6E3C68000E3F6E69
:10120800000E3E6E010E406E190E01EC1AF06E0EC5
:10121800396ECE0E3A6E000E3B6E070E3D6E3C6880
:10122800000E3F6E000E3E6E010E406E5A0E01EC2F
:101238001AF0820E396EC60E3A6E000E3B6EF80E2C
:101248003D6E000E3C6E000E3F6E000E3E6E010EAF
:10125800406E230E01EC1AF0820E396E790E3A6E4A
:10126800010E3B6EF80E3D6E000E3C6E000E3F6E9A
:10127800000E3E6E010E406E4B0E01EC1AF0820E0F
:10128800396EC20E3A6E000E3B6EF80E3D6E000EC1
:101298003C6E000E3F6E000E3E6E010E406E690EF3
:1012A80001EC1AF0960E396EBE0E3A6E000E3B6EC9
:1012B800070E3D6EE00E3C6E000E3F6E000E3E6E59
:1012C800010E406E0A0E01EC1AF0960E396E730E7E
:1012D8003A6E010E3B6E070E3D6EE00E3C6E000E40
:1012E8003F6E000E3E6E010E406E320E01EC1AF09B
:1012F800960E396E7E0E3A6E010E3B6E070E3D6EEF
:10130800E00E3C6E000E3F6E000E3E6E010E406E0B
:101318005D0E01EC1AF000D01200496E49AEEFD014
:10132800496C4950800A120FD8A08DD0000E146E57
:10133800030E136E000E1A6E0A0E196E000E406E22
:10134800640E3F6E49503D6E3E6A3DBE3E0690ECCF
:101358001FF03DC017F03EC018F061EC1DF0090EFB
:101368001724116E000E1820126E01EC24F0C40E22
:101378001124F66EFD0E1220F76E0900F5CF22F04B
:101388000900F5CF23F00A00F5CF24F0000E1A6EFD
:10139800640E196E4950176E186A17BE180661EC6C
:1013A8001DF0120E1724116E000E1820126E000E7A
:1013B800146E030E136E01EC24F0C40E1124F66EA5
:1013C800FD0E1220F76E0900F5CF1FF00900F5CFCA
:1013D80020F00A00F5CF21F024EC18F01FC046F0E9
:1013E80020C047F021C048F046C01FF047C020F099
:1013F80048C021F0000E146E030E136E000E406EEE
:101408000A0E3F6E49503D6E3E6A3DBE3E0690EC68
:101418001FF03DC011F03EC012F001EC24F0C40EE4
:101428001124F66EFD0E1220F76E0900F5CF22F09A
:101438000900F5CF23F00A00F5CF24F024EC18F0CA
:1014480041D15AD154D04950800A750FD8A04FD0F5
:10145800000E1A6E0A0E196E4950176E186A17BEDA
:10146800180661EC1DF0090E1724116E000E1820E5
:10147800126E000E146E030E136E01EC24F0C40EEF
:101488001124F66EFD0E1220F76E0900F5CF1FF03D
:101498000900F5CF20F00A00F5CF21F0000E146EF8
:1014A800030E136E000E406E0A0E3F6E49503D6EDD
:1014B8003E6A3DBE3E0690EC1FF03DC011F03EC0B6
:1014C80012F001EC24F0C40E1124F66EFD0E122069
:1014D800F76E0900F5CF22F00900F5CF23F00A00D6
:1014E800F5CF24F024EC18F0EDD006D100D0495007
:1014F800030DC40EF324F66EFD0EF2D0FDD0495054
:10150800800A120FD8A08DD0000E146E030E136E31
:10151800000E1A6E0A0E196E000E406E640E3F6EB3
:1015280049503D6E3E6A3DBE3E0690EC1FF03DC000
:1015380017F03EC018F061EC1DF0090E1724116E6B
:10154800000E1820126E01EC24F0EB0E1124F66E3A
:10155800FD0E1220F76E0900F5CF22F00900F5CF35
:1015680023F00A00F5CF24F0000E1A6E640E196EEF
:101578004950176E186A17BE180661EC1DF0120E56
:101588001724116E000E1820126E000E146E030E32
:10159800136E01EC24F0EB0E1124F66EFD0E1220F2
:1015A800F76E0900F5CF1FF00900F5CF20F00A000B
:1015B800F5CF21F024EC18F01FC046F020C047F00A
:1015C80021C048F046C01FF047C020F048C021F0B5
:1015D800000E146E030E136E000E406E0A0E3F6E60
:1015E80049503D6E3E6A3DBE3E0690EC1FF03DC040
:1015F80011F03EC012F001EC24F0EB0E1124F66E4F
:10160800FD0E1220F76E0900F5CF22F00900F5CF84
:1016180023F00A00F5CF24F024EC18F053D06CD056
:1016280059D04950800A750FD8A054D0000E1A6EB0
:101638000A0E196E4950176E186A17BE180661EC23
:101648001DF0090E1724116E000E1820126E000EE0
:10165800146E030E136E01EC24F0EB0E1124F66EDB
:10166800FD0E1220F76E0900F5CF1FF00900F5CF27
:1016780020F00A00F5CF21F0000E146E030E136E51
:10168800000E406E0A0E3F6E49503D6E3E6A3DBEEA
:101698003E0690EC1FF03DC011F03EC012F001EC88
:1016A80024F0EB0E1124F66EFD0E1220F76E0900E1
:1016B800F5CF22F00900F5CF23F00A00F5CF24F08A
:1016C80024EC18F01FC043F020C044F021C045F0BE
:1016D80013D000D04950030DEB0EF324F66EFD0E27
:1016E800F420F76E0900F5CF43F00900F5CF44F078
:1016F8000A00F5CF45F000D0120099EC25F0ECEC8B
:1017080023F0000E256E000E246EE6EC24F005D0C2
:10171800530E0101446F500E04D0460E0101446F70
:10172800410E0101456F320E0101466F340E010171
:10173800476F330E0101496F310E01014B6F330EB4
:1017480001014C6F6404D8A489D1010E396E380E9A
:101758003A6E010E3B6EFF0E3D6E3C68000E3F6E0A
:10176800000E3E6E010E406E010E01EC1AF061C0D3
:1017780011F062C012F07B0E136EFF0E146E4CEC6B
:1017880023F00B0E396E61C03AF062C03BF0F80EE0
:101798003D6E1F0E3C6E000E3F6E000E3E6E010E3B
:1017A800406E180E01EC1AF061C011F062C012F020
:1017B800F50E136EFF0E146E4CEC23F0170E396EF7
:1017C80061C03AF062C03BF0FF0E3D6EE00E3C6E29
:1017D800000E3F6E000E3E6E020E406E260E01ECAD
:1017E8001AF061C011F062C012F01E0E136EFF0EE7
:1017F800146E4CEC23F0170E396E61C03AF062C0DB
:101808003BF0FF0E3D6EE00E3C6E000E3F6E000E8C
:101818003E6E020E406E6E0E01EC1AF061C011F0C1
:1018280062C012F0C80E136EFF0E146E4CEC23F05B
:10183800280E396E61C03AF062C03BF0000E3D6E72
:101848001F0E3C6E000E3F6E000E3E6E010E406E87
:10185800320E01EC1AF061C011F062C012F0D70E1E
:10186800136EFF0E146E4CEC23F0470E396E61C0F8
:101878003AF062C03BF0F80E3D6E000E3C6E000E72
:101888003F6E000E3E6E010E406E320E01EC1AF0F5
:1018980061C011F062C012F0B70E136EFF0E146E25
:1018A8004CEC23F0640E396E61C03AF062C03BF034
:1018B800FF0E3D6EE00E3C6E000E3F6E000E3E6E5B
:1018C800010E406E010E01EC1AF061C011F062C009
:1018D80012F0C20E136EFF0E146E4CEC23F0640E61
:1018E800396E61C03AF062C03BF0FF0E3D6EE00E0B
:1018F8003C6E000E3F6E000E3E6E010E406E410EB5
:1019080001EC1AF061C011F062C012F0A00E136E63
:10191800FF0E146E4CEC23F0780E396E61C03AF06D
:1019280062C03BF0000E3D6E1F0E3C6E000E3F6E17
:10193800000E3E6E010E406E060E01EC1AF061C0FC
:1019480011F062C012F0BD0E136EFF0E146E4CEC57
:1019580023F0780E396E61C03AF062C03BF0000E99
:101968003D6E1F0E3C6E000E3F6E000E3E6E010E69
:10197800406E4B0E01EC1AF061C011F062C012F01B
:10198800FB0E136EFF0E146E4CEC23F0780E396EBE
:1019980061C03AF062C03BF0000E3D6E1F0E3C6E17
:1019A800000E3F6E000E3E6E010E406E690E01EC99
:1019B8001AF061C011F062C012F0F80E136EFF0E3B
:1019C800146E4CEC23F08C0E396E61C03AF062C094
:1019D8003BF0FF0E3D6E3C68000E3F6E000E3E6E03
:1019E800010E406E0C0E01EC1AF061C011F062C0DD
:1019F80012F0DC0E136EFF0E146E4CEC23F08C0EFE
:101A0800396E61C03AF062C03BF0FF0E3D6E3C6833
:101A1800000E3F6E000E3E6E010E406E320E01EC5F
:101A28001AF061C011F062C012F0F10E136EFF0ED1
:101A3800146E4CEC23F08C0E396E61C03AF062C023
:101A48003BF0FF0E3D6E3C68000E3F6E000E3E6E92
:101A5800010E406E5F0E01EC1AF01ED061C011F04D
:101A680062C012F0AC0E136EFF0E146E4CEC23F035
:101A7800500E396E61C03AF062C03BF0F80E3D6E10
:101A88001F0E3C6E000E3F6E000E3E6E020E406E44
:101A9800050E01EC1AF000D0120011EC21F081ECD7
:101AA8000BF0000EB26E030EB16E0001B76900D0E4
:101AB800AEEC20F06B500001B719D8B4A5D06BC0BC
:101AC800B7F075EC22F01FC05FF020C060F0000E88
:101AD80041EC20F03DC0D6F03EC0D7F03FC0D8F072
:101AE800000E116E400E126E400E136ED6C014F02A
:101AF800D7C015F0D8C016F0ACEC1DF0D8B004D0A3
:101B0800010E0001F16F00D02EEC23F014506D6E21
:101B18006D50116E126A11BE1206000E146E090E77
:101B2800136E01EC24F011C017F012C018F0000E6B
:101B38001A6E050E196E61EC1DF01750200F6E6EAF
:101B48006750E5EC21F05FC01FF060C020F096EC14
:101B580021F0750E0001806FFE0E0001816F68C0D4
:101B680082F00001836B69C084F00001856B6BC053
:101B780086F00001876B6AC088F00001896B66C037
:101B88008AF000018B6B6FC08CF000018D6B0EEC3E
:101B980000F0F70E0001806FFE0E0001816F6D509E
:101BA8000001826F836B82BF83076E500001846FD0
:101BB800856B84BF85070EEC00F0200E0001806F56
:101BC800FF0E0001816FD6C082F0D7C083F0D8C065
:101BD80084F00EEC00F0930E0001806FFE0E000101
:101BE800816F5FC082F060C083F067C084F000013D
:101BF800856BF1C086F00001876B0EEC00F0BFEC3E
:101C080021F030EC06F000D06AEC1CF00001AF6F58
:101C18000001AF47AF47AF4783500001AF19F70B3B
:101C2800AF19836E83A661D06404D8A45ED0CB0EAE
:101C38000001806FFE0E0001816FF0C082F000018C
:101C4800836B0EEC00F0000E0001DA6F000ED96F06
:101C580030D002EC25F0DAEC0FF047D002EC25F09A
:101C6800F9EC10F042D002EC25F0ABEC23F03DD0BB
:101C780002EC25F095EC23F038D002EC25F047EC87
:101C880025F033D002EC25F03BEC24F02ED002EC0A
:101C980025F065EC23F029D00001E205D8A402D094
:101CA800000E01D0010E0001E26F1FD010EC25F0EC
:101CB8001CD00001F051000AD8B4CBD7010AD8B41F
:101CC800CDD7020AD8B4CFD7070AD8B4D1D7010ADA
:101CD800D8B4D3D7030AD8B4D5D7010AD8B4D7D73C
:101CE8000F0AD8B4D9D7E2D700D00001E405D8B498
:101CF80004D00001F105D8A4DBD6000E0001E46F82
:101D0800000E0001F16F6404D8A41CD0320E00014B
:101D1800806FFE0E0001816F0EEC00F0000E646E05
:101D2800F4EC24F0000E636E000E0001E36FB00EB9
:101D38000001806FFE0E0001816F0EEC00F081EC57
:101D48000BF0B6D66450D8A4B3D6540E0001806FF9
:101D5800FE0E0001816F0EEC00F0010E646E81EC46
:101D68000BF0A6D60CEF00F04C6E6D0E4C649BD0B9
:101D7800000E146E030E136E000E1A6E0A0E196E04
:101D8800000E406E640E3F6E4CC03DF03E6A90EC13
:101D98001FF03DC017F03EC018F061EC1DF0090EB1
:101DA8001724116E000E1820126E01EC24F0C40ED8
:101DB8001124F66EFD0E1220F76E0900F5CF22F001
:101DC8000900F5CF23F00A00F5CF24F0000E1A6EB3
:101DD800640E196E4CC017F0186A61EC1DF0120EF3
:101DE8001724116E000E1820126E000E146E030ECA
:101DF800136E01EC24F0C40E1124F66EFD0E1220B1
:101E0800F76E0900F5CF1FF00900F5CF20F00A00A2
:101E1800F5CF21F024EC18F01FC049F020C04AF09B
:101E280021C04BF0000E146E030E136E000E406EB0
:101E38000A0E3F6E4CC03DF03E6A90EC1FF03DC06C
:101E480011F03EC012F001EC24F0C40E1124F66E1D
:101E5800FD0E1220F76E0900F5CF22F00900F5CF2C
:101E680023F00A00F5CF24F049C01FF04AC020F043
:101E78004BC021F024EC18F01FC046F020C047F0FA
:101E880021C048F046C01FF047C020F048C021F0EC
:101E9800000E226E000E236E3F0E246E24EC18F006
:101EA8007DD083D062D00A0E4C645FD0000E146ED1
:101EB800030E136E000E406E0A0E3F6E4CC03DF0CE
:101EC8003E6A90EC1FF03DC011F03EC012F001ECEC
:101ED80024F0C40E1124F66EFD0E1220F76E0900D0
:101EE800F5CF22F00900F5CF23F00A00F5CF24F052
:101EF800000E1A6E0A0E196E4CC017F0186A61ECC3
:101F08001DF0090E1724116E000E1820126E000E17
:101F1800146E030E136E01EC24F0C40E1124F66E39
:101F2800FD0E1220F76E0900F5CF1FF00900F5CF5E
:101F380020F00A00F5CF21F024EC18F01FC049F07A
:101F480020C04AF021C04BF049C01FF04AC020F021
:101F58004BC021F0000E226E000E236E3F0E246E41
:101F680024EC18F01BD021D000D04C50030DC40E27
:101F7800F324F66EFD0EF420F76E0900F5CF1FF07E
:101F88000900F5CF20F00A00F5CF21F0000E226EEF
:101F9800000E236E3F0E246E24EC18F01FC043F091
:101FA80020C044F021C045F000D01200000E00010E
:101FB800EC6FAEEC20F06B50D7EC23F00001F76F1C
:101FC8006950D7EC23F00001F56F6850D7EC23F087
:101FD8000001F46F6650D7EC23F00001F36F6A50EC
:101FE800D7EC23F00001F66F6F50D7EC23F0000117
:101FF800F86FF0EC15F083EC14F0010E0001E86FB7
:10200800EFD0AEEC20F06B500001B719D8B4A3D0D4
:102018006BC0B7F075EC22F01FC05FF020C060F015
:10202800000E41EC20F03DC0D6F03EC0D7F03FC0D6
:10203800D8F0000E116E400E126E400E136ED6C010
:1020480014F0D7C015F0D8C016F0ACEC1DF0D8B01D
:1020580004D0010E0001F16F00D02EEC23F01450D3
:102068006D6E6D50116E126A11BE1206000E146E5E
:10207800090E136E01EC24F011C017F012C018F00D
:10208800000E1A6E050E196E61EC1DF01750200F28
:102098006E6E6750E5EC21F05FC01FF060C020F065
:1020A80096EC21F0750E0001806FFE0E0001816F25
:1020B80068C082F00001836B69C084F00001856B01
:1020C8006BC086F00001876B6AC088F00001896BDD
:1020D80066C08AF000018B6B6FC08CF000018D6BBD
:1020E8000EEC00F0F70E0001806FFE0E0001816F0C
:1020F8006D500001826F836B82BF83076E500001B1
:10210800846F856B84BF85070EEC00F0200E0001FC
:10211800806FFF0E0001816FD6C082F0D7C083F0B8
:10212800D8C084F00EEC00F0930E0001806FFE0E14
:102138000001816F5FC082F060C083F067C084F0E7
:102148000001856BF1C086F00001876B0EEC00F092
:10215800BFEC21F000D06AEC1CF0E806D8A440D00F
:10216800020E0001F06539D0090E0001F06135D08A
:1021780002EC25F0030E0001F019D8A403D0A7EC57
:1021880024F000D0040E0001F019D8A403D0B7EC55
:1021980024F000D0050E0001F019D8A403D07BEC80
:1021A80025F000D0080E0001F019D8A403D0D8EC0F
:1021B80025F000D0060E0001F019D8A403D0B4EC25
:1021C8001BF000D0070E0001F019D8A403D0C1EC11
:1021D8001CF000D00001F06903D010EC25F000D00D
:1021E8000001E805D8B40DD71200010E0001E76F11
:1021F800B6C06CF019EC19F04FEC1FF0E2D0AEEC61
:1022080020F06B500001B719D8B4A1D06BC0B7F05B
:1022180075EC22F01FC05FF020C060F0000E41ECAA
:1022280020F03DC0D6F03EC0D7F03FC0D8F0000E39
:10223800116E400E126E400E136ED6C014F0D7C049
:1022480015F0D8C016F0ACEC1DF0D8B004D0010ED3
:102258000001F16F00D02EEC23F014506D6E6D501C
:10226800116E126A11BE1206000E146E090E136E5C
:1022780001EC24F011C017F012C018F0000E1A6E0D
:10228800050E196E61EC1DF01750200F6E6E675029
:10229800E5EC21F05FC01FF060C020F096EC21F063
:1022A800750E0001806FFE0E0001816F68C082F01C
:1022B8000001836B69C084F00001856B6BC086F0F8
:1022C8000001876B6AC088F00001896B66C08AF0DC
:1022D80000018B6B6FC08CF000018D6B0EEC00F071
:1022E8000C0E0001806FFF0E0001816F6D50000120
:1022F800826F836B82BF83076E500001846F856B8A
:1023080084BF85070EEC00F0200E0001806FFF0EE1
:102318000001816FD6C082F0D7C083F0D8C084F0A6
:102328000EEC00F0930E0001806FFE0E0001816F2D
:102338005FC082F060C083F067C084F00001856BE5
:10234800F1C086F00001876B0EEC00F000D06AEC5B
:102358001CF0E806D8A435D0000E0001DA6F000E94
:10236800D96F040E0001F06529D0090E0001F06153
:1023780025D002EC25F0050E0001F019D8A403D0F1
:1023880067EC25F000D0080E0001F019D8A403D09E
:102398005DEC25F000D0060E0001F019D8A403D09A
:1023A80071EC25F000D0070E0001F019D8A403D075
:1023B8005DEC25F000D00001F06903D010EC25F0A9
:1023C80000D00001E705D8B41AD712004FC053F067
:1023D800546A556A4E34533601E354805350586E4C
:1023E80052C053F0546A556A5134533601E354804D
:1023F8005350576E5850D8B40BD05750585CD8B07B
:102408000ED0585000085724536E180E536407D046
:1024180050C04DF051C04EF052C04FF0B8D0575098
:10242800D8B40BD05850575CD8B00ED057500008CD
:102438005824536E180E536407D04DC04DF04EC04B
:102448004EF04FC04FF0A3D0060E566E4FAE02D0DE
:10245800568E00D052BE568C4E8EFF0E4D16FF0E75
:102468004E16000E4F16518EFF0E5016FF0E5116C7
:10247800000E52165750585CD8B01ED0D89050361F
:1024880051365236570658505718D8B40FD05606FA
:1024980056C053F0070E5316D8B408D0EFD706D05D
:1024A800D8904F324E324D32582A00D057505818D3
:1024B800D8B424D0F5D722D05850575CD8B01ED005
:1024C800D8904D364E364F36580658505718D8B40F
:1024D8000FD0560656C053F0070E5316D8B408D07E
:1024E800EFD706D0D890523251325032572A00D006
:1024F80057505818D8B402D0F5D700D056AE0CD0E3
:10250800FF0E4D1AFF0E4E1AFF0E4F1A010E4D26E2
:10251800000E4E22000E4F2256AC0DD0FF0E501A60
:10252800FF0E511AFF0E521A010E5026000E5122AC
:10253800000E522200D0000E566E4D5050264E50BE
:1025480051224F50522252AE0FD0FF0E501AFF0E9A
:10255800511AFF0E521A010E5026000E5122000E7B
:102568005222010E566E00D050C011F051C012F028
:1025780052C013F058C014F056C015F051EC1BF0BF
:1025880011C04DF012C04EF013C04FF000D0120031
:102598002E6E240E306E1E0E2F6EC2D02F50440F9A
:1025A800236E190E246E020E256E000E276E000E85
:1025B800266E3050020DF3500E0F0AEC22F0440E36
:1025C800236E190E246E020E256E000E276E000E65
:1025D800266E3050020DF3500E0F0AEC22F0440E16
:1025E800236E190E246E020E256E070E276E2668BE
:1025F8000E0E0AEC22F0A8D0440E236E190E246E9B
:10260800020E256E000E276E000E266E0E0E0AECC8
:1026180022F0440E236E190E246E020E256E070E4C
:10262800276E266830500E0F0AEC22F08DD0440E2B
:10263800236E190E246E020E256E000E276E000EF4
:10264800266E30500E0F0AEC22F0440E236E190E3F
:10265800246E020E256E070E276E26683050020D76
:10266800F3500E0F0AEC22F06FD0440E236E190EB1
:10267800246E020E256E000E276E000E266E305058
:10268800020DF3500E0F0AEC22F02F50440F236E68
:10269800190E246E020E256E070E276E26680E0E82
:1026A8000AEC22F051D02F50440F236E190E246EDD
:1026B800020E256E000E276E000E266E0E0E0AEC18
:1026C80022F02F50440F236E190E246E020E256E31
:1026D800070E276E266830500E0F0AEC22F034D011
:1026E8002F50440F236E190E246E020E256E000E15
:1026F800276E000E266E30500E0F0AEC22F02F5077
:10270800440F236E190E246E020E256E070E276ED7
:1027180026683050020DF3500E0F0AEC22F014D048
:102728002E50000AD8B43AD7010AD8B465D7030A9C
:10273800D8B47DD7010AD8B498D7070AD8B4B3D784
:10274800010AD8B4CDD700D012002E6E240E306EF8
:102758001E0E2F6EBFD0440E236E190E246E020E6D
:10276800256E000E276E000E266E30500E0F0AECF6
:1027780022F0440E236E190E246E020E256E070EEB
:10278800276E26680E0E0AEC22F0B8D0440E236E8F
:10279800190E246E020E256E000E276E000E266E90
:1027A8003050020DF3500E0F0AEC22F0440E236E47
:1027B800190E246E020E256E070E276E26683050FD
:1027C8000E0F0AEC22F09AD0440E236E190E246ED6
:1027D800020E256E000E276E000E266E0E0E0AECF7
:1027E80022F02F50440F236E190E246E020E256E10
:1027F800000E276E000E266E0E0E0AEC22F0440E16
:10280800236E190E246E020E256E070E276E26689B
:102818003050020DF3500E0F0AEC22F06FD02F50FB
:10282800440F236E190E246E020E256E000E276EBD
:10283800000E266E30500E0F0AEC22F02F50440F77
:10284800236E190E246E020E256E070E276E26685B
:102858000E0E0AEC22F052D02F50440F236E190EA0
:10286800246E020E256E000E276E000E266E305066
:10287800020DF3500E0F0AEC22F02F50440F236E76
:10288800190E246E020E256E070E276E266830502C
:102898000E0F0AEC22F032D0440E236E190E246E6D
:1028A800020E256E000E276E000E266E0E0E0AEC26
:1028B80022F02F50440F236E190E246E020E256E3F
:1028C800070E276E26683050020DF3500E0F0AECE3
:1028D80022F014D02E50000AD8B43DD7010AD8B43B
:1028E80055D7030AD8B470D7010AD8B498D7070ABD
:1028F800D8B4B2D7010AD8B4CFD700D01200F4C0E8
:1029080017F0186A000E1A6E0A0E196E61EC1DF0A7
:102918001750300F0101616FF4C03DF03E6A000EA0
:10292800406E0A0E3F6E90EC1FF03D50300F0101D3
:10293800626FF5C017F0186A000E1A6E0A0E196E4B
:1029480061EC1DF01750300F0101646FF5C03DF0C8
:102958003E6A000E406E0A0E3F6E90EC1FF03D502E
:10296800300F0101656FF7C017F0186A000E1A6E74
:102978000A0E196E61EC1DF01750300F0101676FD8
:10298800F7C03DF03E6A000E406E0A0E3F6E90ECB6
:102998001FF03D50300F0101686FF6C017F0186A3C
:1029A800000E1A6E0A0E196E61EC1DF01750300FEA
:1029B8000101586FF6C03DF03E6A000E406E0A0EE7
:1029C8003F6E90EC1FF03D50300F0101596FF3C07E
:1029D80017F0186A000E1A6E0A0E196E61EC1DF0D7
:1029E8001750300F01015B6FF3C03DF03E6A000ED7
:1029F800406E0A0E3F6E90EC1FF03D50300F010103
:102A08005C6FF8C017F0186A000E1A6E0A0E196E7D
:102A180061EC1DF01750300F01015E6FF8C03DF0FA
:102A28003E6A000E406E0A0E3F6E90EC1FF03D505D
:102A3800300F01015F6F340E396E610E3A6E010E70
:102A48003B6E070E3D6E3C68000E3F6E000E3E6EFC
:102A5800020E406E0F0E01EC1AF0520E396E580E2F
:102A68003A6E010E3B6E070E3D6EE00E3C6E000E98
:102A78003F6E000E3E6E020E406E0F0E01EC1AF015
:102A88001200366E800E3660A6D09F0E2E6401D0DE
:102A9800A2D03450D8A403D0010E346E00D01F0E3B
:102AA8002F6404D07E0E2F6403D000D03F0E2F6E0B
:102AB800000E386E040E386401D08DD0530E2F608E
:102AC80015D0E00E2F24116E126AFF0E1222000E8E
:102AD800146E050E136E01EC24F038501126000E0A
:102AE8001222C10E1124F66EFB0E14D0AD0E2F2447
:102AF800116E126AFF0E1222000E146E050E136E6E
:102B080001EC24F038501126000E1222C00E1124B8
:102B1800F66EFC0E1220F76E0800F5CF35F000D0E7
:102B2800000E376E060E376401D053D035A023D07F
:102B38003404D8A40CD02E503724186E30C019F0A5
:102B480031C01AF0365038247DEC23F03ED037508F
:102B58003402F3502E24236E34C024F034C025F000
:102B680030C026F031C027F038503402F3503624F4
:102B78000AEC22F02AD03050321804E131503318D0
:102B8800D8B423D03404D8A40CD02E503724186ECF
:102B980032C019F033C01AF0365038247DEC23F0D7
:102BA80014D037503402F3502E24236E34C024F04E
:102BB80034C025F032C026F033C027F03850340234
:102BC800F35036240AEC22F000D0372AD890353258
:102BD800A9D7382A6FD7120099EC25F0ECEC23F02E
:102BE800000E256E000E246EE6EC24F005D0530E80
:102BF8000101446F500E04D0460E0101446F410E8E
:102C08000101456F320E0101466F340E0101476F15
:102C1800330E0101496F310E01014B6F330E010173
:102C28004C6F6404D8A476D0010E396E380E3A6E13
:102C3800010E3B6EFF0E3D6E3C68000E3F6E000EAF
:102C48003E6E010E406E010E01EC1AF061C011F0EB
:102C580062C012F0880E136EFF0E146E4CEC23F057
:102C6800100E396E61C03AF062C03BF0F80E3D6E4E
:102C78001F0E3C6E000E3F6E000E3E6E020E406E42
:102C8800040E01EC1AF061C011F062C012F0C80E17
:102C9800136EFF0E146E4CEC23F0280E396E61C0D3
:102CA8003AF062C03BF0000E3D6E1F0E3C6E000E07
:102CB8003F6E000E3E6E010E406E320E01EC1AF0B1
:102CC800440E236E190E246E020E256E070E276E13
:102CD80026680E0E0AEC22F061C011F062C012F0F4
:102CE800D70E136EFF0E146E4CEC23F0470E396EA0
:102CF80061C03AF062C03BF0F80E3D6E000E3C6ECB
:102D0800000E3F6E000E3E6E010E406E320E01EC5C
:102D18001AF000D01200010EE8EC25F0000E186E33
:102D2800960E176EB3EC22F0110EE8EC25F0010EAA
:102D3800186EF40E176EB3EC22F0B10EE8EC25F025
:102D4800010EE0EC25F02C0EE0EC25F02D0EE0EC69
:102D580025F0B20EE8EC25F0010EE0EC25F02C0E83
:102D6800E0EC25F02D0EE0EC25F0B30EE8EC25F0B4
:102D7800010EE0EC25F02C0EE0EC25F02D0EE0EC39
:102D880025F0010EE0EC25F02C0EE0EC25F02D0EE0
:102D9800E0EC25F0B40EE8EC25F0070EE0EC25F0A9
:102DA800C00EE8EC25F0A20EE0EC25F0020EE0ECF7
:102DB80025F0840EE0EC25F0C10EE8EC25F0C50EF8
:102DC800E0EC25F0C20EE8EC25F00A0EE0EC25F068
:102DD800000EE0EC25F0C30EE8EC25F08A0EE0ECDE
:102DE80025F02A0EE0EC25F0C40EE8EC25F08A0E5A
:102DF800E0EC25F0EE0EE0EC25F0C50EE8EC25F051
:102E08000E0EE0EC25F0200EE8EC25F0360EE8EC8E
:102E180025F0C80EE0EC25F03A0EE8EC25F0050E9A
:102E2800E0EC25F0120013C017F0186A196A123482
:102E3800173601E3188017501F6E1F50D8A402D010
:102E48005DD078D016C017F0186A196A153417368D
:102E580001E3188017501E6E1E50D8A402D04ED021
:102E680069D0128EFF0E1116FF0E1216000E1316E1
:102E7800158EFF0E1416FF0E1516000E1616000EF0
:102E88001A6E000E1B6E000E1C6E000E1D6E7F0E5D
:102E98001F5E1E50980F1F5E180E1E6ED8901A36B1
:102EA8001B361C361D361450115C1550125816501E
:102EB8001358D8A007D01450115E1550125A165046
:102EC800135A1A80D8901136123613361E2EE6D7AA
:102ED80000D01FAE10D01F50800A970FD8B003D073
:102EE8000DD028D000D0D8901D321C321B321A3297
:102EF8001F3EF9D717D0170E1F6411D0000E116EA0
:102F0800000E126E000E136E000E146E13D007D052
:102F1800D8901A361B361C361D361F0600D01F5097
:102F2800D8A4F6D71AC011F01BC012F01CC013F0B9
:102F38001DC014F01200133414341C6E1C50D8A495
:102F480002D061D07CD0163417341B6E1B50D8A425
:102F580002D059D074D0138EFF0E1116FF0E121620
:102F6800FF0E1316000E1416168EFF0E1416FF0E03
:102F78001516FF0E1616000E1716000E176E000E09
:102F8800186E000E196E000E1A6E7F0E1C5E1B5016
:102F9800A00F1C5E200E1B6E00D0D8901736183676
:102FA80019361A361450115C155012581650135809
:102FB80017501458D8A00AD01450115E1550125A40
:102FC8001650135A1750145A178000D0D89011363B
:102FD8001236133614361B2EE0D700D01CAE10D094
:102FE8001C50800A9F0FD8B003D00DD028D000D035
:102FF800D8901A321932183217321C3EF9D717D026
:103008001F0E1C6411D0000E116E000E126E000E01
:10301800136E000E146E13D007D0D89017361836DA
:1030280019361A361C0600D01C50D8A4F6D717C07B
:1030380011F018C012F019C013F01AC014F01200E1
:1030480021C025F0266A276A2034253601E3268028
:103058002550286E2850D8A402D00ED06CD024C099
:1030680025F0266A276A2334253601E32680255071
:103078002D6E2D50D8A407D0000E1F6E000E206EA6
:10308800000E216E58D02D507B0F282621C02DF020
:1030980024502D1A800E2D16208E238EFF0E2216F8
:1030A800FF0E2316000E2416000E296E000E2A6E3F
:1030B800000E2B6E070E2C6E00D01FA007D02250DA
:1030C800292623502A2224502B2200D0D89021329E
:1030D80020321F32D8902236233624362C2EEDD7B4
:1030E80000D0090E2C6E00D01FA007D02250292630
:1030F80023502A2224502B2200D0D890213220326B
:103108001F32D8902B322A3229322C2EEDD700D0FC
:1031180029C011F02AC012F02BC013F028C014F0F7
:103128002DC015F051EC1BF011C01FF012C020F09B
:1031380013C021F000D01200E00EE8EC25F0020EDA
:10314800E0EC25F01C0EE0EC25F0070EE0EC25F095
:10315800120EE0EC25F0370EE0EC25F0320EE0EC34
:1031680025F0290EE0EC25F02D0EE0EC25F0290ED7
:10317800E0EC25F0250EE0EC25F02B0EE0EC25F038
:10318800390EE0EC25F0000EE0EC25F0010EE0EC45
:1031980025F0030EE0EC25F0100EE0EC25F0E10E32
:1031A800E8EC25F0030EE0EC25F01D0EE0EC25F030
:1031B800070EE0EC25F0060EE0EC25F02E0EE0EC14
:1031C80025F02C0EE0EC25F0290EE0EC25F02D0E74
:1031D800E0EC25F02E0EE0EC25F02E0EE0EC25F0CC
:1031E800370EE0EC25F03F0EE0EC25F0000EE0ECA9
:1031F80025F0000EE0EC25F0020EE0EC25F0100EB4
:10320800E0EC25F0130EE8EC25F0000E186E0A0E1F
:10321800176EB3EC22F0290EE8EC25F0000E186EBC
:10322800640E176EB3EC22F0120099EC25F0ECEC6A
:1032380023F0000E256E000E246EE6EC24F005D077
:10324800530E0101446F500E04D0460E0101446F25
:10325800410E0101456F320E0101466F340E010126
:10326800476F330E0101496F310E01014B6F330E69
:1032780001014C6F6404D8A44CD0010E396E380E8D
:103288003A6E010E3B6EFF0E3D6E3C68000E3F6EBF
:10329800000E3E6E010E406E010E01EC1AF061C088
:1032A80011F062C012F0940E136EFF0E146E4CEC07
:1032B80023F01A0E396E61C03AF062C03BF0FF0E7F
:1032C8003D6EE00E3C6E000E3F6E000E3E6E020E2E
:1032D800406E010E01EC1AF061C011F062C012F0EC
:1032E8006C0E136EFF0E146E4CEC23F03C0E396E10
:1032F80061C03AF062C03BF0070E3D6E3C68000EBC
:103308003F6E000E3E6E010E406E0F0E01EC1AF07D
:1033180000D0120030C032F0336A346A2F343236AB
:1033280001E3338032503C6E3C50D8A402D039D0EF
:1033380063D0170E326E2EC033F02FC034F030C079
:1033480035F03228366E04D0D890353234323332E4
:10335800362EFAD73350376E2F8EFF0E2E16FF0EED
:103368002F16000E30162E50386E2F50396E3050F2
:103378003A6E3B6A8E0E3C5E3CAE10D03C50800AE2
:103388008F0FD8B003D00DD037D000D0D8903B32B3
:103398003A32393238323C3EF9D719D0170E3C64EC
:1033A80011D0000E2E6E000E2F6E000E306E000E25
:1033B800316E22D007D0D890383639363A363B3677
:1033C8003C0600D03C50D8B402D0F5D700D03750D6
:1033D800D8B409D03B1E3A1E391E386C000E39226B
:1033E8003A223B2200D038C02EF039C02FF03AC024
:1033F80030F03BC031F000D01200436E43C049F0BA
:1034080039C048F03AC011F03BC012F0D2EC22F0BB
:1034180011C044F012C045F0000E476E000E466E13
:1034280056D00001B8510001D8B42CD04050050D39
:103438004950416E426AF3504126F450422242BE3E
:1034480021D0425004E1810E415CD8A01BD0000E6F
:10345800496E4050070DF3504824030F486EA00EE4
:10346800486403D0A00E486E00D046503A24D96E66
:1034780047503B20DA6E200EDE18D8B425D002D093
:1034880023D000D048C02EF046503A24D96E475079
:103498003B20DA6EDF502F6E3CC030F03DC031F07B
:1034A8003EC032F03FC033F040C034F0495045ECE4
:1034B80015F04050060DF3504924496E800E4964BA
:1034C80003D0800E496E00D0464A472A00D04450A7
:1034D800465C45504758D8A0A4D7120030C034F0F5
:1034E800356A366A2F34343601E3358034503B6E02
:1034F8003B50D8A402D00ED061D033C034F0356A26
:10350800366A3234343601E3358034503C6E3C50F0
:10351800D8A407D0000E2E6E000E2F6E000E306E4F
:103528004DD0000E386E000E396E000E3A6E3C50CB
:10353800890F3B5E30C03CF033503C1A800E3C167D
:103548002F8EFF0E2E16FF0E2F16000E3016328EFF
:10355800FF0E3116FF0E3216000E3316180E376E98
:1035680000D0D890383639363A3631502E5C325041
:103578002F5833503058D8A007D031502E5E3250D3
:103588002F5A3350305A3880D8902E362F3630364E
:10359800372EE7D700D038C011F039C012F03AC042
:1035A80013F03BC014F03CC015F051EC1BF011C0F7
:1035B8002EF012C02FF013C030F000D01200236E8E
:1035C800800E236069D09F0E186401D065D0FF0E6D
:1035D8001D6EFF0E1E6E195023C01FF0206A1F2695
:1035E800000E20221D501F261E50202220BE0AD069
:1035F800205004E1800E1F5CD8A004D0235000089E
:10360800800F196EFF0E1D6EFF0E1E6E1A5018C029
:103618001FF0206A1F26000E20221D501F261E5054
:10362800202220BE0BD0205004E1A00E1F5CD8A0A1
:1036380005D018500008A00F1A6E00D018C014F05A
:10364800235019241D6E1D04156E18501A241E6E61
:103658001E04166E23506BEC21F01C50216E1BC00B
:1036680022F0838E82981AC018F01850D8B413D05C
:1036780001D011D019C023F02350D8B40AD001D0FA
:1036880008D0215085EC25F0225085EC25F0230642
:10369800F3D71806EAD7828812001450D8B405D098
:1036A800115012101310D8A40ED0000E116E000E77
:1036B800126E000E136E53D006D0142AD89013320F
:1036C8001232113200D0000E1114166E000E1214B0
:1036D800176EFE0E1314186E165017101810D8B463
:1036E8000ED0EBD70CD0142A010E1126000E122290
:1036F800000E1322D89013321232113200D0000E6D
:103708001114166E000E1214176EFF0E1314186E95
:10371800165017101810D8B408D0E5D706D01406DC
:10372800D89011361236133600D012BE04D0020ECD
:103738001460F5D700D014B002D0129E00D0D890F3
:103748001432145013121550D8B402D0138E00D06E
:1037580011C011F012C012F013C013F000D0120003
:1037680042D00001F451D8A404D0170E0001F46F20
:103778004FD00001F4074CD00001F551D8A404D073
:103788003B0E0001F56F44D00001F50741D0000160
:10379800F751D8A404D03B0E0001F76F39D00001CF
:1037A800F70736D00001F605D8A404D00C0E0001A6
:1037B800F66F2ED00001F6072BD00001F305D8A430
:1037C80004D0010E0001F36F23D00001F30720D0CD
:1037D8000001F851D8A404D0630E0001F86F18D086
:1037E8000001F80715D00001EC51000AD8B4B9D788
:1037F800010AD8B4C1D7030AD8B4C9D7010AD8B4C2
:10380800D1D7070AD8B4D9D7010AD8B4E1D700D09C
:1038180083EC14F01200436E040ECB6E070ECA6ED2
:10382800000E226E800E236E400E246E43504EEC26
:1038380024F019C01FF01AC020F01BC021F024EC9E
:1038480018F01FC02EF020C02FF021C030F0000E5D
:10385800316EA00E326E410E336E72EC1AF02EC02D
:1038680040F02FC041F030C042F040C02EF041C0BF
:103878002FF042C030F08EEC19F02EC044F02FC06B
:1038880045F043503D6E3E6A44503D5C3E50800AD0
:103898003F6E4550800A3F58D8B003D0444A452A65
:1038A80000D044C03DF0030E3D163D38F00B0C0926
:1038B800BD6E44C03DF045C03EF03E343E323D3220
:1038C8003E343E323D323D50BE6E120021EE23F0B2
:1038D80011EE88F0140EDBCFE3FFE806FCE20001EE
:1038E800D9050001DA11D8A445D0000E0001DA6F1D
:1038F800000ED96FF088F1980001F069000E0101FF
:103908009E6F000E9D6F01019EBF0AD001019E515E
:1039180021E1150E01019D5DD8B01CD001D01AD04F
:10392800880E01019D25D96E010E01019E21DA6ED6
:103938000001E951DE18D8A408D09DC1F0F0000EAE
:1039480001019E6F150E9D6F00D001019D4B9E2BAE
:10395800DAD700D00001F029D8A40AD0E10E00017E
:10396800806FFE0E0001816F0EEC00F003D004D0D2
:10397800010E02D0000E00D012003AD00001F42B44
:10398800180E0001F419D8A448D0000E0001F46FF5
:1039980044D00001F52B3C0E0001F519F4D73DD0B9
:1039A8000001F72B3C0E0001F719D8A436D0000E01
:1039B8000001F76F32D00001F62B0D0E0001F61949
:1039C800D8A42BD0010E0001F66F27D00001F32BED
:1039D800200E0001F319D8A420D0010E0001F36FC6
:1039E8001CD00001F82B640E0001F819CCD715D0B3
:1039F8000001EC51000AD8B4C1D7010AD8B4C9D71C
:103A0800030AD8B4CDD7010AD8B4D5D7070AD8B491
:103A1800DDD7010AD8B4E5D700D083EC14F0120042
:103A2800680E4A6E000E4B6E0001F7513FEC21F014
:103A380043506B6E0001F5513FEC21F04350696E25
:103A48000001F4513FEC21F04350686E010E000173
:103A5800EF6F0001F3513FEC21F04350666E000117
:103A6800F6513FEC21F043506A6E0001F8513FECEB
:103A780021F043506F6EB4EC25F04A504A24F1EC23
:103A880022F04B50F1EC22F06B50F1EC22F069502F
:103A9800F1EC22F06850F1EC22F00001EF51F1EC6A
:103AA80022F06650F1EC22F06A50F1EC22F06F50EF
:103AB800F1EC22F0ABEC25F01200000E1C6E1AAEF1
:103AC80007D0196C1A1ED8B01A2A010E1C6E00D025
:103AD80018AE07D0176C181ED8B0182A010E1C1A79
:103AE80000D0000E1E6E000E1D6E19501A10D8B4AC
:103AF80021D0010E1B6E05D0D89019361A361B2A14
:103B080000D01ABE02D0F8D700D0D8901D361E3685
:103B18001950175C1A501858D8A006D01950175EBB
:103B28001A50185A1D8000D0D8901A3219321B2EFC
:103B3800ECD700D01C50D8B405D01D6C1E1ED8B0D0
:103B48001E2A00D01DC017F01EC018F000D01200A9
:103B580013AE17D011C017F012C018F013C019F027
:103B6800171E181E191E172A000E18221922000ED9
:103B78001724116E000E1820126E800E1920136E75
:103B880000D016AE17D014C017F015C018F016C024
:103B980019F0171E181E191E172A000E18221922AE
:103BA800000E1724146E000E1820156E800E1920B2
:103BB800166E00D0000E111A000E121A800E131A7B
:103BC800000E141A000E151A800E161A1450115CE5
:103BD8001550125816501358D8B002D0D89002D0A9
:103BE800D88000D012000600EACF06F0E1CF07F037
:103BF800E2CF08F0D9CF09F0DACF0AF0F3CF0BF013
:103C0800F4CF0CF0F6CF0DF0F7CF0EF0F8CF0FF0A1
:103C1800F5CF10F09EA003D0FEEC25F000D0F2A264
:103C280003D0C1EC23F000D0F0A003D01FEC26F0A5
:103C380000D0F0A203D01AEC26F000D010C0F5FF97
:103C48000FC0F8FF0EC0F7FF0DC0F6FF0CC0F4FF61
:103C58000BC0F3FF0AC0DAFF09C0D9FF08C0E2FFB2
:103C680007C0E1FF06C0EAFF05C0E9FF04C0FBFF8B
:103C780003C0FAFF1100000E196E000E1A6E000E36
:103C88001B6E000E1C6E1550161017101810D8B4A5
:103C98002FD0010E1D6E07D0D89015361636173660
:103CA80018361D2A00D018BE02D0F6D700D0D890FA
:103CB80019361A361B361C361550115C1650125818
:103CC8001750135818501458D8A00AD01550115E20
:103CD8001650125A1750135A1850145A198000D0F7
:103CE800D89018321732163215321D2EE0D700D070
:103CF80019C011F01AC012F01BC013F01CC014F048
:103D080012002020202020202020202020202020D9
:103D180020202020202020000000000000000000BB
:103D28000000000000A262E22202C2E0A8906898A7
:103D3800B030187A10385A424A5245434533333026
:103D4800314C2046696E466132342F312F303100B4
:103D58000030302F30302F30300030312F30312FBD
:103D680030300030303A30303A30300030303A308D
:103D7800303A303000302E303056004D414E55002C
:103D880030303030003037374600226E800E2260E7
:103D98003FD09F0E186401D03BD0FF0E1C6EFF0E63
:103DA8001D6E195018C01EF01F6A1E26000E1F2215
:103DB8001C501E261D501F221FBE0BD01F5004E191
:103DC800A00E1E5CD8A005D018500008A00F196ED0
:103DD80000D01B50206E1AC021F018C014F022C069
:103DE80015F0185019241C6E1C04166E22506BEC2A
:103DF80021F0838E829807D0205085EC25F0215041
:103E080085EC25F000D019061928D8A4F5D78288A2
:103E180012001350115C1250800A156E1450800A5B
:103E28001558D8B01DD013C015F014C016F0151EC3
:103E3800161E154A162A11501524176E12501620F0
:103E4800186E17C015F018C016F0D890153616362B
:103E5800D8901536163615C019F016C01AF000D0CD
:103E68001ABE0BD01A5004E1650E195CD8A005D013
:103E7800000E1A6E640E196E00D012BE0BD01250CE
:103E880004E1650E115CD8A005D0000E1A6E000E74
:103E9800196E00D012006CC017F0186A000E1A6E66
:103EA800640E196E61EC1DF017504A6E6CC017F065
:103EB800186A000E1A6E0A0E196E61EC1DF0175082
:103EC8004B6E6CC03DF03E6A000E406E0A0E3F6EAF
:103ED80090EC1FF03D504C6E4A50300F0101836F3B
:103EE8004B50300F0101846F4C50300F0101856F2A
:103EF8004A0E396E830E3A6E010E3B6EF80E3D6E19
:103F0800000E3C6E000E3F6E000E3E6E020E406EBE
:103F1800280E01EC1AF01200000E426E3EAE07D0D9
:103F28003D6C3E1ED8B03E2A010E426E00D040AE17
:103F380005D03F6C401ED8B0402A00D03F504010FA
:103F4800D8B41DD0010E416E05D0D8903F3640360A
:103F5800412A00D040BE02D0F8D700D03F503D5C87
:103F680040503E58D8A005D03F503D5E40503E5A84
:103F780000D0D89040323F32412EF0D700D0425086
:103F8800D8B405D03D6C3E1ED8B03E2A00D03DC006
:103F98003DF03EC03EF000D0120022502310241005
:103FA8002510D8B429D0010E266E07D0D890223615
:103FB800233624362536262A00D025BE02D0F6D749
:103FC80000D022501E5C23501F58245020582550E2
:103FD8002158D8A009D022501E5E23501F5A2450C1
:103FE800205A2550215A00D0D89025322432233225
:103FF8002232262EE6D700D01EC01EF01FC01FF0AA
:1040080020C020F021C021F01200136E000EAC6E0B
:10401800000EAB6E13A002D0AC8800D013A203D060
:10402800AC8CAB8C00D013A402D0AC8E00D013A6FD
:1040380002D0AB8802D0AB8A00D013B8AC849E986B
:1040480013AA02D0AB8600D013AC02D09D8A01D04F
:104058009D9A9E9A13AE02D09D8801D09D9811C05A
:10406800AFFF1250B06EAC8AAB8E949C948EACB8F5
:10407800ACBE02D0948C00D01200436E4350040DA5
:10408800F328C26E28EC24F011C044F012C045F0A9
:1040980044C011F045C012F0000E146E050E136EE8
:1040A80001EC24F011C019F012C01AF010EC23F042
:1040B80019C02EF01AC02FF01BC030F0000E316E60
:1040C800800E326E440E336E72EC1AF02EC040F041
:1040D8002FC041F030C042F040C03DF041C03EF03A
:1040E80042C03FF000D012000101A26BA16BA06B8F
:1040F8009F6B00EED6F0230EEE6AE806FDE100EEB7
:104108005FF0110EEE6AE806FDE10A0EF66E3D0E4E
:10411800F76E000EF86E01EE00F010EE88F0090060
:10412800F5CFEEFFE550E150FAE12A0EF66E480EA3
:10413800F76E000EF86E00EEB0F010EE26F00900F3
:10414800F5CFEEFFE550E150FAE1000EF86E000100
:1041580051EF0DF0680E156E000E146EB4EC25F0DC
:1041680015501524F1EC22F01450F1EC22F052EC29
:1041780025F0D8801534F1EC22F0010E2FEC22F056
:104188006B6E010E2FEC22F0696E010E2FEC22F0FF
:10419800686E010E2FEC22F00001EF6F010E2FEC7C
:1041A80022F0666E010E2FEC22F06A6E000E2FECE4
:1041B80022F06F6EABEC25F012008E0E216E07D048
:1041C800D8901C321B321A321932212A00D0000E24
:1041D80019141D6E000E1A141E6E000E1B141F6E8D
:1041E800FF0E1C14206E1D501E101F102010D8A486
:1041F800E7D719C011F01AC012F01BC013F021C084
:1042080014F0000E156E51EC1BF011C019F012C01D
:104218001AF013C01BF000D012008FEC25F0F7EC59
:1042280025F0700ED36E0E0EC16E010E926E070E43
:10423800936E010E946E000E956E000E966E000E33
:10424800846E000E0001E16FF19EA00E116E860EC5
:10425800126E010E136E000E146E10EC26F0D7ECE1
:1042680024F073EC24F0320E676EF4EC24F04D0E5B
:104278000001B66F1200496E49C017F0186A000EA7
:104288001A6E0A0E196E61EC1DF017C045F018C0C1
:1042980046F0453A463AF00E461645500F0B461280
:1042A800F00E451649C03DF03E6A000E406E0A0EFB
:1042B8003F6E90EC1FF03D504524476E3E5046201F
:1042C800486E47C043F048C044F000D01200176E53
:1042D8002A0EE8EC25F0000EE0EC25F0175000015E
:1042E800EE25E0EC25F0000EE0EC25F0155000017D
:1042F800EE25E0EC25F02B0EE8EC25F0000EE0ECC6
:1043080025F014500001F225E0EC25F0000EE0EC59
:1043180025F016500001F225E0EC25F02C0EE8EC13
:1043280025F012001FC017F020C018F0010E1A6EF9
:10433800F40E196E61EC1DF0010E1724216E000EAB
:104348001820226E22BE0BD0225004E1080E215CF8
:10435800D8A005D0000E226E070E216E00D01F5087
:104368002010D8A405D0000E226E000E216E00D0B9
:1043780021C084FF12000001E205D8A40ED06E50BF
:10438800116E126A11BE1206B6C013F0146A0DEC53
:104398001FF067500FEC1CF000D06350D8B410D059
:1043A8000001E351D8B403D00001E30700D00001B5
:1043B800E351D8A405D0000E636EF4EC24F000D0CD
:1043C8001200206E20C017F0186A000E1A6E0A0E2E
:1043D800196E61EC1DF017C021F018C022F022BE42
:1043E8000BD0225004E1080E215CD8A005D0000EA5
:1043F800226E070E216E00D021C01FF01F3AF00E6A
:104408001F1683508F0B1F10836E12002B6E2BC04C
:104418002CF02D6A0ED023C018F025C019F026C044
:104428001AF027C01BF02C50C9EC1EF02C4A2D2A7C
:1044380000D024502BC028F0296A2826000E2922F3
:1044480028502C5C2D50800A2A6E2950800A2A5840
:10445800D8A0E1D71200116E28EC26F0000E126EDB
:10446800070E126401D00FD005EC26F081AA03D004
:10447800D880133604D013501324136E00D024ECC4
:1044880026F0122AEDD71150D8B403D0A2EC25F0AB
:1044980003D00BEC26F000D0135000D012005C5073
:1044A8005D105E10D8B407D0000E5C1A000E5D1ABD
:1044B800800E5E1A00D059C04DF05AC04EF05BC055
:1044C8004FF05CC050F05DC051F05EC052F0EAECB5
:1044D80011F04DC059F04EC05AF04FC05BF000D0FB
:1044E8001200B2CF17F0186A000E1A6E020E196E7B
:1044F80061EC1DF017C021F018C022F0000EB26E5A
:1045080021C011F022C012F0000E146E3C0E136E82
:1045180001EC24F011C01FF012C020F000D01200EE
:104528002A0EE8EC25F0000EE0EC25F0000EE0EC99
:1045380025F0000EE0EC25F07F0EE0EC25F02B0EC8
:10454800E8EC25F0000EE0EC25F0000EE0EC25F09C
:10455800000EE0EC25F09F0EE0EC25F0120017C0ED
:1045680011F018C012F0000E146EFA0E136E01EC62
:1045780024F011C019F012C01AF0196C1A1ED8B024
:104588001A2A020ED56E1A50D76E19C0D6FFF294A9
:10459800D58E00D0F2A4FED7D59E120011C015F01A
:1045A80012C016F003D0154A162A00D015C0D9FF3C
:1045B80016C0DAFFDF50D8A4F6D711C013F012C026
:1045C80014F0131E141E134A142A15501324116EC6
:1045D80016501420126E00D01200116E000E126ECA
:1045E800070E126401D011D011AE03D028EC26F0CA
:1045F80003D015EC26F000D005EC26F024EC26F0CC
:1046080011501124116E122AEBD728EC26F005EC74
:1046180026F024EC26F01200000E1C6E1AAE07D00D
:10462800196C1A1ED8B01A2A010E1C6E00D019C0B7
:1046380011F01AC012F0136A8E0E146E1CC015F019
:1046480051EC1BF011C019F012C01AF013C01BF086
:1046580000D01200680E186EAA0E166EB4EC25F083
:1046680018501824F1EC22F01650F1EC22F052EC1C
:1046780025F0D8801834F1EC22F0000E2FEC22F04F
:10468800176EABEC25F017C014F0156A00D01200B5
:1046980011C015F012C016F005D0154A162A134A93
:1046A800142A00D013C0F6FF14C0F7FF15C0D9FFB5
:1046B80016C0DAFF0800F5CFDFFFDF50D8A4EDD72A
:1046C80012000001E251D8A413D0640E6718D8A4D0
:1046D80008D01EEC25F01EEC25F067500FEC1CF0FE
:1046E80007D06750050F676E67500FEC1CF000D0BD
:1046F80012001B6E800E1B6013D09F0E186401D031
:104708000FD018C014F01B28156E1828166E1B50F1
:104718006BEC21F01A50E0EC25F01950E0EC25F094
:104728001200030E63600FD0632A6350010DB00EB0
:10473800F324D96E000EF420DA6EDF500001E36F27
:1047480002EC25F003D010EC25F000D012006350E5
:10475800D8A403D010EC25F00FD063066350010DE8
:10476800B00EF324D96E000EF420DA6EDF5000018B
:10477800E36F02EC25F000D01200000E026E000E6E
:10478800016E02BE08D0200E015C4E0E0258D8B051
:1047980005D001D003D0014A022AF3D7F292010EC4
:1047A8000001E46F1200156E15C011F00F0E1116FE
:1047B80015C012F0123A0F0E121612500A0D1150AF
:1047C800F324136E000EF420146E135000D0120060
:1047D8008288839E800EC76E300EC66E8FEC16F0F0
:1047E80094EC22F0A0EC18F0360EE8EC25F0C00EA0
:1047F800E0EC25F0010E656E120011501302F3CFA4
:1048080015F0F4CF16F011501402F350162612507A
:104818001302F350162615C011F016C012F000D07E
:10482800120000050A14300010FF012B3037370042
:10483800303030004F464600373746004F46460076
:10484800303030002B323500C28200D0C2B2FED7E1
:10485800C450146E136AC3501324156E000E14202E
:10486800166E15C011F016C012F000D01200675075
:10487800D8A408D01EEC25F01EEC25F067500FECEC
:104888001CF007D06750FB0F676E67500FEC1CF0E9
:1048980000D012001C6E1C50116E126A136A8E0E24
:1048A800146E000E156E51EC1BF011C019F012C0F9
:1048B8001AF013C01BF000D0120011501210131080
:1048C800D8B406D0000E111A000E121A800E131A50
:1048D80011C011F012C012F013C013F01200F292BE
:1048E800F090F092F288F086F088F19CF19AF198B5
:1048F800000ECF6E000ECE6E9E909D80F28CF28ED2
:104908001200480E0001806FFF0E0001816F0EEC4F
:1049180000F0000E0001E16F8392839467500FEC62
:104928001CF01200136E000E126E3A0E136006D0C1
:104938002F0E136403D0010E126E00D012C011F0B6
:10494800113000D012000001EC51D8A404D0050E9B
:104958000001EC6F03D00001EC0700D00001EC511E
:10496800A9EC13F012000001EC2B060E0001EC1963
:10497800D8A404D0000E0001EC6F00D00001EC5167
:10498800CCEC12F01200156EB4EC25F0155015247D
:10499800F1EC22F01350F1EC22F01450F1EC22F07B
:1049A800ABEC25F01200680E166EAC0E136E020EFC
:1049B800146E1650C7EC24F0EE0E136E16503AEC37
:1049C80025F01200000E186E800E196EA00E1A6ED9
:1049D80024C01BF025C01CF0000EE3EC1AF01200F6
:1049E800340E0001806FFF0E0001816F0EEC00F0A5
:1049F800010E0001E16F8382838412008386BDEC7F
:104A080025F02CEC25F083962CEC26F02CEC25F0E8
:104A180067500FEC1CF012008386C6EC25F02CECD6
:104A280025F083962CEC26F02CEC25F067500FEC43
:104A38001CF012008386CFEC25F02CEC25F0839631
:104A48002CEC26F02CEC25F067500FEC1CF0120033
:104A5800000E126E000E116E800E125CD8B005D0DA
:104A680001D003D0114A122AF7D71200146EB4EC01
:104A780025F014501424F1EC22F01350F1EC22F03C
:104A8800ABEC25F012000001E105D8A403D0F4EC4A
:104A980024F003D085EC24F000D0120024EC26F09A
:104AA80028EC26F005EC26F015EC26F024EC26F090
:104AB80012006C2A6E0E6C6403D06E0E6C6E00D001
:104AC8004FEC1FF012006CC0B6F0AEEC20F081EC99
:104AD8000BF0000E0001E76F12006C06320E6C60DE
:104AE80003D0320E6C6E00D04FEC1FF0120014ECA5
:104AF8001DF0AEEC20F081EC0BF0000E0001E86F29
:104B08001200126E9E96C9CF11F012C0C9FF00D0D4
:104B1800C7A0FED71200000E126E190E116E3C0EC1
:104B280009EC20F0700ED36E12008390000E186E00
:104B3800640E176EB3EC22F08380120015EC26F099
:104B480005EC26F024EC26F028EC26F0120024ECE4
:104B580026F015EC26F005EC26F028EC26F01200DD
:104B680028EC26F005EC26F015EC26F024EC26F0CF
:104B78001200F90ECB6E050ECA6E7C0EBB6E3C0E93
:104B8800BA6E1200F90ECB6E070ECA6E7C0EBB6EA3
:104B98003C0EBA6E1200F90ECB6E050ECA6E4A0EA6
:104BA800BB6E3C0EBA6E1200AEEC20F081EC0BF03E
:104BB800000E0001E86F1200136E8298838E135066
:104BC80085EC25F082881200136E8298839E13501C
:104BD80085EC25F082881200116E00D0ACA2FED7B9
:104BE80011C0ADFF1200010EC26E0E0EC16EA90EED
:104BF800C06E1200000E0001EA6FF198CD909E90F1
:104C080012009388060EE82EFED700D0120005EC9D
:104C180026F024EC26F0120005EC26F028EC26F00D
:104C28001200819A939A00D000D01200F092010EDF
:104C38000001E66F1200F050010E0001E56F12004E
:104C48008198939800D01200938A00D000D0120067
:084C5800000EBA6E82921200F8
:10FBC00000000000000000005F00000007000700C8
:10FBD000147F147F14242A7F2A12231308646236A8
:10FBE000495620500008070300001C224100004134
:10FBF000221C002A1C7F1C2A08083E08080080706E
:10FC000030000808080808000060600020100804A0
:10FC1000023E5149453E00427F40007249494946F3
:10FC20002141494D331814127F1027454545393C71
:10FC30004A4949314121110907364949493646495E
:10FC400049291E0000140000004034000000081480
:10FC500022411414141414004122140802015909F9
:10FC6000063E415D594E7C1211127C7F494949364E
:10FC70003E414141227F4141413E7F494949417FC7
:10FC8000090909013E414151737F0808087F00417D
:10FC90007F41002040413F017F081422417F4040C6
:10FCA00040407F021C027F7F0408107F3E4141419B
:10FCB0003E7F090909063E4151215E7F0919294607
:10FCC000264949493203017F01033F4040403F1F1D
:10FCD0002040201F3F4038403F6314081463030452
:10FCE0007804036159494D43007F414141020408B2
:10FCF0001020004141417F04020102044040404085
:10FD000040000307080020545478407F28444438BA
:10FD10003844444428384444287F38545454180004
:10FD2000087E090218A4A49C787F08040478004483
:10FD30007D40002040403D007F1028440000417F6E
:10FD400040007C047804787C0804047838444444F7
:10FD500038FC1824241818242418FC7C08040408EF
:10FD6000485454542404043F44243C4040207C1C08
:10FD70002040201C3C4030403C44281028444C90FB
:10FD800090907C4464544C44000836410000007755
:10FD900000000041360800020102040201000000D8
:10FDA0000A00000064000000E803000010270000C3
:10FDB000A086010040420F008096980000E1F50502
:10FDC00000CA9A3B00803FCDCC3DD7233C12833AFA
:10FDD000B7D138C62737388635C0D633CC2B3270EA
:10FDE0008930E7DB2EE53C1E42A20D00803F00205B
:10FDF0004100C842007A44401C4650C3472474491D
:10FE000097184BBCBE4C6B6E4E03155079AD60F32A
:10FE10004971010000001000000000010000001006
:10FE200000000000010000001000000000010000C0
:10FE300000105468652073797374656D2077696C60
:10FE40006C206E6F77207475726E206F66662E2040
:10FE50000D0A0A005468652073797374656D207704
:10FE6000696C6C206E6F77207475726E206F6E2EC9
:10FE7000200D0A0A00253032783A253032783A25AA
:10FE800030327820253032782F253032782F2530C7
:10FE90003278002052504D203D202564202064639C
:10FEA000203D202564206C73203D2025640D0A0030
:10FEB0005468652073797374656D206973206E6F63
:10FEC00077204F46462E200D0A0A004B6579204CBC
:10FED0006F636174696F6E203D202564200D0A0AEE
:10FEE0000043616E6E6F742066696E642062757483
:10FEF000746F6E200D0A002054656D70203D202522
:10FF0000642043203D202564204620002054656D58
:10FF100070203D2025642043203D2025642046009C
:10FF20004C696768742053656E736F72203D20259D
:10FF30006620560046616E206973207475726E6586
:10FF400064206F66660D0A0046616E206973207436
:10FF500075726E6564206F6E0D0A00303132333475
:10FF60003536373839616263646566002020536531
:10FF7000742046616E2054656D700054656D706527
:10FF80007261747572653A0054696D6520536574C9
:10FF9000757000002046616E205365747570000016
:10FFA00046414E2053657454656D70005359535447
:10FFB000454D204F46460054696D6572204D6F6473
:10FFC000650054696D65722054696D650041555432
:10FFD0004F004D414E55004461746500566F6C747E
:10FFE000004F4E2000544D3100544D3200544D33DB
:10FFF0000052504D00432F0044430053570000006F
:020000040020DA
:08000000FFFFFFFFFFFFFFFF00
:020000040030CA
:0E000000FF08191EFF8381FF0FC00FE00F40A5
:00000001FF
