:040000000CEF00F011
:10000800FACF03F0FBCF04F0E9CF05F0C7ED1EF0FF
:100018007DEF21F0880E00019E6F000E00019F6F9A
:100028001EEF06F0250E0001B319D8B406D0000162
:10003800B351C8EC26F01EEF06F0000E0001A76FC2
:10004800000EA66F000E0001AF6F000EAE6F07D056
:100058000001AE850001864B872B01D00BD086C0EE
:10006800F6FF87C0F7FF0800F550300AD8B4F0D77C
:1000780001D0F5D786C0F6FF87C0F7FF0800F55016
:1000880068EC25F0D8A04DD0000E0001A76F000E37
:10009800A66F00D0A6C011F0A7C012F0000E146E13
:1000A8000A0E136ED5EC24F011C0A6F012C0A7F00A
:1000B800D00E0001946FFF0E0001956F86C0F6FF09
:1000C80087C0F7FF0800F5500001966F976B000195
:1000D80094510001962700019551000197230001D2
:1000E80096510001A627000197510001A72300019E
:1000F800864B872B86C0F6FF87C0F7FF0800F550B0
:1001080068EC25F0D8A00DD0C5D70BD02FEF06F09E
:100118000001AF8524D00001AE8F21D01EEF06F07C
:100128001ED086C0F6FF87C0F7FF0001864B872BDD
:100138000800F5CFB3F00001B351000AD8B42FEF8F
:1001480006F0640AD8B40BD0020AD8B4E1D70F0A73
:10015800D8B405D0110AD8B4DED71EEF06F0070EC2
:100168000001AF15D8B49AD3000E0001A16F060E96
:10017800A06F9EC0D9FF9FC0DAFFDECFB0F0DECF00
:10018800B1F0DDCFB2F0030E00019E27000E9F23D1
:100198000001B2AF12D0B0C011F0B1C012F0B2C0BD
:1001A80013F022EC25F011C0B0F012C0B1F013C06A
:1001B800B2F0030E0001AE1300D0000E0001A96FCB
:1001C800000EA86F0001B0510001B1110001B21179
:1001D800D8B493D0820E0001946FFF0E0001956F82
:1001E800B0C096F0B1C097F0B2C098F0B3C099F023
:1001F800100E06D00001D890993398339733963370
:10020800E82EF8D700019651000194250001A86F47
:10021800000E000195210001A96F0001A807D8A0D0
:10022800A907A8C011F0A9C012F0000E146E030EA1
:10023800136ED5EC24F011C0A8F012C0A9F0A8C024
:1002480017F0A9C018F0000E1A6E0A0E196E31ECDC
:100258001EF017C0A8F018C0A9F00001A9AF05D07A
:100268000001A807D8A0A90700D00001A8510008DC
:10027800A5EC09F043C0A2F044C0A3F045C0A4F027
:10028800A2C01FF0A3C020F0A4C021F0B0C022F08B
:10029800B1C023F0B2C024F0F4EC18F01FC0A2F0F3
:1002A80020C0A3F021C0A4F0A2C011F0A3C012F096
:1002B800A4C013F0000E146E800E156E3F0E166E5D
:1002C8007CEC1EF0D8B005D00001A807D8A0A9077B
:1002D80014D0A2C011F0A3C012F0A4C013F0000EF5
:1002E800146E200E156E410E166E7CEC1EF0D8A012
:1002F80004D00001A84BA92B00D00001A1BF08D051
:100308000001A1511EE10D0E0001A05DD8B019D069
:10031800B0C04DF0B1C04EF0B2C04FF00001A051D6
:10032800C3EC0EF043C050F044C051F045C052F049
:10033800F5EC11F04DC0B0F04EC0B1F04FC0B2F0C6
:1003480000D00001A9BF08D00001A95128E10A0E78
:100358000001A85DD8B023D00001B0510001B1114F
:100368000001B211D8B477D0B0C02EF0B1C02FF0D0
:10037800B2C030F05EEC1AF02E502F103010311051
:10038800D8A469D00001A9BF66D00001A95107E12E
:10039800020E0001A85DD8B002D05DD000D0A2C086
:1003A80011F0A3C012F0A4C013F0700E146E890EE1
:1003B800156E400E166E7CEC1EF0D8B003D000010E
:1003C800F70E02D00001F80EA827FF0EA92300D0CF
:1003D8000001A851A5EC09F043C0A2F044C0A3F065
:1003E80045C0A4F017D0B0C011F0B1C012F0B2C02F
:1003F80013F0A2C014F0A3C015F0A4C016F06FEC5F
:1004080018F011C0AAF012C0ABF013C0ACF014C0C1
:10041800ADF017D0B0C011F0B1C012F0B2C013F0F7
:10042800A2C014F0A3C015F0A4C016F0E7EC17F0B2
:1004380011C0AAF012C0ABF013C0ACF014C0ADF0FC
:1004480000D0000E0001B06F000E0001B16F000E69
:100458000001B26F34D0B0C02EF0B1C02FF0B2C0DE
:1004680030F05EEC1AF02EC0AAF02FC0ABF030C00E
:10047800ACF031C0ADF0B0C080F0B1C081F0B2C016
:1004880082F0AAC019F0ABC01AF0ACC01BF0ADC026
:100498001CF0AEEC21F019C083F01AC084F01BC028
:1004A80085F08CEC22F080C0B0F081C0B1F082C041
:1004B800B2F0000E0001A96F000EA86F00D0010E67
:1004C8000001B36F0A0E0001B319D8B422D001D0CD
:1004D80020D00001B351040D9C0EF324F66EFD0EDE
:1004E800F420F76E0900F5500001AA5D0900F550E7
:1004F8000001AB590900F5500001AC590900F5504D
:100508000001AD59D8A005D001D003D00001B32B0C
:10051800D9D7B3C094F00001956B94BF950700013B
:10052800A051000194270001A15100019523000169
:10053800A851000194270001A95100019523000149
:1005480094510001A65F000195510001A75B0001CD
:10055800A0510001A111D8B405D00001A607D8A068
:10056800A70700D0030E0001AE150001946F000E1E
:100578000001AF150001956F00019451000195111C
:10058800D8B405D00001A607D8A0A70700D000015D
:10059800AEA531D0030E0001AE150001946F000E18
:1005A8000001AF150001956F0001945100019511EC
:1005B800D8B40CD02D0EC8EC26F008D0300EC8ECFC
:1005C80026F00001A607D8A0A70700D00001A7BF02
:1005D80077D00001A751F2E10001A605D8A070D09C
:1005E800EDD76ED008D0200EC8EC26F00001A60783
:1005F800D8A0A70700D00001A7BF07D00001A751C6
:10060800F2E10001A605D8B0EED7030E0001AE1541
:100618000001946F000E0001AF150001956F0001F5
:10062800945100019511D8B44BD02D0EC8EC26F08A
:1006380047D0AAC011F0ABC012F0ACC013F0ADC0E7
:1006480014F00001B351040D9C0EF324F66EFD0E58
:10065800F420F76E0900F5CF15F00900F5CF16F074
:100668000900F5CF17F00A00F5CF18F055EC1FF088
:1006780011C0A2F012C0A3F013C0A4F014C0A5F0DA
:10068800A2C01EF0A3C01FF0A4C020F0A5C021F096
:100698000A0E226E000E236E000E246E000E256ECA
:1006A800A3EC20F01EC0A2F01FC0A3F020C0A4F04D
:1006B80021C0A5F00001A251300FC8EC26F000D0EF
:1006C8000001B3070001B329D8B40AD0B2D708D0C3
:1006D800300EC8EC26F00001A807D8A0A90700D062
:1006E8000001A9BF07D00001A951F2E10001A80546
:1006F800D8B0EED70001A1BF0CD00001A15105E18F
:10070800090E0001A05DD8A004D0080E0001B36F47
:1007180003D0A0C0B3F000D00001B3510001A05F26
:10072800000E0001B3BFFF0E0001A15B0001B35131
:100738000001D8B404D02E0EC8EC26F000D0000179
:10074800B351A5EC09F043C09AF044C09BF045C0F2
:100758009CF0B0C022F0B1C023F0B2C024F09AC01F
:100768001FF09BC020F09CC021F0F4EC18F01FC0D3
:100778002EF020C02FF021C030F05EEC1AF02EC011
:10078800AAF02FC0ABF030C0ACF031C0ADF06ED0E5
:10079800AAC011F0ABC012F0ACC013F0ADC014F099
:1007A8000001B351040D9C0EF324F66EFD0EF420E7
:1007B800F76E0900F5CF15F00900F5CF16F009001E
:1007C800F5CF17F00A00F5CF18F055EC1FF011C05F
:1007D800A2F012C0A3F013C0A4F014C0A5F0A2C0E8
:1007E8001EF0A3C01FF0A4C020F0A5C021F00A0E7F
:1007F800226E000E236E000E246E000E256EA3ECF2
:1008080020F01EC0A2F01FC0A3F020C0A4F021C099
:10081800A5F00001A251300FC8EC26F0AAC01EF0C6
:10082800ABC01FF0ACC020F0ADC021F00001B35147
:10083800040D9C0EF324F66EFD0EF420F76E0900ED
:10084800F5CF22F00900F5CF23F00900F5CF24F009
:100858000A00F5CF25F0A3EC20F01EC0AAF01FC0B7
:10086800ABF020C0ACF021C0ADF000D00001B30760
:100878000001B329D8B40AD08BD708D0300EC8EC01
:1008880026F00001A007D8A0A10700D00001A051C0
:100898000001A111D8B4CED1F1D7CCD10001AEBF9F
:1008A80023D09EC0D9FF9FC0DAFFDECFAAF0DDCFEC
:1008B800ABF00001000EABBFFF0EAC6FAD6F020EC8
:1008C80000019E27000E9F230001ADAF78D0030ED4
:1008D8000001AE130001AD1FAC1FAB1FAA6D000EC7
:1008E800AB23AC23AD236BD09EC0D9FF9FC0DAFFEA
:1008F800DECF94F0DDCF95F094C0AAF095C0ABF0B0
:100908000001AC6BAD6B020E00019E27000E9F2309
:1009180056D0010E0001B36F0A0E0001B319D8B406
:1009280058D001D056D00001B351040D9C0EF324C9
:10093800F66EFD0EF420F76E0900F5500001AA5D71
:100948000900F5500001AB590900F5500001AC59F8
:100958000900F5500001AD59D8A03BD001D039D0DD
:100968000001B32BD9D735D0010E0001B36F080EA3
:100978000001B319D8B42DD001D02BD00001B35148
:10098800040D120EF324F66EFE0EF420F76E090025
:10099800F5500001AA5D0900F5500001AB590900A6
:1009A800F5500001AC590900F5500001AD59D8A027
:1009B80010D001D00ED00001B32BD9D70AD0000136
:1009C800AE51800B000AD8B4A4D7800AD8B4CCD7CB
:1009D80000D00001A6510001A711D8B415D0030E0C
:1009E8000001AE150001946F000E0001AF15000163
:1009F800956F0001945100019511D8B405D00001FC
:100A0800A607D8A0A70700D0800E0001B3BF7F0EAD
:100A18000001946F0001A6510001B35D0001A751C8
:100A2800800A00019459D8B00BD00001B3510001DD
:100A3800A65F000E0001B3BFFF0E0001A75B06D042
:100A4800000E0001A76F000EA66F00D00001AEA532
:100A580029D0030E0001AE150001946F000E0001AD
:100A6800AF150001956F0001945100019511D8B49C
:100A780004D02D0EC8EC26F000D00001A6510001CC
:100A8800A711D8B438D0300EC8EC26F00001A6075C
:100A9800D8A0A7070001A6510001A711D8B42BD0F0
:100AA800F2D729D00001A6510001A711D8B40FD060
:100AB800200EC8EC26F00001A607D8A0A707000161
:100AC800A6510001A711D8B402D0F2D700D0030E66
:100AD8000001AE150001946F000E0001AF15000172
:100AE800956F0001945100019511D8B404D02D0ED2
:100AF800C8EC26F000D00001B3510001A06FA16B33
:100B0800A0BFA1078AD07AD0A0C094F0A1C095F068
:100B18000001D890943795370001D89094379537CD
:100B28009C0E00019425F66EFD0E9521F76E0900C6
:100B3800F5CF15F00900F5CF16F00900F5CF17F03D
:100B48000A00F5CF18F0AAC011F0ABC012F0ACC083
:100B580013F0ADC014F055EC1FF011C01EF012C018
:100B68001FF013C020F014C021F00A0E226E000EF0
:100B7800236E000E246E000E256EA3EC20F01E508E
:100B8800300F0001B36F44D0AAC011F0ABC012F00F
:100B9800ACC013F0ADC014F0A0C094F0A1C095F0A3
:100BA8000001D890943795370001D890943795373D
:100BB800120E00019425F66EFE0E9521F76E0900BF
:100BC800F5CF15F00900F5CF16F00900F5CF17F0AD
:100BD8000A00F5CF18F055EC1FF011500F0B00016B
:100BE8009D6F00019D51010D5B0EF324F66EFF0E03
:100BF800F420F76E0800F5CFB3F00AD00001AE512B
:100C0800800B000AD8B480D7800AD8B4BDD700D0EA
:100C18000001B351C8EC26F000D00001A007D8A00D
:100C2800A1070001A029EAE10001A129D8B402D056
:100C3800E5D700D086C0F6FF87C0F7FF0001864BD6
:100C4800872B0800F5CFB3F00001B351D8B403D017
:100C580016EF00F000D012006204D8A471D369C066
:100C68004AF04B6A4ABE4B064AAE29D02D0E000107
:100C7800F86F69C04AF04B6A4ABE4B064A1E4B1EC3
:100C88004A4A4B2A4AC04CF04BC04DF07F0E4C14D8
:100C9800176E186A000E1A6E0A0E196E31EC1EF0E5
:100CA8001750300F0001F96F7F0E4C143D6E3E6AED
:100CB800000E406E0A0E3F6E62EC20F01DD02B0E27
:100CC8000001F86F6950176E186A17BE1806000EF3
:100CD8001A6E0A0E196E31EC1EF01750300F000113
:100CE800F96F69503D6E3E6A3DBE3E06000E406E8D
:100CF8000A0E3F6E62EC20F03D50300F0001FA6F93
:100D080000D06AAE41D02D0E0001DF6F6AC04AF0F4
:100D18004B6A4ABE4B064A1E4B1E4A4A4B2A4AC0D9
:100D28004EF04BC04FF04EC017F04FC018F0000EF9
:100D38001A6E640E196E31EC1EF01750300F000158
:100D4800E06F000E1A6E0A0E196E4EC017F04FC0F3
:100D580018F031EC1EF017C03DF018C03EF0000E40
:100D6800406E0A0E3F6E62EC20F03D50300F0001DD
:100D7800E16F4EC03DF04FC03EF0000E406E0A0ECF
:100D88003F6E62EC20F036D02B0E0001DF6F6A5008
:100D9800176E186A17BE1806000E1A6E640E196EC2
:100DA80031EC1EF01750300F0001E06F000E1A6E84
:100DB8000A0E196E6A50176E186A17BE180631ECBB
:100DC8001EF017C03DF018C03EF0000E406E0A0E2F
:100DD8003F6E62EC20F03D50300F0001E16F6A5029
:100DE8003D6E3E6A3DBE3E06000E406E0A0E3F6EE8
:100DF80062EC20F03D50300F0001E26F00D0653802
:100E08000F0B300F01016E6F65500F0B300F010192
:100E18006F6F66380F0B300F0101716F66500F0B43
:100E2800300F0101726F68380F0B300F0101746FBA
:100E380068500F0B300F0101756F67380F0B300FBB
:100E48000101536F67500F0B300F0101546F633866
:100E58000F0B300F0101566F63500F0B300F01015C
:100E6800576F6B380F0B300F0101596F6B500F0B19
:100E7800300F01015A6F6050D8A40BD0F00E116EDC
:100E8800000E126EB30E136EFF0E146E1FEC24F0DC
:100E98002CD06004D8A40BD0F00E116E000E126E88
:100EA800E50E136EFF0E146E1FEC24F01ED0020E1A
:100EB8006018D8A40BD0F00E116E000E126EE90E59
:100EC800136EFF0E146E1FEC24F00FD0030E601883
:100ED800D8A40BD0F00E116E000E126EED0E136E2C
:100EE800FF0E146E1FEC24F000D0C3C017F0186A70
:100EF800000E1A6E640E196E31EC1EF01750300F8A
:100F08000001F46FC3C017F0186A000E1A6E0A0EBB
:100F1800196E31EC1EF01750300F0001F56FC3C089
:100F28003DF03E6A000E406E0A0E3F6E62EC20F005
:100F38003D50300F0001F66FDCC017F0186A000E44
:100F48001A6E640E196E31EC1EF01750300F000146
:100F5800EC6FDCC017F0186A000E1A6E0A0E196ED4
:100F680031EC1EF01750300F0001ED6FDCC03DF082
:100F78003E6A000E406E0A0E3F6E62EC20F03D5055
:100F8800300F0001EE6F0001C205D8A40BD07D0E12
:100F9800116E010E126ECD0E136EFF0E146E1FEC45
:100FA80024F00BD07D0E116E010E126ED20E136E50
:100FB800FF0E146E1FEC24F000D00001C105D8A468
:100FC8000BD0E80E116E000E126EE10E136EFF0EBE
:100FD800146E1FEC24F00BD0E80E116E000E126E8A
:100FE800B30E136EFF0E146E1FEC24F000D064C015
:100FF80017F0186A000E1A6E640E196E31EC1EF0A6
:101008001750300F0001E46F64C017F0186A000E23
:101018001A6E0A0E196E31EC1EF01750300F0001CF
:10102800E56F64C03DF03E6A000E406E0A0E3F6EEA
:1010380062EC20F03D50300F0001E66FB8C02EF092
:10104800B9C02FF0BAC030F05EEC1AF02E50300F55
:101058000101776F000E226E200E236E410E246E62
:10106800B8C01FF0B9C020F0BAC021F0F4EC18F0F5
:101078001FC02EF020C02FF021C030F05EEC1AF017
:101088002EC03DF02FC03EF0000E406E0A0E3F6E9F
:1010980062EC20F03D50300F0101796F000E226E96
:1010A800C80E236E420E246EB8C01FF0B9C020F0DF
:1010B800BAC021F0F4EC18F01FC02EF020C02FF0B9
:1010C80021C030F05EEC1AF02EC03DF02FC03EF08B
:1010D800000E406E0A0E3F6E62EC20F03D50300F5D
:1010E80001017A6F5CC017F05DC018F0030E1A6E2C
:1010F800E80E196E31EC1EF01750300F0101826FA7
:10110800000E1A6E640E196E5CC017F05DC018F000
:1011180031EC1EF017C03DF018C03EF0000E406ED6
:101128000A0E3F6E62EC20F03D50300F0101836FD4
:10113800000E1A6E0A0E196E5CC017F05DC018F02A
:1011480031EC1EF017C03DF018C03EF0000E406EA6
:101158000A0E3F6E62EC20F03D50300F0101846FA3
:101168005CC03DF05DC03EF0000E406E0A0E3F6E62
:1011780062EC20F03D50300F0101856F170E396E7B
:10118800F80E3A6E000E3B6EFF0E3D6EE00E3C6EA2
:10119800000E3F6E000E3E6E020E406E010ED1EC48
:1011A8001AF0170E396EDF0E3A6E000E3B6EFF0E08
:1011B8003D6EE00E3C6E000E3F6E000E3E6E020E5F
:1011C800406E3C0ED1EC1AF0340E396E6E0E3A6E4B
:1011D800010E3B6E070E3D6E3C68000E3F6E000E22
:1011E8003E6E020E406E0F0ED1EC1AF0520E396EA2
:1011F800530E3A6E010E3B6E070E3D6EE00E3C6ECE
:10120800000E3F6E000E3E6E020E406E0F0ED1ECC9
:101218001AF06E0E396EF00E3A6E000E3B6E070E27
:101228003D6E3C68000E3F6E000E3E6E010E406E35
:10123800190ED1EC1AF06E0E396EF40E3A6E000EDD
:101248003B6E070E3D6E3C68000E3F6E000E3E6E14
:10125800010E406E5A0ED1EC1AF0820E396EEC0E69
:101268003A6E000E3B6EF80E3D6E000E3C6E000EA0
:101278003F6E000E3E6E010E406E230ED1EC1AF04A
:10128800820E396E7D0E3A6E010E3B6EF80E3D6E83
:10129800000E3C6E000E3F6E000E3E6E010E406E5C
:1012A8004B0ED1EC1AF0820E396EE80E3A6E000E33
:1012B8003B6EF80E3D6E000E3C6E000E3F6E000E4B
:1012C8003E6E010E406E690ED1EC1AF0960E396E24
:1012D800E40E3A6E000E3B6E070E3D6EE00E3C6E5D
:1012E800000E3F6E000E3E6E010E406E0A0ED1ECEF
:1012F8001AF0960E396E770E3A6E010E3B6E070E97
:101308003D6EE00E3C6E000E3F6E000E3E6E010E0E
:10131800406E320ED1EC1AF0960E396E820E3A6E8D
:10132800010E3B6E070E3D6EE00E3C6E000E3F6EEA
:10133800000E3E6E010E406E5D0ED1EC1AF000D02C
:101348001200496E49AEEFD0496C4950800A120F1D
:10135800D8A08DD0000E146E030E136E000E1A6EF8
:101368000A0E196E000E406E640E3F6E49503D6EB7
:101378003E6A3DBE3E0662EC20F03DC017F03EC01E
:1013880018F031EC1EF0090E1724116E000E18200B
:10139800126ED5EC24F0C40E1124F66EFD0E122048
:1013A800F76E0900F5CF22F00900F5CF23F00A0007
:1013B800F5CF24F0000E1A6E640E196E4950176EA0
:1013C800186A17BE180631EC1EF0120E1724116E9B
:1013D800000E1820126E000E146E030E136ED5EC5C
:1013E80024F0C40E1124F66EFD0E1220F76E0900CB
:1013F800F5CF1FF00900F5CF20F00A00F5CF21F056
:10140800F4EC18F01FC046F020C047F021C048F0A7
:1014180046C01FF047C020F048C021F0000E146EEF
:10142800030E136E000E406E0A0E3F6E49503D6E5D
:101438003E6A3DBE3E0662EC20F03DC011F03EC063
:1014480012F0D5EC24F0C40E1124F66EFD0E122015
:10145800F76E0900F5CF22F00900F5CF23F00A0056
:10146800F5CF24F0F4EC18F041D15AD154D04950BA
:10147800800A750FD8A04FD0000E1A6E0A0E196E8A
:101488004950176E186A17BE180631EC1EF0090E7F
:101498001724116E000E1820126E000E146E030E23
:1014A800136ED5EC24F0C40E1124F66EFD0E122036
:1014B800F76E0900F5CF1FF00900F5CF20F00A00FC
:1014C800F5CF21F0000E146E030E136E000E406E61
:1014D8000A0E3F6E49503D6E3E6A3DBE3E0662ECC6
:1014E80020F03DC011F03EC012F0D5EC24F0C40E3F
:1014F8001124F66EFD0E1220F76E0900F5CF22F0CA
:101508000900F5CF23F00A00F5CF24F0F4EC18F029
:10151800EDD006D100D04950030DC40EF324F66E69
:10152800FD0EF2D0FDD04950800A120FD8A08DD000
:10153800000E146E030E136E000E1A6E0A0E196E4C
:10154800000E406E640E3F6E49503D6E3E6A3DBED1
:101558003E0662EC20F03DC017F03EC018F031ECBA
:101568001EF0090E1724116E000E1820126ED5EC0D
:1015780024F0EB0E1124F66EFD0E1220F76E090012
:10158800F5CF22F00900F5CF23F00A00F5CF24F0BB
:10159800000E1A6E640E196E4950176E186A17BE3F
:1015A800180631EC1EF0120E1724116E000E1820CA
:1015B800126E000E146E030E136ED5EC24F0EB0EB3
:1015C8001124F66EFD0E1220F76E0900F5CF1FF0FC
:1015D8000900F5CF20F00A00F5CF21F0F4EC18F05F
:1015E8001FC046F020C047F021C048F046C01FF099
:1015F80047C020F048C021F0000E146E030E136E91
:10160800000E406E0A0E3F6E49503D6E3E6A3DBE6A
:101618003E0662EC20F03DC011F03EC012F0D5EC61
:1016280024F0EB0E1124F66EFD0E1220F76E090061
:10163800F5CF22F00900F5CF23F00A00F5CF24F00A
:10164800F4EC18F053D06CD059D04950800A750F7B
:10165800D8A054D0000E1A6E0A0E196E4950176E93
:10166800186A17BE180631EC1EF0090E1724116E01
:10167800000E1820126E000E146E030E136ED5ECB9
:1016880024F0EB0E1124F66EFD0E1220F76E090001
:10169800F5CF1FF00900F5CF20F00A00F5CF21F0B3
:1016A800000E146E030E136E000E406E0A0E3F6E8F
:1016B80049503D6E3E6A3DBE3E0662EC20F03DC09C
:1016C80011F03EC012F0D5EC24F0EB0E1124F66EAA
:1016D800FD0E1220F76E0900F5CF22F00900F5CFB4
:1016E80023F00A00F5CF24F0F4EC18F01FC043F003
:1016F80020C044F021C045F013D000D04950030D5C
:10170800EB0EF324F66EFD0EF420F76E0900F5CF0C
:1017180043F00900F5CF44F00A00F5CF45F000D0BA
:10172800120071EC26F068EC24F0000E256E000E15
:10173800246EB8EC25F005D0530E0101486F500E09
:1017480004D0460E0101486F410E0101496F320E67
:1017580001014A6F340E01014B6F330E01014D6FC9
:10176800310E01014F6F330E0101506F6204D8A48E
:1017780089D1010E396E3C0E3A6E010E3B6EFF0E9A
:101788003D6E3C68000E3F6E000E3E6E010E406ED0
:10179800010ED1EC1AF05EC011F05FC012F07B0EA2
:1017A800136EFF0E146E1FEC24F00B0E396E5EC024
:1017B8003AF05FC03BF0F80E3D6E1F0E3C6E000E17
:1017C8003F6E000E3E6E010E406E180ED1EC1AF000
:1017D8005EC011F05FC012F0F50E136EFF0E146EAE
:1017E8001FEC24F0170E396E5EC03AF05FC03BF074
:1017F800FF0E3D6EE00E3C6E000E3F6E000E3E6E1C
:10180800020E406E260ED1EC1AF05EC011F05FC0D9
:1018180012F01E0E136EFF0E146E1FEC24F0170E3E
:10182800396E5EC03AF05FC03BF0FF0E3D6EE00ED1
:101838003C6E000E3F6E000E3E6E020E406E6E0E47
:10184800D1EC1AF05EC011F05FC012F0C80E136E32
:10185800FF0E146E1FEC24F0280E396E5EC03AF0AD
:101868005FC03BF0000E3D6E1F0E3C6E000E3F6EDB
:10187800000E3E6E010E406E320ED1EC1AF05EC0C4
:1018880011F05FC012F0D70E136EFF0E146E1FEC2E
:1018980024F0470E396E5EC03AF05FC03BF0F80E98
:1018A8003D6E000E3C6E000E3F6E000E3E6E010E49
:1018B800406E320ED1EC1AF05EC011F05FC012F02B
:1018C800B70E136EFF0E146E1FEC24F0640E396E03
:1018D8005EC03AF05FC03BF0FF0E3D6EE00E3C6E1E
:1018E800000E3F6E000E3E6E010E406E010ED1ECF2
:1018F8001AF05EC011F05FC012F0C20E136EFF0E38
:10190800146E1FEC24F0640E396E5EC03AF05FC0AE
:101918003BF0FF0E3D6EE00E3C6E000E3F6E000E7B
:101928003E6E010E406E410ED1EC1AF05EC011F011
:101938005FC012F0A00E136EFF0E146E1FEC24F0A1
:10194800780E396E5EC03AF05FC03BF0000E3D6E17
:101958001F0E3C6E000E3F6E000E3E6E010E406E76
:10196800060ED1EC1AF05EC011F05FC012F0BD0E89
:10197800136EFF0E146E1FEC24F0780E396E5EC0E5
:101988003AF05FC03BF0000E3D6E1F0E3C6E000E3D
:101998003F6E000E3E6E010E406E4B0ED1EC1AF0FB
:1019A8005EC011F05FC012F0FB0E136EFF0E146ED6
:1019B8001FEC24F0780E396E5EC03AF05FC03BF041
:1019C800000E3D6E1F0E3C6E000E3F6E000E3E6E0A
:1019D800010E406E690ED1EC1AF05EC011F05FC0C6
:1019E80012F0F80E136EFF0E146E1FEC24F08C0E1E
:1019F800396E5EC03AF05FC03BF0FF0E3D6E3C684A
:101A0800000E3F6E000E3E6E010E406E0C0ED1ECC5
:101A18001AF05EC011F05FC012F0DC0E136EFF0EFC
:101A2800146E1FEC24F08C0E396E5EC03AF05FC065
:101A38003BF0FF0E3D6E3C68000E3F6E000E3E6EA2
:101A4800010E406E320ED1EC1AF05EC011F05FC08C
:101A580012F0F10E136EFF0E146E1FEC24F08C0EB4
:101A6800396E5EC03AF05FC03BF0FF0E3D6E3C68D9
:101A7800000E3F6E000E3E6E010E406E5F0ED1EC02
:101A88001AF01ED05EC011F05FC012F0AC0E136EDB
:101A9800FF0E146E1FEC24F0500E396E5EC03AF043
:101AA8005FC03BF0F80E3D6E1F0E3C6E000E3F6EA1
:101AB800000E3E6E020E406E050ED1EC1AF000D0FC
:101AC8001200DEEC21F095EC0BF0000EB26E030E66
:101AD800B16E0001DD6900D04AEC21F068500001C8
:101AE800DD19D8B4A5D068C0DDF048EC23F01FC0DC
:101AF8005CF020C05DF0000E13EC21F03DC0B8F0A2
:101B08003EC0B9F03FC0BAF0000E116E400E126E22
:101B1800400E136EB8C014F0B9C015F0BAC016F074
:101B28007CEC1EF0D8B004D0010E0001D16F00D0BB
:101B380001EC24F01450696E6950116E126A11BEDE
:101B48001206000E146E090E136ED5EC24F011C0A7
:101B580017F012C018F0000E1A6E050E196E31EC4F
:101B68001EF01750200F6A6E6450DAEC22F05CC049
:101B78001FF05DC020F063EC22F0750E0001866F47
:101B8800FE0E0001876F65C088F00001896B66C092
:101B98008AF000018B6B68C08CF000018D6B67C008
:101BA8008EF000018F6B63C090F00001916B6BC0E9
:101BB80092F00001936B0EEC00F0F70E0001866FB7
:101BC800FE0E0001876F69500001886F896B88BF1E
:101BD80089076A5000018A6F8B6B8ABF8B070EECEE
:101BE80000F0200E0001866FFF0E0001876FB8C05D
:101BF80088F0B9C089F0BAC08AF00EEC00F0930EF4
:101C08000001866FFE0E0001876F5CC088F05DC022
:101C180089F064C08AF000018B6BD1C08CF00001A0
:101C28008D6B0EEC00F0B4EC22F030EC06F000D036
:101C38003AEC1DF0E806D8A463D06204D8A460D0BA
:101C4800CB0E0001866FFE0E0001876FD0C088F0B2
:101C58000001896B0EEC00F0000E0001BC6F000E55
:101C6800BB6F32D0D4EC25F0E5EC0FF049D0D4ECC2
:101C780025F004EC11F044D0D4EC25F094EC24F0D9
:101C88003FD0D4EC25F07EEC24F03AD0D4EC25F00B
:101C980033EC26F035D0D4EC25F0FCEC24F030D031
:101CA800D4EC25F038EC24F02BD0D4EC25F000014E
:101CB800C205D8A402D0000E01D0010E0001C26FE7
:101CC8001FD0E2EC25F01CD00001D051000AD8B496
:101CD800C9D7010AD8B4CBD7020AD8B4CDD7070AD6
:101CE800D8B4CFD7010AD8B4D1D7030AD8B4D3D738
:101CF800010AD8B4D5D70F0AD8B4D7D7E2D700D0BD
:101D08000001C405D8B404D00001D105D8A4E4D694
:101D1800000E0001C46F000E0001D16F6204D8A448
:101D28001CD0320E0001866FFE0E0001876F0EEC8C
:101D380000F0000E626EC6EC25F0000E606E000E1C
:101D48000001C36FB00E0001866FFE0E0001876FA1
:101D58000EEC00F095EC0BF0BFD66250D8A4BCD6C0
:101D6800540E0001866FFE0E0001876F0EEC00F026
:101D7800010E626E95EC0BF0AFD60CEF00F04C6ED6
:101D88006D0E4C649BD0000E146E030E136E000E85
:101D98001A6E0A0E196E000E406E640E3F6E4CC02D
:101DA8003DF03E6A62EC20F03DC017F03EC018F0EE
:101DB80031EC1EF0090E1724116E000E1820126E59
:101DC800D5EC24F0C40E1124F66EFD0E1220F76E29
:101DD8000900F5CF22F00900F5CF23F00A00F5CF6E
:101DE80024F0000E1A6E640E196E4CC017F0186AB3
:101DF80031EC1EF0120E1724116E000E1820126E10
:101E0800000E146E030E136ED5EC24F0C40E1124CC
:101E1800F66EFD0E1220F76E0900F5CF1FF00900CF
:101E2800F5CF20F00A00F5CF21F0F4EC18F01FC030
:101E380049F020C04AF021C04BF0000E146E030E8A
:101E4800136E000E406E0A0E3F6E4CC03DF03E6AA7
:101E580062EC20F03DC011F03EC012F0D5EC24F049
:101E6800C40E1124F66EFD0E1220F76E0900F5CF90
:101E780022F00900F5CF23F00A00F5CF24F049C07D
:101E88001FF04AC020F04BC021F0F4EC18F01FC03E
:101E980046F020C047F021C048F046C01FF047C0B8
:101EA80020F048C021F0000E226E000E236E3F0E77
:101EB800246EF4EC18F07DD083D062D00A0E4C6406
:101EC8005FD0000E146E030E136E000E406E0A0EE5
:101ED8003F6E4CC03DF03E6A62EC20F03DC011F010
:101EE8003EC012F0D5EC24F0C40E1124F66EFD0E9F
:101EF8001220F76E0900F5CF22F00900F5CF23F084
:101F08000A00F5CF24F0000E1A6E0A0E196E4CC0A6
:101F180017F0186A31EC1EF0090E1724116E000E26
:101F28001820126E000E146E030E136ED5EC24F0FA
:101F3800C40E1124F66EFD0E1220F76E0900F5CFBF
:101F48001FF00900F5CF20F00A00F5CF21F0F4ECDE
:101F580018F01FC049F020C04AF021C04BF049C01A
:101F68001FF04AC020F04BC021F0000E226E000E78
:101F7800236E3F0E246EF4EC18F01BD021D000D055
:101F88004C50030DC40EF324F66EFD0EF420F76ECC
:101F98000900F5CF1FF00900F5CF20F00A00F5CFB2
:101FA80021F0000E226E000E236E3F0E246EF4EC1C
:101FB80018F01FC043F020C044F021C045F000D005
:101FC8001200000E0001CB6F4AEC21F06850C0EC03
:101FD80024F00001D86F6650C0EC24F00001D66FE1
:101FE8006550C0EC24F00001D56F6350C0EC24F0BC
:101FF8000001D36F6750C0EC24F00001D76F6B501D
:10200800C0EC24F00001D96FC0EC16F053EC15F0C9
:10201800010E0001C86FEFD04AEC21F068500001B2
:10202800DD19D8B4A3D068C0DDF048EC23F01FC098
:102038005CF020C05DF0000E13EC21F03DC0B8F05C
:102048003EC0B9F03FC0BAF0000E116E400E126EDD
:10205800400E136EB8C014F0B9C015F0BAC016F02F
:102068007CEC1EF0D8B004D0010E0001D16F00D076
:1020780001EC24F01450696E6950116E126A11BE99
:102088001206000E146E090E136ED5EC24F011C062
:1020980017F012C018F0000E1A6E050E196E31EC0A
:1020A8001EF01750200F6A6E6450DAEC22F05CC004
:1020B8001FF05DC020F063EC22F0750E0001866F02
:1020C800FE0E0001876F65C088F00001896B66C04D
:1020D8008AF000018B6B68C08CF000018D6B67C0C3
:1020E8008EF000018F6B63C090F00001916B6BC0A4
:1020F80092F00001936B0EEC00F0F70E0001866F72
:10210800FE0E0001876F69500001886F896B88BFD8
:1021180089076A5000018A6F8B6B8ABF8B070EECA8
:1021280000F0200E0001866FFF0E0001876FB8C017
:1021380088F0B9C089F0BAC08AF00EEC00F0930EAE
:102148000001866FFE0E0001876F5CC088F05DC0DD
:1021580089F064C08AF000018B6BD1C08CF000015B
:102168008D6B0EEC00F0B4EC22F000D03AEC1DF0D0
:10217800E806D8A440D0020E0001D06539D0090E77
:102188000001D06135D0D4EC25F0030E0001D01940
:10219800D8A403D079EC25F000D0040E0001D019A2
:1021A800D8A403D089EC25F000D0050E0001D01981
:1021B800D8A403D053EC26F000D0080E0001D019A3
:1021C800D8A403D0B0EC26F000D0060E0001D01938
:1021D800D8A403D084EC1CF000D0070E0001D0195D
:1021E800D8A403D091EC1DF000D00001D06903D031
:1021F800E2EC25F000D00001C805D8B40DD71200D4
:10220800010E0001C76FDCC0D4F0E9EC19F021EC35
:1022180020F0E2D04AEC21F068500001DD19D8B472
:10222800A1D068C0DDF048EC23F01FC05CF020C0EE
:102238005DF0000E13EC21F03DC0B8F03EC0B9F0DF
:102248003FC0BAF0000E116E400E126E400E136EB3
:10225800B8C014F0B9C015F0BAC016F07CEC1EF086
:10226800D8B004D0010E0001D16F00D001EC24F0E9
:102278001450696E6950116E126A11BE1206000E72
:10228800146E090E136ED5EC24F011C017F012C0AD
:1022980018F0000E1A6E050E196E31EC1EF017506C
:1022A800200F6A6E6450DAEC22F05CC01FF05DC04B
:1022B80020F063EC22F0750E0001866FFE0E00011F
:1022C800876F65C088F00001896B66C08AF00001DD
:1022D8008B6B68C08CF000018D6B67C08EF00001BD
:1022E8008F6B63C090F00001916B6BC092F000019E
:1022F800936B0EEC00F00C0E0001866FFF0E0001D0
:10230800876F69500001886F896B88BF89076A5099
:1023180000018A6F8B6B8ABF8B070EEC00F0200ED2
:102328000001866FFF0E0001876FB8C088F0B9C042
:1023380089F0BAC08AF00EEC00F0930E0001866FA7
:10234800FE0E0001876F5CC088F05DC089F064C034
:102358008AF000018B6BD1C08CF000018D6B0EEC04
:1023680000F000D03AEC1DF0E806D8A435D0000EF5
:102378000001BC6F000EBB6F040E0001D06529D0B0
:10238800090E0001D06125D0D4EC25F0050E00011E
:10239800D019D8A403D049EC26F000D0080E0001CB
:1023A800D019D8A403D00CEC26F000D0060E0001FA
:1023B800D019D8A403D019EC26F000D0070E0001DC
:1023C800D019D8A403D00CEC26F000D00001D069B5
:1023D80003D0E2EC25F000D00001C705D8B41AD725
:1023E80012004FC053F0546A556A4E34533601E315
:1023F80054805350586E52C053F0546A556A513441
:10240800533601E354805350576E5850D8B40BD00C
:102418005750585CD8B00ED0585000085724536E07
:10242800180E536407D050C04DF051C04EF052C042
:102438004FF0B8D05750D8B40BD05850575CD8B0DC
:102448000ED0575000085824536E180E536407D006
:102458004DC04DF04EC04EF04FC04FF0A3D0060E09
:10246800566E4FAE02D0568E00D052BE568C4E8E4F
:10247800FF0E4D16FF0E4E16000E4F16518EFF0E14
:102488005016FF0E5116000E52165750585CD8B011
:102498001ED0D890503651365236570658505718D5
:1024A800D8B40FD0560656C053F0070E5316D8B4FA
:1024B80008D0EFD706D0D8904F324E324D32582A36
:1024C80000D057505818D8B424D0F5D722D0585037
:1024D800575CD8B01ED0D8904D364E364F36580679
:1024E80058505718D8B40FD0560656C053F0070E98
:1024F8005316D8B408D0EFD706D0D89052325132FC
:102508005032572A00D057505818D8B402D0F5D7AF
:1025180000D056AE0CD0FF0E4D1AFF0E4E1AFF0E0D
:102528004F1A010E4D26000E4E22000E4F2256ACB9
:102538000DD0FF0E501AFF0E511AFF0E521A010E3F
:102548005026000E5122000E522200D0000E566E68
:102558004D5050264E5051224F50522252AE0FD05D
:10256800FF0E501AFF0E511AFF0E521A010E502676
:10257800000E5122000E5222010E566E00D050C09D
:1025880011F051C012F052C013F058C014F056C0E8
:1025980015F021EC1CF011C04DF012C04EF013C024
:1025A8004FF000D012002E6E240E306E1E0E2F6ECD
:1025B800C2D02F50440F236E190E246E020E256EC2
:1025C800000E276E000E266E3050020DF3500E0FCF
:1025D800FFEC22F0440E236E190E246E020E256EB7
:1025E800000E276E000E266E3050020DF3500E0FAF
:1025F800FFEC22F0440E236E190E246E020E256E97
:10260800070E276E26680E0EFFEC22F0A8D0440EA7
:10261800236E190E246E020E256E000E276E000E14
:10262800266E0E0EFFEC22F0440E236E190E246E59
:10263800020E256E070E276E266830500E0FFFEC2F
:1026480022F08DD0440E236E190E246E020E256ED4
:10265800000E276E000E266E30500E0FFFEC22F093
:10266800440E236E190E246E020E256E070E276E79
:1026780026683050020DF3500E0FFFEC22F06FD099
:10268800440E236E190E246E020E256E000E276E60
:10269800000E266E3050020DF3500E0FFFEC22F0A4
:1026A8002F50440F236E190E246E020E256E070E4E
:1026B800276E26680E0EFFEC22F051D02F50440FE3
:1026C800236E190E246E020E256E000E276E000E64
:1026D800266E0E0EFFEC22F02F50440F236E190EBB
:1026E800246E020E256E070E276E266830500E0FD8
:1026F800FFEC22F034D02F50440F236E190E246EB5
:10270800020E256E000E276E000E266E30500E0F3C
:10271800FFEC22F02F50440F236E190E246E020E88
:10272800256E070E276E26683050020DF3500E0FE7
:10273800FFEC22F014D02E50000AD8B43AD7010A80
:10274800D8B465D7030AD8B47DD7010AD8B498D7C6
:10275800070AD8B4B3D7010AD8B4CDD700D012002D
:102768002E6E240E306E1E0E2F6EBFD0440E236EBA
:10277800190E246E020E256E000E276E000E266EB0
:1027880030500E0FFFEC22F0440E236E190E246E0B
:10279800020E256E070E276E26680E0EFFEC22F03D
:1027A800B8D0440E236E190E246E020E256E000E4C
:1027B800276E000E266E3050020DF3500E0FFFEC00
:1027C80022F0440E236E190E246E020E256E070E9B
:1027D800276E266830500E0FFFEC22F09AD0440E78
:1027E800236E190E246E020E256E000E276E000E43
:1027F800266E0E0EFFEC22F02F50440F236E190E9A
:10280800246E020E256E000E276E000E266E0E0E2A
:10281800FFEC22F0440E236E190E246E020E256E74
:10282800070E276E26683050020DF3500E0FFFEC8E
:1028380022F06FD02F50440F236E190E246E020E13
:10284800256E000E276E000E266E30500E0FFFEC20
:1028580022F02F50440F236E190E246E020E256E9F
:10286800070E276E26680E0EFFEC22F052D02F506E
:10287800440F236E190E246E020E256E000E276E6D
:10288800000E266E3050020DF3500E0FFFEC22F0B2
:102898002F50440F236E190E246E020E256E070E5C
:1028A800276E266830500E0FFFEC22F032D0440E0F
:1028B800236E190E246E020E256E000E276E000E72
:1028C800266E0E0EFFEC22F02F50440F236E190EC9
:1028D800246E020E256E070E276E26683050020DF4
:1028E800F3500E0FFFEC22F014D02E50000AD8B48B
:1028F8003DD7010AD8B455D7030AD8B470D7010A0E
:10290800D8B498D7070AD8B4B2D7010AD8B4CFD761
:1029180000D01200F0926150D8B4AFD0CE50CFCFD3
:1029280001F0026A01C002F0016A01105A6E0250F9
:102938005B6E000ECF6E000ECE6E9FD0000ECF6E77
:10294800000ECE6E9E90900ECD6ECD80000E0001D2
:10295800CD6F000E0001B46F000EB56F000EB66F9C
:10296800000EB76F010E616EF18861C080FF96D0CE
:10297800350E5A5C210E5B58D8A009D01C0E5A5C43
:10298800250E5B58D8B003D0020E616E27D002EC3A
:1029980027F02AD029D082D0A10E5A5C0F0E5B589E
:1029A800D8A009D0880E5A5C130E5B58D8B003D053
:1029B800030E616E5AD002EC27F05DD05CD06ED069
:1029C800910E5A5C010E5B58D8A00BD0BC0E5A5C15
:1029D800020E5B58D8B005D0040ED7D761C080FF6F
:1029E80003D002EC27F000D0F19858D0910E5A5C31
:1029F800010E5B58D8A03CD0080E5A5C070E5B58F5
:102A0800D8B036D0D8900001B4350001B46F0001B9
:102A1800B5350001B56F0001B6350001B66F00018C
:102A2800B7350001B76FE90E5A5C030E5B58D8A0A2
:102A380008D0010E0001B427000EB523B623B72332
:102A480000D00001CD2B1F0E0001CD65B1D7B5C058
:102A5800C9F0000E616E61C080FF000E0001BC6FFE
:102A6800010EBB6FF09807D0A3D761C080FF03D0D9
:102A780002EC27F000D0F18811D06150000AD8B4D8
:102A88005DD7010AD8B474D7030AD8B485D7010A28
:102A9800D8B496D7070AD8B4A9D700D01200D5C0A1
:102AA80017F0186A000E1A6E0A0E196E31EC1EF035
:102AB8001750300F0101656FD5C03DF03E6A000E1A
:102AC800406E0A0E3F6E62EC20F03D50300F01015F
:102AD800666FD6C017F0186A000E1A6E0A0E196EC5
:102AE80031EC1EF01750300F0101686FD6C03DF071
:102AF8003E6A000E406E0A0E3F6E62EC20F03D50BA
:102B0800300F0101696FD8C017F0186A000E1A6EED
:102B18000A0E196E31EC1EF01750300F01016B6F61
:102B2800D8C03DF03E6A000E406E0A0E3F6E62EC61
:102B380020F03D50300F01016C6FD7C017F0186AB4
:102B4800000E1A6E0A0E196E31EC1EF01750300F77
:102B580001015C6FD7C03DF03E6A000E406E0A0E60
:102B68003F6E62EC20F03D50300F01015D6FD3C025
:102B780017F0186A000E1A6E0A0E196E31EC1EF064
:102B88001750300F01015F6FD3C03DF03E6A000E51
:102B9800406E0A0E3F6E62EC20F03D50300F01018E
:102BA800606FD9C017F0186A000E1A6E0A0E196EF7
:102BB80031EC1EF01750300F0101626FD9C03DF0A3
:102BC8003E6A000E406E0A0E3F6E62EC20F03D50E9
:102BD800300F0101636F340E396E650E3A6E010EC7
:102BE8003B6E070E3D6E3C68000E3F6E000E3E6E5B
:102BF800020E406E0F0ED1EC1AF0520E396E5C0EBA
:102C08003A6E010E3B6E070E3D6EE00E3C6E000EF6
:102C18003F6E000E3E6E020E406E0F0ED1EC1AF0A3
:102C28001200366E800E3660A6D09F0E2E6401D03C
:102C3800A2D03450D8A403D0010E346E00D01F0E99
:102C48002F6404D07E0E2F6403D000D03F0E2F6E69
:102C5800000E386E040E386401D08DD0530E2F60EC
:102C680015D0E00E2F24116E126AFF0E1222000EEC
:102C7800146E050E136ED5EC24F038501126000E94
:102C88001222C10E1124F66EFB0E14D0AD0E2F24A5
:102C9800116E126AFF0E1222000E146E050E136ECC
:102CA800D5EC24F038501126000E1222C00E112443
:102CB800F66EFC0E1220F76E0800F5CF35F000D046
:102CC800000E376E060E376401D053D035A023D0DE
:102CD8003404D8A40CD02E503724186E30C019F004
:102CE80031C01AF03650382450EC24F03ED037501A
:102CF8003402F3502E24236E34C024F034C025F05F
:102D080030C026F031C027F038503402F350362452
:102D1800FFEC22F02AD03050321804E13150331839
:102D2800D8B423D03404D8A40CD02E503724186E2D
:102D380032C019F033C01AF03650382450EC24F061
:102D480014D037503402F3502E24236E34C024F0AC
:102D580034C025F032C026F033C027F03850340292
:102D6800F3503624FFEC22F000D0372AD8903532C1
:102D7800A9D7382A6FD7120071EC26F068EC24F036
:102D8800000E256E000E246EB8EC25F005D0530E0B
:102D98000101486F500E04D0460E0101486F410EE4
:102DA8000101496F320E01014A6F340E01014B6F68
:102DB800330E01014D6F310E01014F6F330E0101CA
:102DC800506F6204D8A476D0010E396E3C0E3A6E6C
:102DD800010E3B6EFF0E3D6E3C68000E3F6E000E0E
:102DE8003E6E010E406E010ED1EC1AF05EC011F07D
:102DF8005FC012F0880E136EFF0E146E1FEC24F0E5
:102E0800100E396E5EC03AF05FC03BF0F80E3D6EB2
:102E18001F0E3C6E000E3F6E000E3E6E020E406EA0
:102E2800040ED1EC1AF05EC011F05FC012F0C80EAB
:102E3800136EFF0E146E1FEC24F0280E396E5EC060
:102E48003AF05FC03BF0000E3D6E1F0E3C6E000E68
:102E58003F6E000E3E6E010E406E320ED1EC1AF03F
:102E6800440E236E190E246E020E256E070E276E71
:102E780026680E0EFFEC22F05EC011F05FC012F063
:102E8800D70E136EFF0E146E1FEC24F0470E396E2A
:102E98005EC03AF05FC03BF0F80E3D6E000E3C6E2F
:102EA800000E3F6E000E3E6E010E406E320ED1ECEB
:102EB8001AF000D01200010EC0EC26F0000E186EB9
:102EC800960E176E86EC23F0110EC0EC26F0010E5C
:102ED800186EF40E176E86EC23F0B10EC0EC26F0D7
:102EE800010EB8EC26F02C0EB8EC26F02D0EB8EC3E
:102EF80026F0B20EC0EC26F0010EB8EC26F02C0E2F
:102F0800B8EC26F02D0EB8EC26F0B30EC0EC26F087
:102F1800010EB8EC26F02C0EB8EC26F02D0EB8EC0D
:102F280026F0010EB8EC26F02C0EB8EC26F02D0E8B
:102F3800B8EC26F0B40EC0EC26F0070EB8EC26F07C
:102F4800C00EC0EC26F0A20EB8EC26F0020EB8ECCB
:102F580026F0840EB8EC26F0C10EC0EC26F0C50EA3
:102F6800B8EC26F0C20EC0EC26F00A0EB8EC26F03B
:102F7800000EB8EC26F0C30EC0EC26F08A0EB8ECB2
:102F880026F02A0EB8EC26F0C40EC0EC26F08A0E05
:102F9800B8EC26F0EE0EB8EC26F0C50EC0EC26F024
:102FA8000E0EB8EC26F0200EC0EC26F0360EC0EC63
:102FB80026F0C80EB8EC26F03A0EC0EC26F0050E46
:102FC800B8EC26F0120013C017F0186A196A123408
:102FD800173601E3188017501F6E1F50D8A402D06F
:102FE8005DD078D016C017F0186A196A15341736EC
:102FF80001E3188017501E6E1E50D8A402D04ED080
:1030080069D0128EFF0E1116FF0E1216000E13163F
:10301800158EFF0E1416FF0E1516000E1616000E4E
:103028001A6E000E1B6E000E1C6E000E1D6E7F0EBB
:103038001F5E1E50980F1F5E180E1E6ED8901A360F
:103048001B361C361D361450115C1550125816507C
:103058001358D8A007D01450115E1550125A1650A4
:10306800135A1A80D8901136123613361E2EE6D708
:1030780000D01FAE10D01F50800A970FD8B003D0D1
:103088000DD028D000D0D8901D321C321B321A32F5
:103098001F3EF9D717D0170E1F6411D0000E116EFE
:1030A800000E126E000E136E000E146E13D007D0B1
:1030B800D8901A361B361C361D361F0600D01F50F6
:1030C800D8A4F6D71AC011F01BC012F01CC013F018
:1030D8001DC014F01200133414341C6E1C50D8A4F4
:1030E80002D061D07CD0163417341B6E1B50D8A484
:1030F80002D059D074D0138EFF0E1116FF0E12167F
:10310800FF0E1316000E1416168EFF0E1416FF0E61
:103118001516FF0E1616000E1716000E176E000E67
:10312800186E000E196E000E1A6E7F0E1C5E1B5074
:10313800A00F1C5E200E1B6E00D0D89017361836D4
:1031480019361A361450115C155012581650135867
:1031580017501458D8A00AD01450115E1550125A9E
:103168001650135A1750145A178000D0D890113699
:103178001236133614361B2EE0D700D01CAE10D0F2
:103188001C50800A9F0FD8B003D00DD028D000D093
:10319800D8901A321932183217321C3EF9D717D084
:1031A8001F0E1C6411D0000E116E000E126E000E60
:1031B800136E000E146E13D007D0D8901736183639
:1031C80019361A361C0600D01C50D8A4F6D717C0DA
:1031D80011F018C012F019C013F01AC014F0120040
:1031E80021C025F0266A276A2034253601E3268087
:1031F8002550286E2850D8A402D00ED06CD024C0F8
:1032080025F0266A276A2334253601E326802550CF
:103218002D6E2D50D8A407D0000E1F6E000E206E04
:10322800000E216E58D02D507B0F282621C02DF07E
:1032380024502D1A800E2D16208E238EFF0E221656
:10324800FF0E2316000E2416000E296E000E2A6E9D
:10325800000E2B6E070E2C6E00D01FA007D0225038
:10326800292623502A2224502B2200D0D8902132FC
:1032780020321F32D8902236233624362C2EEDD712
:1032880000D0090E2C6E00D01FA007D0225029268E
:1032980023502A2224502B2200D0D89021322032C9
:1032A8001F32D8902B322A3229322C2EEDD700D05B
:1032B80029C011F02AC012F02BC013F028C014F056
:1032C8002DC015F021EC1CF011C01FF012C020F029
:1032D80013C021F000D01200E00EC0EC26F0020E60
:1032E800B8EC26F01C0EB8EC26F0070EB8EC26F069
:1032F800120EB8EC26F0370EB8EC26F0320EB8EC09
:1033080026F0290EB8EC26F02D0EB8EC26F0290E82
:10331800B8EC26F0250EB8EC26F02B0EB8EC26F00B
:10332800390EB8EC26F0000EB8EC26F0010EB8EC19
:1033380026F0030EB8EC26F0100EB8EC26F0E10EDD
:10334800C0EC26F0030EB8EC26F01D0EB8EC26F003
:10335800070EB8EC26F0060EB8EC26F02E0EB8ECE8
:1033680026F02C0EB8EC26F0290EB8EC26F02D0E1F
:10337800B8EC26F02E0EB8EC26F02E0EB8EC26F09F
:10338800370EB8EC26F03F0EB8EC26F0000EB8EC7D
:1033980026F0000EB8EC26F0020EB8EC26F0100E5F
:1033A800B8EC26F0130EC0EC26F0000E186E0A0ECC
:1033B800176E86EC23F0290EC0EC26F0000E186E6E
:1033C800640E176E86EC23F0120071EC26F068ECA0
:1033D80024F0000E256E000E246EB8EC25F005D002
:1033E800530E0101486F500E04D0460E0101486F7C
:1033F800410E0101496F320E01014A6F340E01017D
:103408004B6F330E01014D6F310E01014F6F330EBB
:103418000101506F6204D8A44CD0010E396E3C0EE5
:103428003A6E010E3B6EFF0E3D6E3C68000E3F6E1D
:10343800000E3E6E010E406E010ED1EC1AF05EC019
:1034480011F05FC012F0940E136EFF0E146E1FEC95
:1034580024F01A0E396E5EC03AF05FC03BF0FF0EE2
:103468003D6EE00E3C6E000E3F6E000E3E6E020E8C
:10347800406E010ED1EC1AF05EC011F05FC012F080
:103488006C0E136EFF0E146E1FEC24F03C0E396E9A
:103498005EC03AF05FC03BF0070E3D6E3C68000E20
:1034A8003F6E000E3E6E010E406E0F0ED1EC1AF00C
:1034B80000D0120030C032F0336A346A2F3432360A
:1034C80001E3338032503C6E3C50D8A402D039D04E
:1034D80063D0170E326E2EC033F02FC034F030C0D8
:1034E80035F03228366E04D0D89035323432333243
:1034F800362EFAD73350376E2F8EFF0E2E16FF0E4C
:103508002F16000E30162E50386E2F50396E305050
:103518003A6E3B6A8E0E3C5E3CAE10D03C50800A40
:103528008F0FD8B003D00DD037D000D0D8903B3211
:103538003A32393238323C3EF9D719D0170E3C644A
:1035480011D0000E2E6E000E2F6E000E306E000E83
:10355800316E22D007D0D890383639363A363B36D5
:103568003C0600D03C50D8B402D0F5D700D0375034
:10357800D8B409D03B1E3A1E391E386C000E3922C9
:103588003A223B2200D038C02EF039C02FF03AC082
:1035980030F03BC031F000D01200436E43C049F018
:1035A80039C048F03AC011F03BC012F0A5EC23F046
:1035B80011C044F012C045F0000E476E000E466E72
:1035C80056D00001DE510001D8B42CD04050050D72
:1035D8004950416E426AF3504126F450422242BE9D
:1035E80021D0425004E1810E415CD8A01BD0000ECE
:1035F800496E4050070DF3504824030F486EA00E43
:10360800486403D0A00E486E00D046503A24D96EC4
:1036180047503B20DA6E200EDE18D8B425D002D0F1
:1036280023D000D048C02EF046503A24D96E4750D7
:103638003B20DA6EDF502F6E3CC030F03DC031F0D9
:103648003EC032F03FC033F040C034F0495015EC72
:1036580016F04050060DF3504924496E800E496417
:1036680003D0800E496E00D0464A472A00D0445005
:10367800465C45504758D8A0A4D7120030C034F053
:10368800356A366A2F34343601E3358034503B6E60
:103698003B50D8A402D00ED061D033C034F0356A84
:1036A800366A3234343601E3358034503C6E3C504F
:1036B800D8A407D0000E2E6E000E2F6E000E306EAE
:1036C8004DD0000E386E000E396E000E3A6E3C502A
:1036D800890F3B5E30C03CF033503C1A800E3C16DC
:1036E8002F8EFF0E2E16FF0E2F16000E3016328E5E
:1036F800FF0E3116FF0E3216000E3316180E376EF7
:1037080000D0D890383639363A3631502E5C32509F
:103718002F5833503058D8A007D031502E5E325031
:103728002F5A3350305A3880D8902E362F363036AC
:10373800372EE7D700D038C011F039C012F03AC0A0
:1037480013F03BC014F03CC015F021EC1CF011C084
:103758002EF012C02FF013C030F000D01200236EEC
:10376800800E236069D09F0E186401D065D0FF0ECB
:103778001D6EFF0E1E6E195023C01FF0206A1F26F3
:10378800000E20221D501F261E50202220BE0AD0C7
:10379800205004E1800E1F5CD8A004D023500008FC
:1037A800800F196EFF0E1D6EFF0E1E6E1A5018C088
:1037B8001FF0206A1F26000E20221D501F261E50B3
:1037C800202220BE0BD0205004E1A00E1F5CD8A000
:1037D80005D018500008A00F1A6E00D018C014F0B9
:1037E800235019241D6E1D04156E18501A241E6EC0
:1037F8001E04166E235038EC22F01C50216E1BC09C
:1038080022F0838E82981AC018F01850D8B413D0BA
:1038180001D011D019C023F02350D8B40AD001D058
:1038280008D021505DEC26F022505DEC26F02306EE
:10383800F3D71806EAD7828812001450D8B405D0F6
:10384800115012101310D8A40ED0000E116E000ED5
:10385800126E000E136E53D006D0142AD89013326D
:103868001232113200D0000E1114166E000E12140E
:10387800176EFE0E1314186E165017101810D8B4C1
:103888000ED0EBD70CD0142A010E1126000E1222EE
:10389800000E1322D89013321232113200D0000ECB
:1038A8001114166E000E1214176EFF0E1314186EF4
:1038B800165017101810D8B408D0E5D706D014063B
:1038C800D89011361236133600D012BE04D0020E2C
:1038D8001460F5D700D014B002D0129E00D0D89052
:1038E8001432145013121550D8B402D0138E00D0CD
:1038F80011C011F012C012F013C013F000D0120062
:1039080042D00001D551D8A404D0170E0001D56FBC
:103918004FD00001D5074CD00001D651D8A404D00F
:103928003B0E0001D66F44D00001D60741D00001FC
:10393800D851D8A404D03B0E0001D86F39D000016B
:10394800D80736D00001D705D8A404D00C0E000142
:10395800D76F2ED00001D7072BD00001D305D8A4EC
:1039680004D0010E0001D36F23D00001D30720D06B
:103978000001D951D8A404D0630E0001D96F18D022
:103988000001D90715D00001CB51000AD8B4B9D726
:10399800010AD8B4C1D7030AD8B4C9D7010AD8B420
:1039A800D1D7070AD8B4D9D7010AD8B4E1D700D0FB
:1039B80053EC15F01200436E040ECB6E070ECA6E60
:1039C800000E226E800E236E400E246E43500FECC4
:1039D80025F019C01FF01AC020F01BC021F0F4EC2C
:1039E80018F01FC02EF020C02FF021C030F0000EBC
:1039F800316EA00E326E410E336E42EC1BF02EC0BB
:103A080040F02FC041F030C042F040C02EF041C01D
:103A18002FF042C030F05EEC1AF02EC044F02FC0F8
:103A280045F043503D6E3E6A44503D5C3E50800A2E
:103A38003F6E4550800A3F58D8B003D0444A452AC3
:103A480000D044C03DF0030E3D163D38F00B0C0984
:103A5800BD6E44C03DF045C03EF03E343E323D327E
:103A68003E343E323D323D50BE6E120021EE23F010
:103A780011EE8CF0140EDBCFE3FFE806FCE2000148
:103A8800BB050001BC11D8A445D0000E0001BC6FD5
:103A9800000EBB6FF088F1980001D069000E01019B
:103AA800A26F000EA16F0101A2BF0AD00101A251AD
:103AB80021E1150E0101A15DD8B01CD001D01AD0AA
:103AC8008C0E0101A125D96E010E0101A221DA6E29
:103AD8000001C951DE18D8A408D0A1C1D0F0000E49
:103AE8000101A26F150EA16F00D00101A14BA22BFD
:103AF800DAD700D00001D029D8A40AD0E10E0001FD
:103B0800866FFE0E0001876F0EEC00F003D004D024
:103B1800010E02D0000E00D012003AD00001D52BC1
:103B2800180E0001D519D8A448D0000E0001D56F91
:103B380044D00001D62B3C0E0001D619F4D73DD055
:103B48000001D82B3C0E0001D819D8A436D0000E9D
:103B58000001D86F32D00001D72B0D0E0001D71904
:103B6800D8A42BD0010E0001D76F27D00001D32B8A
:103B7800200E0001D319D8A420D0010E0001D36F64
:103B88001CD00001D92B640E0001D919CCD715D04F
:103B98000001CB51000AD8B4C1D7010AD8B4C9D79B
:103BA800030AD8B4CDD7010AD8B4D5D7070AD8B4F0
:103BB800DDD7010AD8B4E5D700D053EC15F01200D0
:103BC800680E4A6E000E4B6E0001D8510CEC22F0C4
:103BD8004350686E0001D6510CEC22F04350666EDB
:103BE8000001D5510CEC22F04350656E010E000126
:103BF800CF6F0001D3510CEC22F04350636E0001EB
:103C0800D7510CEC22F04350676E0001D9510CECEF
:103C180022F043506B6E8CEC26F04A504A24C4ECD8
:103C280023F04B50C4EC23F06850C4EC23F06650EA
:103C3800C4EC23F06550C4EC23F00001CF51C4EC70
:103C480023F06350C4EC23F06750C4EC23F06B50AE
:103C5800C4EC23F083EC26F01200000E1C6E1AAEA2
:103C680007D0196C1A1ED8B01A2A010E1C6E00D083
:103C780018AE07D0176C181ED8B0182A010E1C1AD7
:103C880000D0000E1E6E000E1D6E19501A10D8B40A
:103C980021D0010E1B6E05D0D89019361A361B2A72
:103CA80000D01ABE02D0F8D700D0D8901D361E36E4
:103CB8001950175C1A501858D8A006D01950175E1A
:103CC8001A50185A1D8000D0D8901A3219321B2E5B
:103CD800ECD700D01C50D8B405D01D6C1E1ED8B02F
:103CE8001E2A00D01DC017F01EC018F000D0120008
:103CF80013AE17D011C017F012C018F013C019F086
:103D0800171E181E191E172A000E18221922000E37
:103D18001724116E000E1820126E800E1920136ED3
:103D280000D016AE17D014C017F015C018F016C082
:103D380019F0171E181E191E172A000E182219220C
:103D4800000E1724146E000E1820156E800E192010
:103D5800166E00D0000E111A000E121A800E131AD9
:103D6800000E141A000E151A800E161A1450115C43
:103D78001550125816501358D8B002D0D89002D007
:103D8800D88000D012000600EACF06F0E1CF07F095
:103D9800E2CF08F0D9CF09F0DACF0AF0F3CF0BF071
:103DA800F4CF0CF0F6CF0DF0F7CF0EF0F8CF0FF000
:103DB800F5CF10F09EA003D0DCEC26F000D0F2A2E4
:103DC80003D0AAEC24F000D0F0A003D0F1EC26F048
:103DD80000D0F0A203D08EEC14F000D010C0F5FF94
:103DE8000FC0F8FF0EC0F7FF0DC0F6FF0CC0F4FFC0
:103DF8000BC0F3FF0AC0DAFF09C0D9FF08C0E2FF11
:103E080007C0E1FF06C0EAFF05C0E9FF04C0FBFFE9
:103E180003C0FAFF1100202020202020202020208D
:103E2800202020202020202020202000000000002A
:103E3800000000000000000000A262E22202C2E0CE
:103E4800A8906898B030187A10385A424A5200053B
:103E58000A14454345333330314C2046696E466178
:103E680032342F312F3031000030302F30302F30A6
:103E7800300030312F30312F30300030303A303090
:103E88003A30300030303A30303A303000302E306E
:103E98003056004D414E5500303030300030373705
:103EA8004600000E196E000E1A6E000E1B6E000EF4
:103EB8001C6E1550161017101810D8B42FD0010EFC
:103EC8001D6E07D0D89015361636173618361D2AA7
:103ED80000D018BE02D0F6D700D0D89019361A36BE
:103EE8001B361C361550115C1650125817501358B3
:103EF80018501458D8A00AD01550115E1650125AEE
:103F08001750135A1850145A198000D0D8901832E4
:103F18001732163215321D2EE0D700D019C011F015
:103F28001AC012F01BC013F01CC014F01200226E4D
:103F3800800E22603FD09F0E186401D03BD0FF0E48
:103F48001C6EFF0E1D6E195018C01EF01F6A1E262B
:103F5800000E1F221C501E261D501F221FBE0BD0F4
:103F68001F5004E1A00E1E5CD8A005D01850000810
:103F7800A00F196E00D01B50206E1AC021F018C077
:103F880014F022C015F0185019241C6E1C04166E6B
:103F9800225038EC22F0838E829807D020505DECB6
:103FA80026F021505DEC26F000D019061928D8A477
:103FB800F5D7828812001350115C1250800A156ED2
:103FC8001450800A1558D8B01DD013C015F014C06D
:103FD80016F0151E161E154A162A11501524176EAE
:103FE80012501620186E17C015F018C016F0D89089
:103FF80015361636D8901536163615C019F016C06F
:104008001AF000D01ABE0BD01A5004E1650E195CE4
:10401800D8A005D0000E1A6E640E196E00D012BE1C
:104028000BD0125004E1650E115CD8A005D0000E2B
:104038001A6E000E196E00D01200D4C017F0186A5C
:10404800000E1A6E640E196E31EC1EF017504A6E8F
:10405800D4C017F0186A000E1A6E0A0E196E31ECE9
:104068001EF017504B6ED4C03DF03E6A000E406EF5
:104078000A0E3F6E62EC20F03D504C6E4A50300FF5
:104088000101876F4B50300F0101886F4C50300F82
:104098000101896F4A0E396E870E3A6E010E3B6E2A
:1040A800F80E3D6E000E3C6E000E3F6E000E3E6E2A
:1040B800020E406E280ED1EC1AF01200000E426E6D
:1040C8003EAE07D03D6C3E1ED8B03E2A010E426E71
:1040D80000D040AE05D03F6C401ED8B0402A00D07A
:1040E8003F504010D8B41DD0010E416E05D0D89075
:1040F8003F364036412A00D040BE02D0F8D700D023
:104108003F503D5C40503E58D8A005D03F503D5EE2
:1041180040503E5A00D0D89040323F32412EF0D71E
:1041280000D04250D8B405D03D6C3E1ED8B03E2ACF
:1041380000D03DC03DF03EC03EF000D012002250FD
:10414800231024102510D8B429D0010E266E07D0CC
:10415800D8902236233624362536262A00D025BE86
:1041680002D0F6D700D022501E5C23501F5824508E
:10417800205825502158D8A009D022501E5E23501F
:104188001F5A2450205A2550215A00D0D890253241
:10419800243223322232262EE6D700D01EC01EF04B
:1041A8001FC01FF020C020F021C021F01200136EA4
:1041B800000EAC6E000EAB6E13A002D0AC8800D01F
:1041C80013A203D0AC8CAB8C00D013A402D0AC8E5D
:1041D80000D013A602D0AB8802D0AB8A00D013B8A7
:1041E800AC849E9813AA02D0AB8600D013AC02D040
:1041F8009D8A01D09D9A9E9A13AE02D09D8801D0C7
:104208009D9811C0AFFF1250B06EAC8AAB8E949CD3
:10421800948EACB8ACBE02D0948C00D01200436E21
:104228004350040DF328C26EE9EC24F011C044F0A9
:1042380012C045F044C011F045C012F0000E146ED3
:10424800050E136ED5EC24F011C019F012C01AF047
:10425800E3EC23F019C02EF01AC02FF01BC030F089
:10426800000E316E800E326E440E336E42EC1BF03F
:104278002EC040F02FC041F030C042F040C03DF0A9
:1042880041C03EF042C03FF000D01200680E156EEB
:10429800000E146E8CEC26F015501524C4EC23F097
:1042A8001450C4EC23F03EEC26F0D8801534C4EC4E
:1042B80023F0010E24EC23F0686E010E24EC23F0A9
:1042C800666E010E24EC23F0656E010E24EC23F0DB
:1042D8000001CF6F010E24EC23F0636E010E24EC75
:1042E80023F0676E000E24EC23F06B6E83EC26F04F
:1042F800120000EEB4F0260EEE6AE806FDE100EECC
:104308005AF0120EEE6AE806FDE11E0EF66E3E0E3B
:10431800F76E000EF86E01EE00F010EE8CF009005A
:10432800F5CFEEFFE550E150FAE18C0EF66E4A0E3D
:10433800F76E000EF86E00EEDAF010EE22F00900CB
:10434800F5CFEEFFE550E150FAE1000EF86E0001FE
:1043580065EF0DF08E0E216E07D0D8901C321B32FF
:104368001A321932212A00D0000E19141D6E000EBF
:104378001A141E6E000E1B141F6EFF0E1C14206EE6
:104388001D501E101F102010D8A4E7D719C011F017
:104398001AC012F01BC013F021C014F0000E156EE5
:1043A80021EC1CF011C019F012C01AF013C01BF058
:1043B80000D0120067EC26F0CFEC26F0700ED36E1A
:1043C8000F0EC16E030E926E070E936E010E946E61
:1043D800000E956E000E966E000E846E000E0001A3
:1043E800C16FF19EA00E116E860E126E010E136E35
:1043F800000E146EE7EC26F0A9EC25F034EC25F05D
:10440800320E646EC6EC25F04D0E0001DC6F120012
:10441800496E49C017F0186A000E1A6E0A0E196E16
:1044280031EC1EF017C045F018C046F0453A463A40
:10443800F00E461645500F0B4612F00E451649C0B1
:104448003DF03E6A000E406E0A0E3F6E62EC20F0B0
:104458003D504524476E3E504620486E47C043F0C5
:1044680048C044F000D01200176E2A0EC0EC26F0A7
:10447800000EB8EC26F017500001CE25B8EC26F057
:10448800000EB8EC26F015500001CE25B8EC26F049
:104498002B0EC0EC26F0000EB8EC26F014500001EC
:1044A800D225B8EC26F0000EB8EC26F01650000124
:1044B800D225B8EC26F02C0EC0EC26F012001FC056
:1044C80017F020C018F0010E1A6EF40E196E31ECB8
:1044D8001EF0010E1724216E000E1820226E22BE37
:1044E8000BD0225004E1080E215CD8A005D0000EA4
:1044F800226E070E216E00D01F502010D8A405D0C0
:10450800000E226E000E216E00D021C084FF120022
:10451800000183510001841100018511D8B40AD02B
:10452800000E0001831B000E0001841B800E000199
:10453800851B00D080C04DF081C04EF082C04FF086
:1045480083C050F084C051F085C052F0F5EC11F0F2
:104558004DC080F04EC081F04FC082F000D01200F4
:104568000001C205D8A40ED06A50116E126A11BE9D
:104578001206DCC013F0146ADFEC1FF06450DFECA5
:104588001CF000D06050D8B410D00001C351D8B48A
:1045980003D00001C30700D00001C351D8A405D03F
:1045A800000E606EC6EC25F000D01200206E20C010
:1045B80017F0186A000E1A6E0A0E196E31EC1EF00A
:1045C80017C021F018C022F022BE0BD0225004E1FF
:1045D800080E215CD8A005D0000E226E070E216EB1
:1045E80000D021C01FF01F3AF00E1F1683508F0B0A
:1045F8001F10836E12002B6E2BC02CF02D6A0ED06C
:1046080023C018F025C019F026C01AF027C01BF0E7
:104618002C509BEC1FF02C4A2D2A00D024502BC084
:1046280028F0296A2826000E292228502C5C2D50B3
:10463800800A2A6E2950800A2A58D8A0E1D7120089
:10464800116EFAEC26F0000E126E070E126401D0FD
:104658000FD0D6EC26F081AA03D0D880133604D028
:1046680013501324136E00D0F6EC26F0122AEDD75F
:104678001150D8B403D07AEC26F003D0E2EC26F03F
:1046880000D0135000D01200B2CF17F0186A000EF5
:104698001A6E020E196E31EC1EF017C021F018C008
:1046A80022F0000EB26E21C011F022C012F0000EEE
:1046B800146E3C0E136ED5EC24F011C01FF012C01E
:1046C80020F000D012002A0EC0EC26F0000EB8EC44
:1046D80026F0000EB8EC26F0000EB8EC26F07F0E9F
:1046E800B8EC26F02B0EC0EC26F0000EB8EC26F045
:1046F800000EB8EC26F0000EB8EC26F09F0EB8ECD1
:1047080026F0120017C011F018C012F0000E146E37
:10471800FA0E136ED5EC24F011C019F012C01AF07D
:10472800196C1A1ED8B01A2A020ED56E1A50D76EF6
:1047380019C0D6FFF294D58E00D0F2A4FED7D59E2C
:10474800120011C015F012C016F003D0154A162A2F
:1047580000D015C0D9FF16C0DAFFDF50D8A4F6D7AD
:1047680011C013F012C014F0131E141E134A142A99
:1047780015501324116E16501420126E00D012001A
:10478800116E000E126E070E126401D011D011AE18
:1047980003D0FAEC26F003D0ECEC26F000D0D6ECEF
:1047A80026F0F6EC26F011501124116E122AEBD7E0
:1047B800FAEC26F0D6EC26F0F6EC26F01200000E05
:1047C8001C6E1AAE07D0196C1A1ED8B01A2A010E20
:1047D8001C6E00D019C011F01AC012F0136A8E0EA8
:1047E800146E1CC015F021EC1CF011C019F012C099
:1047F8001AF013C01BF000D01200480E186EAA0E53
:10480800166E8CEC26F018501824C4EC23F01650C1
:10481800C4EC23F03EEC26F0D8801834C4EC23F026
:10482800000E24EC23F0176E83EC26F017C014F06A
:10483800156A00D0120011C015F012C016F005D08C
:10484800154A162A134A142A00D013C0F6FF14C0BA
:10485800F7FF15C0D9FF16C0DAFF0800F5CFDFFF54
:10486800DF50D8A4EDD712000001C251D8A413D04C
:10487800640E6418D8A408D0F0EC25F0F0EC25F00C
:104888006450DFEC1CF007D06450050F646E645070
:10489800DFEC1CF000D012001B6E800E1B6013D0E2
:1048A8009F0E186401D00FD018C014F01B28156E85
:1048B8001828166E1B5038EC22F01A50B8EC26F067
:1048C8001950B8EC26F012008288839E800EC76EBD
:1048D800300EC66E5FEC17F067EC23F070EC19F041
:1048E800360EC0EC26F0C00EB8EC26F0010E000122
:1048F800CC6F1200030E60600FD0602A6050010D6B
:10490800380EF324D96E010EF420DA6EDF50000160
:10491800C36FD4EC25F003D0E2EC25F000D01200F0
:104928006050D8A403D0E2EC25F00FD060066050A8
:10493800010D380EF324D96E010EF420DA6EDF5023
:104948000001C36FD4EC25F000D01200000E026EF7
:10495800000E016E02BE08D0200E015C4E0E0258F9
:10496800D8B005D001D003D0014A022AF3D7F29279
:10497800010E0001C46F1200156E15C011F00F0E64
:10498800111615C012F0123A0F0E121612500A0D17
:104998001150F324136E000EF420146E135000D03F
:1049A800120011501302F3CF15F0F4CF16F0115086
:1049B8001402F350162612501302F350162615C08F
:1049C80011F016C012F000D01200C28200D0C2B29C
:1049D800FED7C450146E136AC3501324156E000E0C
:1049E8001420166E15C011F016C012F000D0120077
:1049F8006450D8A408D0F0EC25F0F0EC25F0645011
:104A0800DFEC1CF007D06450FB0F646E6450DFECE1
:104A18001CF000D012001C6E1C50116E126A136A32
:104A28008E0E146E000E156E21EC1CF011C019F0DC
:104A380012C01AF013C01BF000D01200115012104F
:104A48001310D8B406D0000E111A000E121A800ED8
:104A5800131A11C011F012C012F013C013F0120093
:104A6800F292F090F092F288F086F088F19CF19A38
:104A7800F198000ECF6E000ECE6E9E909D80F28C47
:104A8800F28E1200300010FF012B30373700303023
:104A980030004F464600373746004F464600303014
:104AA80030002B323500480E0001866FFF0E0001E2
:104AB800876F0EEC00F0010E0001C16F83828384C2
:104AC8006450DFEC1CF01200136E000E126E3A0EEA
:104AD800136006D02F0E136403D0010E126E00D09F
:104AE80012C011F0113000D012000001CB51D8A42F
:104AF80004D0050E0001CB6F03D00001CB0700D016
:104B08000001CB51B4EC13F012000001CB2B060EC0
:104B18000001CB19D8A404D0000E0001CB6F00D03F
:104B28000001CB51D7EC12F01200156E8CEC26F078
:104B380015501524C4EC23F01350C4EC23F0145082
:104B4800C4EC23F083EC26F01200480E166EAC0E6F
:104B5800136E020E146E165099EC25F0EE0E136EBD
:104B6800165026EC26F01200000E186E800E196EF4
:104B7800A00E1A6E24C01BF025C01CF0000EB3EC6A
:104B88001BF01200340E0001866FFF0E0001876FC4
:104B98000EEC00F0000E0001C16F839283941200A6
:104BA800838695EC26F0FEEC25F08396FEEC26F045
:104BB800FEEC25F06450DFEC1CF0120083869EECBE
:104BC80026F0FEEC25F08396FEEC26F0FEEC25F0B0
:104BD8006450DFEC1CF012008386A7EC26F0FEEC94
:104BE80025F08396FEEC26F0FEEC25F06450DFEC11
:104BF8001CF01200000E126E000E116E800E125C78
:104C0800D8B005D001D003D0114A122AF7D7120024
:104C18000001D42B6E0E0001D46504D06E0E000185
:104C2800D46F00D021EC20F012000001D407320E1E
:104C38000001D46104D0320E0001D46F00D021EC01
:104C480020F01200146E8CEC26F014501424C4ECDE
:104C580023F01350C4EC23F083EC26F0120000017B
:104C6800C105D8A403D0C6EC25F003D057EC25F035
:104C780000D01200F6EC26F0FAEC26F0D6EC26F07E
:104C8800ECEC26F0F6EC26F01200D4C0DCF04AEC8E
:104C980021F095EC0BF0000E0001C76F1200E4EC58
:104CA8001DF04AEC21F095EC0BF0000E0001C86FE6
:104CB8001200126E9E96C9CF11F012C0C9FF00D023
:104CC800C7A0FED71200000E126E190E116E3C0E10
:104CD800DBEC20F0700ED36E12008390000E186E7D
:104CE800640E176E86EC23F083801200ECEC26F03D
:104CF800D6EC26F0F6EC26F0FAEC26F01200F6ECEC
:104D080026F0ECEC26F0D6EC26F0FAEC26F01200B1
:104D1800FAEC26F0D6EC26F0ECEC26F0F6EC26F0D1
:104D28001200F90ECB6E050ECA6E7C0EBB6E3C0EE1
:104D3800BA6E1200F90ECB6E070ECA6E7C0EBB6EF1
:104D48003C0EBA6E1200F90ECB6E050ECA6E4A0EF4
:104D5800BB6E3C0EBA6E12004AEC21F095EC0BF0DB
:104D6800000E0001C86F1200136E8298838E1350D4
:104D78005DEC26F082881200136E8298839E135091
:104D88005DEC26F082881200116E00D0ACA2FED72E
:104D980011C0ADFF1200010EC26E0E0EC16EA90E3B
:104DA800C06E12009388060EE82EFED700D01200BF
:104DB800000E616EF198CD909E901200D6EC26F010
:104DC800F6EC26F01200D6EC26F0FAEC26F01200EB
:104DD800819A939A00D000D01200F050010E000181
:104DE800C56F12008198939800D01200938A00D062
:104DF80000D01200000EBA6E82921200000E616E90
:044E0800CD90120037
:10FBC00000000000000000005F00000007000700C8
:10FBD000147F147F14242A7F2A12231308646236A8
:10FBE000495620500008070300001C224100004134
:10FBF000221C002A1C7F1C2A08083E08080080706E
:10FC000030000808080808000060600020100804A0
:10FC1000023E5149453E00427F40007249494946F3
:10FC20002141494D331814127F1027454545393C71
:10FC30004A4949314121110907364949493646495E
:10FC400049291E0000140000004034000000081480
:10FC500022411414141414004122140802015909F9
:10FC6000063E415D594E7C1211127C7F494949364E
:10FC70003E414141227F4141413E7F494949417FC7
:10FC8000090909013E414151737F0808087F00417D
:10FC90007F41002040413F017F081422417F4040C6
:10FCA00040407F021C027F7F0408107F3E4141419B
:10FCB0003E7F090909063E4151215E7F0919294607
:10FCC000264949493203017F01033F4040403F1F1D
:10FCD0002040201F3F4038403F6314081463030452
:10FCE0007804036159494D43007F414141020408B2
:10FCF0001020004141417F04020102044040404085
:10FD000040000307080020545478407F28444438BA
:10FD10003844444428384444287F38545454180004
:10FD2000087E090218A4A49C787F08040478004483
:10FD30007D40002040403D007F1028440000417F6E
:10FD400040007C047804787C0804047838444444F7
:10FD500038FC1824241818242418FC7C08040408EF
:10FD6000485454542404043F44243C4040207C1C08
:10FD70002040201C3C4030403C44281028444C90FB
:10FD800090907C4464544C44000836410000007755
:10FD900000000041360800020102040201000000D8
:10FDA0000A00000064000000E803000010270000C3
:10FDB000A086010040420F008096980000E1F50502
:10FDC00000CA9A3B00803FCDCC3DD7233C12833AFA
:10FDD000B7D138C62737388635C0D633CC2B3270EA
:10FDE0008930E7DB2EE53C1E42A20D00803F00205B
:10FDF0004100C842007A44401C4650C3472474491D
:10FE000097184BBCBE4C6B6E4E03155079AD60F32A
:10FE10004971010000001000000000010000001006
:10FE200000000000010000001000000000010000C0
:10FE300000105468652073797374656D2077696C60
:10FE40006C206E6F77207475726E206F66662E2040
:10FE50000D0A0A005468652073797374656D207704
:10FE6000696C6C206E6F77207475726E206F6E2EC9
:10FE7000200D0A0A00253032783A253032783A25AA
:10FE800030327820253032782F253032782F2530C7
:10FE90003278002052504D203D202564202064639C
:10FEA000203D202564206C73203D2025640D0A0030
:10FEB0005468652073797374656D206973206E6F63
:10FEC00077204F46462E200D0A0A004B6579204CBC
:10FED0006F636174696F6E203D202564200D0A0AEE
:10FEE0000043616E6E6F742066696E642062757483
:10FEF000746F6E200D0A002054656D70203D202522
:10FF0000642043203D202564204620002054656D58
:10FF100070203D2025642043203D2025642046009C
:10FF20004C696768742053656E736F72203D20259D
:10FF30006620560046616E206973207475726E6586
:10FF400064206F66660D0A0046616E206973207436
:10FF500075726E6564206F6E0D0A00303132333475
:10FF60003536373839616263646566002020536531
:10FF7000742046616E2054656D700054656D706527
:10FF80007261747572653A0054696D6520536574C9
:10FF9000757000002046616E205365747570000016
:10FFA00046414E2053657454656D70005359535447
:10FFB000454D204F46460054696D6572204D6F6473
:10FFC000650054696D65722054696D650041555432
:10FFD0004F004D414E55004461746500566F6C747E
:10FFE000004F4E2000544D3100544D3200544D33DB
:10FFF0000052504D00432F0044430053570000006F
:020000040020DA
:08000000FFFFFFFFFFFFFFFF00
:020000040030CA
:0E000000FF08191EFF8381FF0FC00FE00F40A5
:00000001FF
