:04000000A4EF0EF06B
:101000000001000A006400E803102754686520749A
:10101000656D706572617475726520696E20462019
:1010200069733A202564460D0A0050686F746F207A
:101030005265736973746F7220566F6C7461676563
:101040003A0D0A00566F6C74616765203D20256477
:10105000206D56200D0056203D202564206D562021
:101060000D0A0A000000FBEC0EF00CEC0FF0F0ECA7
:101070000EF000D0000E13EC0FF0B9EC0EF001C032
:1010800048F002C049F048C009F049C00AF086ECB7
:101090000EF009C00DF00AC00EF00BC00FF0000EEC
:1010A000106E800E116E400E126E43EC0BF00DC0F0
:1010B00040F00EC041F00FC042F0600E1F6E810E76
:1010C000206E440E216E40C001F041C002F042C0CB
:1010D00003F0CCEC0EF001C01CF002C01DF003C008
:1010E0001EF041EC09F01CC028F01DC029F01EC004
:1010F0002AF0000E2B6EB00E2C6E400E2D6E32ECD0
:101100000CF028C043F029C044F02AC045F0660E18
:10111000106EE60E116E3F0E126E43C00DF044C00D
:101120000EF045C00FF043EC0BF00DC01CF00EC0EC
:101130001DF00FC01EF0000E1F6E000E206E420E3E
:10114000216E41EC09F01CC03BF01DC03CF01EC0FC
:101150003DF03BC001F03CC002F03DC003F0BFECED
:101160000BF001C04AF002C04BF043C001F044C094
:1011700002F045C003F0BFEC0BF001C039F002C033
:101180003AF04AC001F04BC002F0000E046E0A0EA5
:10119000036E06EC0DF001503E6E4AC001F04BC0EC
:1011A00002F0000E046E0A0E036E99EC0DF0015071
:1011B0003F6E0B0E0D6E100E0E6E4AC00FF04BC040
:1011C00010F023EC0AF0440E0D6E100E0E6E40C0AF
:1011D0000FF041C010F042C011F023EC0AF03F5074
:1011E000010D4C0EF324D96E000EF420DA6EDF50A0
:1011F000836E3E50010D4C0EF324D96E000EF42088
:10120000DA6EDF50816E4AC009F04BC00AF066EC1E
:101210000EF04AC001F04BC002F0C2EC0AF0020E20
:1012200013EC0FF0B9EC0EF001C048F002C049F029
:1012300048C037F049C038F0D89037363836D890A3
:101240003736383637C046F038C047F046C001F070
:1012500047C002F051EC0DF02A0E0D6E100E0E6E0E
:1012600023EC0AF0560E0D6E100E0E6E46C00FF0F7
:1012700047C010F023EC0AF0DEEC0EF0FBD600EFD6
:1012800000F01EC022F0236A246A1D34223601E3D6
:1012900023802250276E21C022F0236A246A203442
:1012A000223601E323802250266E2750D8B40BD07B
:1012B0002650275CD8B00ED0275000082624226E76
:1012C000180E226407D01FC01CF020C01DF021C0E2
:1012D0001EF0B8D02650D8B40BD02750265CD8B01A
:1012E0000ED0265000082724226E180E226407D044
:1012F0001CC01CF01DC01DF01EC01EF0A3D0060EA9
:10130000256E1EAE02D0258E00D021BE258C1D8EEE
:10131000FF0E1C16FF0E1D16000E1E16208EFF0E51
:101320001F16FF0E2016000E21162650275CD8B07F
:101330001ED0D8901F362036213626062750261874
:10134000D8B40FD0250625C022F0070E2216D8B437
:1013500008D0EFD706D0D8901E321D321C32272A73
:1013600000D026502718D8B424D0F5D722D0275043
:10137000265CD8B01ED0D8901C361D361E362706E7
:1013800027502618D8B40FD0250625C022F0070E06
:101390002216D8B408D0EFD706D0D8902132203208
:1013A0001F32262A00D026502718D8B402D0F5D7ED
:1013B00000D025AE0CD0FF0E1C1AFF0E1D1AFF0E1A
:1013C0001E1A010E1C26000E1D22000E1E2225AC28
:1013D0000DD0FF0E1F1AFF0E201AFF0E211A010E4C
:1013E0001F26000E2022000E212200D0000E256EA6
:1013F0001C501F261D5020221E50212221AE0FD02E
:10140000FF0E1F1AFF0E201AFF0E211A010E1F26B3
:10141000000E2022000E2122010E256E00D01FC0DA
:1014200001F020C002F021C003F027C004F025C065
:1014300005F0A3EC0CF001C01CF002C01DF003C0CD
:101440001EF000D012000F0E136E000E146E8BD023
:10145000250E1918D8B404D0195005EC0FF083D01C
:10146000000E156E04D08DD015D07DD013D00DC0D8
:10147000F6FF0EC0F7FF0D4A0E2A0800F5CF19F04F
:101480001950000AD8B47DD0640AD8B403D00D0A2C
:10149000D8A469D013C0D9FF14C0DAFFDECF17F08B
:1014A000DDCF18F0020E1326000E142218AE07D05E
:1014B000030E1512176C181ED8B0182A00D0010E92
:1014C000196E050E1918D8B416D001D014D01950C1
:1014D000020D010EF324F66E100EF420F76E0900D3
:1014E000F550175C0900F5501858D8A004D001D069
:1014F00002D0192AE6D715C012F0030E1216D8B47E
:1015000004D02D0E05EC0FF000D019C016F025D038
:101510001650020D010EF324F66E100EF420F76E35
:101520000900F5CF03F00A00F5CF04F017C001F071
:1015300018C002F012EC0EF001C008F002C009F071
:10154000000E0B6E0A0E0A6E40EC0EF00850300FC3
:10155000196E195005EC0FF000D016061628D8B4F5
:1015600002D0D6D700D00DC0F6FF0EC0F7FF0D4A4F
:101570000E2A0800F5CF19F01950D8B402D068D758
:1015800000D0120002BE06D0025007E11E0E015C20
:10159000D8B003D042EC0FF075D002BE11D002508B
:1015A00004E11E0E015CD8A00BD002BE06D0025092
:1015B00007E1280E015CD8B003D03AEC0FF062D0FE
:1015C00002BE11D0025004E1280E015CD8A00BD05D
:1015D00002BE06D0025007E1320E015CD8B003D043
:1015E00046EC0FF04FD002BE11D0025004E1320E93
:1015F000015CD8A00BD002BE06D0025007E13C0E21
:10160000015CD8B003D032EC0FF03CD002BE11D058
:10161000025004E13C0E015CD8A00BD002BE06D003
:10162000025007E1460E015CD8B003D04EEC0FF03B
:1016300029D002BE11D0025004E1460E015CD8A0B0
:101640000BD002BE06D0025007E14B0E015CD8B0B1
:1016500003D03EEC0FF016D002BE11D0025004E1D0
:101660004B0E015CD8A00BD002BE06D0025007E1A1
:10167000500E015CD8B003D04AEC0FF003D036EC2A
:101680000FF000D012000FC013F0146A156A0E3468
:10169000133601E314801350166E1650D8A402D0EE
:1016A0000ED06CD012C013F0146A156A11341336C0
:1016B00001E3148013501B6E1B50D8A407D0000EFA
:1016C0000D6E000E0E6E000E0F6E58D01B507B0F6D
:1016D00016260FC01BF012501B1A800E1B160E8E02
:1016E000118EFF0E1016FF0E1116000E1216000EB0
:1016F000176E000E186E000E196E070E1A6E00D0CF
:101700000DA007D010501726115018221250192280
:1017100000D0D8900F320E320D32D89010361136DC
:1017200012361A2EEDD700D0090E1A6E00D00DA079
:1017300007D010501726115018221250192200D02D
:10174000D8900F320E320D32D8901932183217322B
:101750001A2EEDD700D017C001F018C002F019C042
:1017600003F016C004F01BC005F0A3EC0CF001C0A0
:101770000DF002C00EF003C00FF000D0120003C045
:1017800005F0066A076A0234053601E30680055053
:101790000F6E0F50D8A402D039D063D0170E056E4B
:1017A00001C006F002C007F003C008F00528096E6A
:1017B00004D0D890083207320632092EFAD70650E4
:1017C0000A6E028EFF0E0116FF0E0216000E0316A1
:1017D00001500B6E02500C6E03500D6E0E6A8E0E91
:1017E0000F5E0FAE10D00F50800A8F0FD8B003D00D
:1017F0000DD037D000D0D8900E320D320C320B32D3
:101800000F3EF9D719D0170E0F6411D0000E016EDC
:10181000000E026E000E036E000E046E22D007D082
:10182000D8900B360C360D360E360F0600D00F5002
:10183000D8B402D0F5D700D00A50D8B409D00E1EC3
:101840000D1E0C1E0B6C000E0C220D220E2200D061
:101850000BC001F00CC002F00DC003F00EC004F08C
:1018600000D012002AC02EF02F6A306A29342E369A
:1018700001E32F802E50356E3550D8A402D00ED003
:1018800061D02DC02EF02F6A306A2C342E3601E341
:101890002F802E50366E3650D8A407D0000E286EFA
:1018A000000E296E000E2A6E4DD0000E326E000E14
:1018B000336E000E346E3650890F355E2AC036F016
:1018C0002D50361A800E3616298EFF0E2816FF0E62
:1018D0002916000E2A162C8EFF0E2B16FF0E2C1624
:1018E000000E2D16180E316E00D0D89032363336D9
:1018F00034362B50285C2C5029582D502A58D8A00B
:1019000007D02B50285E2C50295A2D502A5A32804D
:10191000D890283629362A36312EE7D700D032C063
:1019200001F033C002F034C003F035C004F036C01B
:1019300005F0A3EC0CF001C028F002C029F003C0B0
:101940002AF000D012000450D8B405D00150021083
:101950000310D8A40ED0000E016E000E026E000E11
:10196000036E53D006D0042AD890033202320132DB
:1019700000D0000E0114066E000E0214076EFE0E5B
:101980000314086E065007100810D8B40ED0EBD719
:101990000CD0042A010E0126000E0222000E0322A2
:1019A000D89003320232013200D0000E0114066ECC
:1019B000000E0214076EFF0E0314086E0650071087
:1019C0000810D8B408D0E5D706D00406D890013660
:1019D0000236033600D002BE04D0020E0460F5D7F2
:1019E00000D004B002D0029E00D0D890043204503F
:1019F00003120550D8B402D0038E00D001C001F00C
:101A000002C002F003C003F000D01200000E066E08
:101A100004AE07D0036C041ED8B0042A010E066E73
:101A200000D002AE07D0016C021ED8B0022A010E0F
:101A3000061A00D0000E086E000E076E0350041048
:101A4000D8B421D0010E056E05D0D89003360436E7
:101A5000052A00D004BE02D0F8D700D0D8900736AF
:101A600008360350015C04500258D8A006D0035039
:101A7000015E0450025A078000D0D890043203322D
:101A8000052EECD700D00650D8B405D0076C081E40
:101A9000D8B0082A00D007C001F008C002F000D07A
:101AA000120002BE06D0280E015C0A0E0258D8B001
:101AB00003D01EEC0FF03CD002BE11D0280E015C0A
:101AC0000A0E0258D8A00BD002BE06D0540E015CFC
:101AD0000B0E0258D8B003D022EC0FF029D002BE72
:101AE00011D0540E015C0B0E0258D8A00BD002BED0
:101AF00006D0800E015C0C0E0258D8B003D02EEC3C
:101B00000FF016D002BE11D0800E015C0C0E0258F0
:101B1000D8A00BD002BE06D0100E015C0E0E0258EB
:101B2000D8B003D02AEC0FF003D026EC0FF000D091
:101B30001200000E066E02AE07D0016C021ED8B075
:101B4000022A010E066E00D004AE05D0036C041EFE
:101B5000D8B0042A00D003500410D8B41DD0010E10
:101B6000056E05D0D89003360436052A00D004BE91
:101B700002D0F8D700D00350015C04500258D8A01E
:101B800005D00350015E0450025A00D0D8900432B0
:101B90000332052EF0D700D00650D8B405D0016C22
:101BA000021ED8B0022A00D001C001F002C002F02B
:101BB00000D01200036E000EAC6E000EAB6E03A0E0
:101BC00002D0AC8800D003A203D0AC8CAB8C00D088
:101BD00003A402D0AC8E00D003A602D0AB8802D002
:101BE000AB8A00D003B8AC849E9803AA02D0AB861F
:101BF00000D003AC02D09D8A01D09D9A9E9A03AE7C
:101C000002D09D8801D09D9801C0AFFF0250B06EF8
:101C1000AC8AAB8E949C948EACB8ACBE02D0948C43
:101C200000D01200000E066E000E056E0350041068
:101C3000D8B421D0010E076E05D0D89003360436F3
:101C4000072A00D004BE02D0F8D700D0D8900536BD
:101C500006360350015C04500258D8A006D0035049
:101C6000015E0450025A058000D0D890043203323D
:101C7000072EECD700D005C001F006C002F012001C
:101C80000A500B10D8B41DD0010E0C6E05D0D890A0
:101C90000A360B360C2A00D00BBE02D0F8D700D083
:101CA0000A50085C0B500958D8A005D00A50085EAD
:101CB0000B50095A00D0D8900B320A320C2EF0D7B4
:101CC00000D008C008F009C009F0120009C001F0F6
:101CD0000AC002F0000E046E0A0E036E06EC0DF050
:101CE00001C00BF002C00CF00CBE0BD00C5004E194
:101CF000070E0B5CD8A005D0000E0C6E070E0B6E05
:101D000000D00B38E842F80B826E1200000E0C6E09
:101D10000AAE07D0096C0A1ED8B00A2A010E0C6E52
:101D200000D009C001F00AC002F0036A8E0E046EF2
:101D30000CC005F0A3EC0CF001C009F002C00AF0E1
:101D400003C00BF000D01200320EF66E1E0EF76EBE
:101D5000000EF86E00EE4CF010EE0AF00900F5CF20
:101D6000EEFFE550E150FAE1000EF86E000133EFAE
:101D700008F0C28200D0C2B2FED7C450046E036A1B
:101D8000C3500324056E000E0420066E05C001F04A
:101D900006C002F000D01200015002100310D8B4A7
:101DA00006D0000E011A000E021A800E031A01C09E
:101DB00001F002C002F003C003F01200000E026E38
:101DC000000E016E02BE08D0680E015C420E025881
:101DD000D8B005D001D003D0014A022AF3D71200AF
:101DE0000F0E926E000E936E000E946E000E956EA6
:101DF000000E966E1200000E026E190E016E3C0E61
:101E0000DAEC0DF0600ED36E1200016E00D0ACA2C1
:101E1000FED701C0ADFF1200050EC26E1B0EC16ED3
:101E2000A90EC06E1200016E0150040DF328C26E9F
:101E30001200014F12064C24200F000C8480848273
:101E4000848412008480849284941200849084920A
:101E500084941200849084828494120084908492EA
:101E60008484120082808282829412008280828224
:101E700082841200828082928294120082808292F6
:101E800082841200829082928294120082908282D6
:101E900082941200829082828284120082908292C6
:041EA0008284120026
:020000040030CA
:04000000FF08191EBE
:0200060081FF78
:00000001FF
