:0400000054EF6EF05B
:10D69E00000EBA6E82921200010EC26E0E0EC16E96
:10D6AE00A90EC06E1200036E8396839403507CEC19
:10D6BE006BF083861200036E8396838403507CEC9A
:10D6CE006BF083861200F90ECB6E050ECA6E4A0EF3
:10D6DE00BB6E3C0EBA6E12008398000E086E640E7E
:10D6EE00076E2BEC6EF083881200026E9E96C9CFE9
:10D6FE0001F002C0C9FF00D0C7A0FED71200000E75
:10D70E00026E190E016E3C0EEFEC6EF0700ED36EC3
:10D71E001200535032342F312F3031203030303010
:10D72E003030203030303000030ED56EDB0ED66E2A
:10D73E000B0ED76EF294D58E00D0F2A4FED7D59EE6
:10D74E001200838E6FEC6CF09BEC6BF0839E8CEC76
:10D75E006CF09BEC6BF048EC78F01200000E086E4B
:10D76E00800E096EA00E0A6E14C00BF015C00CF0E0
:10D77E00000E2DEC72F01200838E6FEC6CF06AECE2
:10D78E006BF09BEC6BF0839E8CEC6CF04FEC6BF0C3
:10D79E009BEC6BF048EC78F01200C28200D0C2B263
:10D7AE00FED7C450046E036AC3500324056E000EE8
:10D7BE000420066E05C001F006C002F000D0120073
:10D7CE0001500302F3CF05F0F4CF06F0015004022E
:10D7DE00F350062602500302F350062605C001F050
:08D7EE0006C002F000D0120099
:10D7F70001322E3556003030003030002D440030D5
:10D80700300030300030300030300044003000301D
:10D8170000300030003000300083868394800EC7CC
:10D827006E300EC66EE3EC74F0E6EC6CF0EEEC7363
:10D83700F0360E5AEC6BF0C00E62EC6BF0010E7B0B
:10D847006E12000B6E800E0B6013D09F0E086401E2
:10D85700D00FD008C004F00B28056E0828066E0B01
:10D8670050B2EC6DF00A5062EC6BF0095062EC6B51
:10D87700F0120001C005F002C006F005D0054A0607
:10D887002A034A042A00D003C0F6FF04C0F7FF05A5
:10D89700C0D9FF06C0DAFF0800F5CFDFFFDF50D899
:10D8A700A4EDD712003F6E3FC040F04050D8B40BF4
:10D8B700D001D009D0A8EC6BF040C03AF07E50B24E
:10D8C700EC76F04006F2D7A8EC6BF0000E3A6E7ECD
:10D8D70050B2EC76F0120071C001F072C002F0FC99
:10D8E7000E036EFF0E046E3DEC6CF0020E296E7196
:10D8F700C02AF072C02BF0FF0E2D6E2C68000E2F81
:10D907006E000E2E6E010E306E780E9BEC72F012CA
:10D917000071C001F072C002F0FA0E036EFF0E0430
:10D927006E3DEC6CF0020E296E71C02AF072C02BAE
:10D93700F0FF0E2D6E2C68000E2F6E000E2E6E015E
:10D947000E306E780E9BEC72F01200000E0C6E0A11
:10D95700AE07D0096C0A1ED8B00A2A010E0C6E0059
:10D96700D009C001F00AC002F0036A8E0E046E0CE3
:10D97700C005F0CAEC71F001C009F002C00AF0035B
:10D98700C00BF000D0120001C005F002C006F00382
:10D99700D0054A062A00D005C0D9FF06C0DAFFDF46
:10D9A70050D8A4F6D701C003F002C004F0031E0448
:10D9B7001E034A042A05500324016E065004200260
:10D9C7006E00D012002A0E5AEC6BF0000E62EC6B60
:10D9D700F0000E62EC6BF0000E62EC6BF07F0E62F3
:10D9E700EC6BF02B0E5AEC6BF0000E62EC6BF00058
:10D9F7000E62EC6BF0000E62EC6BF09F0E62EC6B4C
:10DA0700F01200366E020E7E6E36C033F07E50780E
:10DA1700EC79F00AD0829401D08284829813D08264
:10DA27009401D0828482880ED03650000AD8B4F28E
:10DA3700D7010AD8B4F1D7030AD8B4F1D7010AD865
:10DA4700B4F0D700D01200366E030E7E6E36C033A8
:10DA5700F07E5078EC79F00AD0849201D0848284E9
:10DA67009413D0849201D0848284840ED0365000DF
:10DA77000AD8B4F2D7010AD8B4F1D7030AD8B4F157
:10DA8700D7010AD8B4F0D700D01200366E000E7E48
:10DA97006E36C033F07E5078EC79F00AD0809A0168
:10DAA700D0808A829013D0809A01D0808A82800E9B
:10DAB700D03650000AD8B4F2D7010AD8B4F1D70348
:10DAC7000AD8B4F1D7010AD8B4F0D700D01200367B
:10DAD7006E010E7E6E36C033F07E5078EC79F00A18
:10DAE700D0839001D08380839213D0839001D08319
:10DAF7008083820ED03650000AD8B4F2D7010AD8F4
:10DB0700B4F1D7030AD8B4F1D7010AD8B4F0D700D3
:10DB1700D012001B6E1BC01CF01D6A0ED013C0086C
:10DB2700F015C009F016C00AF017C00BF01C50A37F
:10DB3700EC6FF01C4A1D2A00D014501BC018F019B6
:10DB47006A1826000E192218501C5C1D50800A1AEC
:10DB57006E1950800A1A58D8A0E1D71200076E2A0A
:10DB67000E5AEC6BF0000E62EC6BF007507C2462EF
:10DB7700EC6BF0000E62EC6BF005507C2462EC6BF2
:10DB8700F02B0E5AEC6BF0000E62EC6BF004507F3A
:10DB97002462EC6BF0000E62EC6BF006507F24629F
:10DBA700EC6BF02C0E5AEC6BF01200406E000E3A44
:10DBB7006E405068EC71F0FF0E3F24416E426AFFE1
:10DBC7000E422242BE13D0425005E14104D8A00EB6
:10DBD700D001D00CD041C03AF0405068EC71F0C38E
:10DBE700EC6BF04106D8A04206ECD7F4D7000E3A0A
:10DBF7006E405068EC71F0C3EC6BF012002F5000D0
:10DC0700082D24086ED8802F34096E31C00AF032EF
:10DC1700C00BF02B50A3EC6FF02BC013F02CC014EB
:10DC2700F02DC015F02EC016F02FC017F030C01819
:10DC3700F0000E1A6E030E196E000E1C6E000E1BFE
:10DC47006E31C01DF032C01EF06BEC75F01200078C
:10DC5700C001F008C002F0000E046EFA0E036EE772
:10DC6700EC6BF001C00BF002C00CF00BC009F00C1C
:10DC7700C00AF0091E0A1E094A0A2AFF0E09240BC8
:10DC87006EFF0E0A200C6EB80EB16E0BC0B2FF0C01
:10DC970050B36EA192B18000D0A1A2FED7B190126D
:10DCA7000000EE80F01F0EEE6AE806FDE100EE6C64
:10DCB700F0140EEE6AE806FDE1200EF66ED70EF7B9
:10DCC7006E000EF86E00EE9FF010EE16F00900F5EC
:10DCD700CFEEFFE550E150FAE1F70EF66ED70EF7FB
:10DCE7006E000EF86E00EE43F010EE29F00900F515
:10DCF700CFEEFFE550E150FAE1000EF86E00012784
:10DD0700EF6FF015C008F017C009F01BC00AF01C30
:10DD1700C00BF01350E7EC6FF0155019241D6E1D62
:10DD270004086E17C009F01BC00AF01CC00BF013E3
:10DD370050E7EC6FF015C008F019C009F01BC00AD6
:10DD4700F01CC00BF01350A3EC6FF015C008F019CE
:10DD5700C009F01BC00AF01CC00BF0135017241D9C
:10DD67006E1D04A3EC6FF01200246E2450040DF313
:10DD770028C26ED4EC6BF001C022F002C023F0225F
:10DD8700C001F023C002F0000E046E050E036EE71B
:10DD9700EC6BF001C009F002C00AF0A9EC6CF009C5
:10DDA700C00DF00AC00EF00BC00FF0000E106E8011
:10DDB7000E116E440E126E0AEC73F00DC01FF00EBA
:10DDC700C020F00FC021F01FC01CF020C01DF021A3
:10DDD700C01EF000D01200036E000EAC6E000EAB3A
:10DDE7006E03A002D0AC8800D003A203D0AC8CABEA
:10DDF7008C00D003A402D0AC8E00D003A602D0AB17
:10DE07008802D0AB8A00D003B8AC849E9803AA02DC
:10DE1700D0AB8600D003AC02D09D8A01D09D9A9EDC
:10DE27009A03AE02D09D8801D09D9801C0AFFF0232
:10DE370050B06EAC8AAB8E949C948EACB8ACBE02DC
:10DE4700D0948C00D01200700ED36E1F0E926E0706
:10DE57000E936E000E946E000E956E000E966E5326
:10DE6700EC6BF086EC6BF029EC7BF0000EB8EC6EF7
:10DE7700F01CC06CF01DC06DF01EC06EF06CC001D0
:10DE8700F06DC002F06EC003F0000E046E200E05A8
:10DE97006E400E066E2BEC70F0D8B002D0010E016A
:10DEA700D0000E746E00D07404D8A403D00EEC71A9
:10DEB700F0FAD7C1EC70F0F7D700EF00F0000E2CA6
:10DEC7006E28AE07D0276C281ED8B0282A010E2C42
:10DED7006E00D02AAE05D0296C2A1ED8B02A2A0097
:10DEE700D029502A10D8B41DD0010E2B6E05D0D8DA
:10DEF7009029362A362B2A00D02ABE02D0F8D7001E
:10DF0700D02950275C2A502858D8A005D029502757
:10DF17005E2A50285A00D0D8902A3229322B2EF068
:10DF2700D700D02C50D8B405D0276C281ED8B028DD
:10DF37002A00D027C027F028C028F000D0120012EE
:10DF47006E800E12603FD09F0E086401D03BD0FF59
:10DF57000E0C6EFF0E0D6E095008C00EF00F6A0E04
:10DF670026000E0F220C500E260D500F220FBE0B4F
:10DF7700D00F5004E1A00E0E5CD8A005D0085000C9
:10DF870008A00F096E00D00B50106E0AC011F008E0
:10DF9700C004F012C005F0085009240C6E0C0406EA
:10DFA7006E1250B2EC6DF08384839607D010507CCC
:10DFB700EC6BF011507CEC6BF000D009060928D807
:10DFC700A4F5D783861200126E800E12603FD09F91
:10DFD7000E086401D03BD0FF0E0C6EFF0E0D6E09CC
:10DFE7005012C00EF00F6A0E26000E0F220C500EB4
:10DFF700260D500F220FBE0BD00F5004E1800E0EDE
:10E007005CD8A005D012500008800F096E00D00B15
:10E0170050106E0AC011F008C004F0125009240C09
:10E027006E0C04056E08C006F01250B2EC6DF0835A
:10E0370084839607D010507CEC6BF011507CEC6B0E
:10E04700F000D009060928D8A4F5D7838612000363
:10E05700AE17D001C007F002C008F003C009F007EF
:10E067001E081E091E072A000E08220922000E0795
:10E0770024016E000E0820026E800E0920036E0038
:10E08700D006AE17D004C007F005C008F006C009D7
:10E09700F0071E081E091E072A000E082209220083
:10E0A7000E0724046E000E0820056E800E09200658
:10E0B7006E00D0000E011A000E021A800E031A001D
:10E0C7000E041A000E051A800E061A0450015C058C
:10E0D70050025806500358D8B002D0D89002D0D872
:10E0E7008000D01200000E066E04AE07D0036C0449
:10E0F7001ED8B0042A010E066E00D002AE07D0016A
:10E107006C021ED8B0022A010E061A00D0000E08B3
:10E117006E000E076E03500410D8B421D0010E050F
:10E127006E05D0D89003360436052A00D004BE0207
:10E13700D0F8D700D0D890073608360350015C04D2
:10E14700500258D8A006D00350015E0450025A0767
:10E157008000D0D89004320332052EECD700D006C9
:10E1670050D8B405D0076C081ED8B0082A00D007CD
:10E17700C001F008C002F000D012008490010E6BBD
:10E18700EC6DF0010E05EC6DF0010E27EC6DF00261
:10E197000E49EC6DF0070E56EC6CF0030E49EC6D72
:10E1A700F0030E56EC6CF0010E49EC6DF080A610F2
:10E1B700D0020E27EC6DF0050E56EC6CF0030E271F
:10E1C700EC6DF0030E56EC6CF0010E27EC6DF000D1
:10E1D700D0020E05EC6DF0070E56EC6CF0030E0541
:10E1E700EC6DF0030E56EC6CF0010E05EC6DF08053
:10E1F700A810D0020E6BEC6DF0050E56EC6CF00318
:10E207000E6BEC6DF0030E56EC6CF0010E6BEC6DC3
:10E21700F000D01200010E6BEC6DF0010E05EC6DF5
:10E22700F0010E27EC6DF0020E49EC6DF080A405AD
:10E23700D0070E3F6E000ED9EC6DF0050E56EC6C54
:10E24700F0030E49EC6DF0030E56EC6CF0010E492D
:10E25700EC6DF080A610D0020E27EC6DF0080E567C
:10E26700EC6CF0030E27EC6DF0030E56EC6CF0012E
:10E277000E27EC6DF000D0020E05EC6DF080A205C4
:10E28700D0050E3F6E020ED9EC6DF0060E56EC6C03
:10E29700F0030E05EC6DF0030E56EC6CF0010E0565
:10E2A700EC6DF080A810D0020E6BEC6DF0050E56E9
:10E2B700EC6CF0030E6BEC6DF0030E56EC6CF0019A
:10E2C7000E6BEC6DF000D012003B6E57D03AC001D8
:10E2D700F0026A000E046E0A0E036E76EC70F0010F
:10E2E70050300F5B6E3AC027F0286A000E2A6E0A7C
:10E2F7000E296E62EC6FF02750300F5C6E280E29E6
:10E307006E5B0E2A6E000E2B6EFF0E2D6EE00E2C2E
:10E317006E000E2F6E000E2E6E020E306E020E9BDA
:10E32700EC72F033D03AC001F0026A000E046E0AB4
:10E337000E036E76EC70F00150300F586E3AC0271E
:10E34700F0286A000E2A6E0A0E296E62EC6FF0271B
:10E3570050300F596E640E296E580E2A6E000E2B20
:10E367006E070E2D6E2C68000E2F6E000E2E6E029D
:10E377000E306E020E9BEC72F008D03B50000AD8AC
:10E38700B4A5D7020AD8B4CED700D012000450D80B
:10E39700B405D0015002100310D8A40ED0000E010E
:10E3A7006E000E026E000E036E53D006D0042AD8FC
:10E3B7009003320232013200D0000E0114066E00C3
:10E3C7000E0214076EFE0E0314086E06500710089F
:10E3D70010D8B40ED0EBD70CD0042A010E012600BA
:10E3E7000E0222000E0322D89003320232013200BD
:10E3F700D0000E0114066E000E0214076EFF0E0306
:10E4070014086E065007100810D8B408D0E5D706D0
:10E41700D00406D89001360236033600D002BE0477
:10E42700D0020E0460F5D700D004B002D0029E00DF
:10E43700D0D8900432045003120550D8B402D00348
:10E447008E00D001C001F002C002F003C003F0004B
:10E45700D01200136E800E136069D09F0E086401FE
:10E46700D065D0FF0E0D6EFF0E0E6E095013C00F54
:10E47700F0106A0F26000E10220D500F260E5010B6
:10E487002210BE0AD0105004E1800E0F5CD8A00401
:10E49700D013500008800F096EFF0E0D6EFF0E0E91
:10E4A7006E0A5008C00FF0106A0F26000E10220DDA
:10E4B700500F260E50102210BE0BD0105004E1A0B2
:10E4C7000E0F5CD8A005D008500008A00F0A6E00F8
:10E4D700D008C004F0135009240D6E0D04056E0812
:10E4E700500A240E6E0E04066E1350B2EC6DF00C3B
:10E4F70050116E0BC012F0838483960AC008F0088F
:10E5070050D8B413D001D011D009C013F01350D88C
:10E51700B40AD001D008D011507CEC6BF012507CBB
:10E52700EC6BF01306F3D70806EAD783861200359B
:10E537006E35C039F029C038F02AC001F02BC0026F
:10E54700F0C7EC6CF001C033F002C034F0000E37B6
:10E557006E000E366E54D04350D8B42CD0305005D0
:10E567000D3950316E326AF3503126F4503222326F
:10E57700BE21D0325004E1810E315CD8A01BD000FF
:10E587000E396E3050070DF3503824030F386EA044
:10E597000E386403D0A00E386E00D036502A24D926
:10E5A7006E37502B20DA6E200EDE18D8B425D00235
:10E5B700D023D000D038C01EF036502A24D96E3769
:10E5C700502B20DA6EDF501F6E2CC020F02DC0219B
:10E5D700F02EC022F02FC023F030C024F0395007AE
:10E5E700EC76F03050060DF3503924396E800E3931
:10E5F7006403D0800E396E00D0364A372A00D033F4
:10E6070050365C34503758D8A0A6D712000FC01325
:10E61700F0146A156A0E34133601E3148013501A86
:10E627006E1A50D8A402D00ED061D012C013F014C5
:10E637006A156A1134133601E3148013501B6E1BDD
:10E6470050D8A407D0000E0D6E000E0E6E000E0FF0
:10E657006E4DD0000E176E000E186E000E196E1B51
:10E6670050890F1A5E0FC01BF012501B1A800E1B29
:10E67700160E8EFF0E0D16FF0E0E16000E0F16113C
:10E687008EFF0E1016FF0E1116000E1216180E161C
:10E697006E00D0D89017361836193610500D5C1109
:10E6A700500E5812500F58D8A007D010500D5E11B9
:10E6B700500E5A12500F5A1780D8900D360E360F3B
:10E6C70036162EE7D700D017C001F018C002F01990
:10E6D700C003F01AC004F01BC005F0CAEC71F001CA
:10E6E700C00DF002C00EF003C00FF000D012001AE8
:10E6F700C01CF01D6A1E6A19341C3601E31D801CFC
:10E7070050266E2650D8A402D039D063D0170E1CDD
:10E717006E18C01DF019C01EF01AC01FF01C28206B
:10E727006E04D0D8901F321E321D32202EFAD71D0C
:10E7370050216E198EFF0E1816FF0E1916000E1AAD
:10E74700161850226E1950236E1A50246E256A8EA1
:10E757000E265E26AE10D02650800A8F0FD8B00343
:10E76700D00DD037D000D0D8902532243223322292
:10E7770032263EF9D719D0170E266411D0000E188D
:10E787006E000E196E000E1A6E000E1B6E22D00759
:10E79700D0D8902236233624362536260600D026B2
:10E7A70050D8B402D0F5D700D02150D8B409D0251D
:10E7B7001E241E231E226C000E2322242225220043
:10E7C700D022C018F023C019F024C01AF025C01BAE
:10E7D700F000D01200E00E5AEC6BF0020E62EC6B08
:10E7E700F01C0E62EC6BF0070E62EC6BF0120E621F
:10E7F700EC6BF0370E62EC6BF0320E62EC6BF029CB
:10E807000E62EC6BF02D0E62EC6BF0290E62EC6B76
:10E81700F0250E62EC6BF02B0E62EC6BF0390E629A
:10E82700EC6BF0000E62EC6BF0010E62EC6BF00328
:10E837000E62EC6BF0100E62EC6BF0E10E5AEC6BB3
:10E84700F0030E62EC6BF01D0E62EC6BF0070E62CC
:10E85700EC6BF0060E62EC6BF02E0E62EC6BF02C9C
:10E867000E62EC6BF0290E62EC6BF02D0E62EC6B16
:10E87700F02E0E62EC6BF02E0E62EC6BF0370E6230
:10E88700EC6BF03F0E62EC6BF0000E62EC6BF0008D
:10E897000E62EC6BF0020E62EC6BF0100E62EC6B2A
:10E8A700F0130E5AEC6BF0000E086E0A0E076E2B73
:10E8B700EC6EF0290E5AEC6BF0000E086E640E0732
:10E8C7006E2BEC6EF012000BC00FF0106A116A0A83
:10E8D700340F3601E310800F50126E1250D8A40285
:10E8E700D00ED06CD00EC00FF0106A116A0D340F25
:10E8F7003601E310800F50176E1750D8A407D000C9
:10E907000E096E000E0A6E000E0B6E58D017507B64
:10E917000F12260BC017F00E50171A800E17160A83
:10E927008E0D8EFF0E0C16FF0E0D16000E0E160026
:10E937000E136E000E146E000E156E070E166E0087
:10E94700D009A007D00C5013260D5014220E5015D5
:10E957002200D0D8900B320A320932D8900C360DEB
:10E96700360E36162EEDD700D0090E166E00D009DA
:10E97700A007D00C5013260D5014220E501522005C
:10E98700D0D8900B320A320932D89015321432138C
:10E9970032162EEDD700D013C001F014C002F015C7
:10E9A700C003F012C004F017C005F0CAEC71F00103
:10E9B700C009F002C00AF003C00BF000D01200013A
:10E9C7000E5AEC6BF0000E086E960E076E2BEC6E6F
:10E9D700F0110E5AEC6BF0010E086EF40E076E2B59
:10E9E700EC6EF0B10E5AEC6BF0010E62EC6BF02C92
:10E9F7000E62EC6BF02D0E62EC6BF0B20E5AEC6B04
:10EA0700F0010E62EC6BF02C0E62EC6BF02D0E62D7
:10EA1700EC6BF0B30E5AEC6BF0010E62EC6BF02C62
:10EA27000E62EC6BF02D0E62EC6BF0010E62EC6B7C
:10EA3700F02C0E62EC6BF02D0E62EC6BF0B40E5AFC
:10EA4700EC6BF0070E62EC6BF0C00E5AEC6BF0A2A9
:10EA57000E62EC6BF0020E62EC6BF0840E62EC6BF4
:10EA6700F0C10E5AEC6BF0C50E62EC6BF0C20E5A99
:10EA7700EC6BF00A0E62EC6BF0000E62EC6BF0C30D
:10EA87000E5AEC6BF08A0E62EC6BF02A0E62EC6B9E
:10EA9700F0C40E5AEC6BF08A0E62EC6BF0EE0E626D
:10EAA700EC6BF0C50E5AEC6BF00E0E62EC6BF020BF
:10EAB7000E5AEC6BF0360E5AEC6BF0C80E62EC6B2C
:10EAC700F03A0E5AEC6BF0050E62EC6BF012001781
:10EAD700C01FF018C020F01F1E201E1F4A202A0149
:10EAE7000E1F24256E000E2020266E000E226E01BA
:10EAF7000E216E17C01FF018C020F0D8901F3620C7
:10EB0700361F1E201E1F4A202A1FC023F020C024A4
:10EB1700F0000E286E000E276E17C029F018C02AC5
:10EB2700F067D026BE0BD02906D8A02A06020E23EE
:10EB370026000E24222350252624502622274A2841
:10EB47002A020E2126000E22222150252622502697
:10EB57002219A025D0295000081524086E2950290C
:10EB6700241B241F6E1F28096E1DC00AF01EC00B30
:10EB7700F013502724A3EC6FF02750000815240842
:10EB87006E275027241B241F6E1F28096E1DC00ADD
:10EB9700F01EC00BF013502924A3EC6FF000D0191E
:10EBA700A227D0295000081524086E295029241BB4
:10EBB700241F6E1F28096E1DC00AF01EC00BF02708
:10EBC7005000081324A3EC6FF02750000815240801
:10EBD7006E275027241B241F6E1F28096E1DC00A8D
:10EBE700F01EC00BF0295000081324A3EC6FF000AF
:10EBF700D02950275C2850800A1F6E2A50800A1F90
:10EC070058D8A08FD71200266E800E2660A6D09FF8
:10EC17000E1E6401D0A2D02450D8A403D0010E2424
:10EC27006E00D01F0E1F6404D07E0E1F6403D00039
:10EC3700D03F0E1F6E000E286E040E286401D08D83
:10EC4700D0530E1F6015D0E00E1F24016E026AFF1D
:10EC57000E0222000E046E050E036EE7EC6BF02821
:10EC6700500126000E0222CF0E0124F66EFD0E146F
:10EC7700D0AD0E1F24016E026AFF0E0222000E04A1
:10EC87006E050E036EE7EC6BF028500126000E02AE
:10EC970022CE0E0124F66EFE0E0220F76E0800F556
:10ECA700CF25F000D0000E276E060E276401D05343
:10ECB700D025A023D02404D8A40CD01E5027240884
:10ECC7006E20C009F021C00AF02650282425EC6CDC
:10ECD700F03ED027502402F3501E24136E24C01494
:10ECE700F024C015F020C016F021C017F0285024DA
:10ECF70002F35026248DEC6DF02AD0205022180400
:10ED0700E121502318D8B423D02404D8A40CD01E52
:10ED1700502724086E22C009F023C00AF026502885
:10ED27002425EC6CF014D027502402F3501E241332
:10ED37006E24C014F024C015F022C016F023C017AB
:10ED4700F028502402F35026248DEC6DF000D027D4
:10ED57002AD8902532A9D7282A6FD712003B6EAE42
:10ED6700D03AC001F0026A000E046E0A0E036E76F6
:10ED7700EC70F00150300F556E3AC027F0286A004A
:10ED87000E2A6E0A0E296E62EC6FF02750300F566E
:10ED97006E280E296E550E2A6E000E2B6EFF0E2D55
:10EDA7006EE00E2C6E000E2F6E000E2E6E020E30D1
:10EDB7006E640E9BEC72F090D03AC001F0026A00CC
:10EDC7000E046E0A0E036E76EC70F00150300F528F
:10EDD7006E3AC027F0286A000E2A6E0A0E296E6264
:10EDE700EC6FF02750300F536E460E296E520E2AE5
:10EDF7006E000E2B6EF80E2D6E1F0E2C6E000E2F52
:10EE07006E000E2E6E020E306E640E9BEC72F06476
:10EE1700D03AC001F0026A000E046E0A0E036E7645
:10EE2700EC70F00150300F4C6E3AC027F0286A00A2
:10EE37000E2A6E0A0E296E62EC6FF02750300F4DC6
:10EE47006E640E296E4C0E2A6E000E2B6E070E2D69
:10EE57006E2C68000E2F6E000E2E6E020E306E6442
:10EE67000E9BEC72F039D03AC001F0026A000E0432
:10EE77006E0A0E036E76EC70F00150300F496E3A51
:10EE8700C027F0286A000E2A6E0A0E296E62EC6F00
:10EE9700F02750300F4A6E820E296E490E2A6E00F7
:10EEA7000E2B6EFF0E2D6E2C68000E2F6E000E2E91
:10EEB7006E020E306E640E9BEC72F00ED03B50006B
:10EEC7000AD8B44ED7010AD8B477D7030AD8B4A062
:10EED700D7010AD8B4C8D700D0120010C014F01157
:10EEE700C015F0141E151E144A152A010E14241AF3
:10EEF7006E000E15201B6E000E176E010E166E109B
:10EF0700C014F011C015F0D89014361536141E151C
:10EF17001E144A152A14C018F015C019F0000E1D4A
:10EF27006E000E1C6E10C01EF011C01FF00E5010A8
:10EF370024086E12C009F013C00AF00C5025EC6CBF
:10EF4700F0105000080E24086E12C009F013C00A12
:10EF5700F00C5025EC6CF00EC008F012C009F0134D
:10EF6700C00AF00C50102425EC6CF00EC008F0120B
:10EF7700C009F013C00AF0105000080C2425EC6CEF
:10EF8700F078D01BBE0BD01E06D8A01F06020E18A5
:10EF970026000E192218501A2619501B221C4A1D2A
:10EFA7002A020E1626000E172216501A2617501B75
:10EFB700220E501E24086E12C009F013C00AF00C6E
:10EFC700501C2425EC6CF00E501E24086E12C0094C
:10EFD700F013C00AF01C5000080C2425EC6CF01E3E
:10EFE7005000080E24086E12C009F013C00AF00C76
:10EFF700501C2425EC6CF01E5000080E24086E12DD
:10F00700C009F013C00AF01C5000080C2425EC6C52
:10F01700F00E501C24086E12C009F013C00AF00C41
:10F02700501E2425EC6CF00E501C24086E12C009EB
:10F03700F013C00AF01E5000080C2425EC6CF01CDD
:10F047005000080E24086E12C009F013C00AF00C15
:10F05700501E2425EC6CF01C5000080E24086E127C
:10F06700C009F013C00AF01E5000080C2425EC6CF0
:10F07700F000D01E501C5C1D50800A146E1F50807B
:10F087000A1458D8A07ED71200D4EC6BF001C03A0E
:10F09700F002C03BF0000EB8EC6EF01CC03CF01D57
:10F0A700C03DF01EC03EF03CC001F03DC002F03E46
:10F0B700C003F0000E046E200E056E400E066E2B88
:10F0C700EC70F0D8B002D0010E01D0000E746E3C87
:10F0D700C018F03DC019F03EC01AF07BEC73F01871
:10F0E70050300F446E000E0C6E200E0D6E410E0E4A
:10F0F7006E3CC009F03DC00AF03EC00BF067EC74EF
:10F10700F009C018F00AC019F00BC01AF07BEC73B5
:10F11700F018C027F019C028F0000E2A6E0A0E2931
:10F127006E62EC6FF02750300F466E7450D8A40211
:10F13700D04E0E01D0440E506E7550D8A402D04E5A
:10F147000E01D0440E5E6E00D0000E80B2010E7824
:10F157006E000E80B6010E776E000E80B4010E7A37
:10F167006E000E80B8010E796E7A50D8A402D030A6
:10F177000E01D0310E6A6E7950D8A402D0300E013C
:10F18700D0310E686E7850D8A402D0300E01D0313D
:10F197000E666E7750D8A402D0300E01D0310E64BF
:10F1A7006E00D0020E296E5E0E2A6E000E2B6EFFC9
:10F1B7000E2D6E2C68000E2F6E000E2E6E010E3077
:10F1C7006E230E9BEC72F0020E296E440E2A6E001F
:10F1D7000E2B6EFF0E2D6E2C68000E2F6E000E2E5E
:10F1E7006E010E306E4B0E9BEC72F0020E296E4FC5
:10F1F7000E2A6E000E2B6EFF0E2D6E2C68000E2F42
:10F207006E000E2E6E010E306E640E9BEC72F014C3
:10F217000E296E6A0E2A6E000E2B6EFF0E2D6E2CB7
:10F2270068000E2F6E000E2E6E010E306E080E9BBC
:10F23700EC72F0140E296E680E2A6E000E2B6EFF0C
:10F247000E2D6E2C68000E2F6E000E2E6E010E30E6
:10F257006E230E9BEC72F0140E296E660E2A6E005A
:10F267000E2B6EFF0E2D6E2C68000E2F6E000E2ECD
:10F277006E010E306E3C0E9BEC72F0140E296E641C
:10F287000E2A6E000E2B6EFF0E2D6E2C68000E2FB1
:10F297006E000E2E6E010E306E550E9BEC72F01442
:10F2A7000E296E600E2A6E000E2B6EFF0E2D6E2C31
:10F2B70068000E2F6E000E2E6E010E306E6C0E9BC8
:10F2C700EC72F0140E296E620E2A6E000E2B6EFF82
:10F2D7000E2D6E2C68000E2F6E000E2E6E010E3056
:10F2E7006E770E9BEC72F01200346E34501E0DF3E5
:10F2F700502E0F356E3350D8A467D0000E2C6E28D1
:10F307000E2B6E35C02DF02E6A000E306E070E2FB5
:10F317006E000E326E000E316E02EC6EF0000E2C97
:10F327006E3C0E2B6E35C02DF02E6A000E306E0728
:10F337000E2F6E000E326E000E316E02EC6EF00074
:10F347000E2C6E500E2B6E35C02DF02E6A000E302F
:10F357006E070E2F6E000E326E000E316E02EC6ECF
:10F36700F0000E0D6E280E0C6E35C00EF00F6A0001
:10F377000E116E070E106EF80E136E000E126E71E0
:10F38700EC77F0000E0D6E3C0E0C6E35C00EF00FD4
:10F397006A000E116E070E106EFF0E136EE00E124E
:10F3A7006E71EC77F0000E0D6E500E0C6E35C00EC0
:10F3B700F00F6A000E116E070E106E070E136EE047
:10F3C7000E126E71EC77F000D03304D8A467D0002A
:10F3D7000E2C6E280E2B6E35C02DF02E6A000E30C7
:10F3E7006E070E2F6EF80E326E000E316E02EC6E47
:10F3F700F0000E2C6E3C0E2B6E35C02DF02E6A00E1
:10F407000E306E070E2F6E000E326E000E316E023A
:10F41700EC6EF0000E2C6E500E2B6E35C02DF02EBC
:10F427006A000E306E070E2F6E000E326E000E3120
:10F437006E02EC6EF0000E0D6E280E0C6E35C00ECF
:10F44700F00F6A000E116E070E106EF80E136E00A5
:10F457000E126E71EC77F0000E0D6E3C0E0C6E35D1
:10F46700C00EF00F6A000E116E070E106EFF0E131E
:10F477006EE00E126E71EC77F0000E0D6E500E0CF2
:10F487006E35C00EF00F6A000E116E070E106E0774
:10F497000E136EE00E126E71EC77F000D0030E3390
:10F4A70018D8A467D0000E2C6E280E2B6E35C02DF1
:10F4B700F02E6A000E306E070E2F6E000E326E00B1
:10F4C7000E316E02EC6EF0000E2C6E3C0E2B6E357C
:10F4D700C02DF02E6A000E306E070E2F6EFF0E3213
:10F4E7006EE00E316E02EC6EF0000E2C6E500E2B9D
:10F4F7006E35C02DF02E6A000E306E070E2F6E008F
:10F507000E326E000E316E02EC6EF0000E0D6E289C
:10F517000E0C6E35C00EF00F6A000E116E070E103E
:10F527006EF80E136E000E126E71EC77F0000E0D72
:10F537006E3C0E0C6E35C00EF00F6A000E116E0792
:10F547000E106EFF0E136EE00E126E71EC77F00068
:10F557000E0D6E500E0C6E35C00EF00F6A000E11B8
:10F567006E070E106E070E136EE00E126E71EC77BB
:10F57700F000D0020E3318D8A467D0000E2C6E28E6
:10F587000E2B6E35C02DF02E6A000E306E070E2F33
:10F597006E000E326E000E316E02EC6EF0000E2C15
:10F5A7006E3C0E2B6E35C02DF02E6A000E306E07A6
:10F5B7000E2F6E000E326E000E316E02EC6EF000F2
:10F5C7000E2C6E500E2B6E35C02DF02E6A000E30AD
:10F5D7006E070E2F6E070E326EE00E316E02EC6E66
:10F5E700F0000E0D6E280E0C6E35C00EF00F6A007F
:10F5F7000E116E070E106EF80E136E000E126E715E
:10F60700EC77F0000E0D6E3C0E0C6E35C00EF00F51
:10F617006A000E116E070E106EFF0E136EE00E12CB
:10F627006E71EC77F0000E0D6E500E0C6E35C00E3D
:10F63700F00F6A000E116E070E106E070E136EE0C4
:10F647000E126E71EC77F000D0120073EC6BF010B5
:10F65700EC6CF0000E156E000E146EB5EC6BF080BE
:10F667000E716E000E726E71C001F072C002F0E48E
:10F677000E036EFF0E046E3DEC6CF0020E296E71E8
:10F68700C02AF072C02BF0FF0E2D6E2C68000E2FD3
:10F697006E000E2E6E010E306E020E9BEC72F002A3
:10F6A7000E296E5E0E2A6E000E2B6EFF0E2D6E2C2F
:10F6B70068000E2F6E000E2E6E010E306E230E9B0D
:10F6C700EC72F071C001F072C002F0EA0E036EFF37
:10F6D7000E046E3DEC6CF0020E296E71C02AF072BA
:10F6E700C02BF0FF0E2D6E2C68000E2F6E000E2E15
:10F6F7006E010E306E320E9BEC72F0020E296E44D4
:10F707000E2A6E000E2B6EFF0E2D6E2C68000E2F2C
:10F717006E000E2E6E010E306E4B0E9BEC72F0716A
:10F72700C001F072C002F0F70E036EFF0E046E3DCB
:10F73700EC6CF0020E296E4F0E2A6E000E2B6EFF38
:10F747000E2D6E2C68000E2F6E000E2E6E010E30E1
:10F757006E640E9BEC72F071C001F072C002F0FC97
:10F767000E036EFF0E046E3DEC6CF0020E296E71F7
:10F77700C02AF072C02BF0FF0E2D6E2C68000E2FE2
:10F787006E000E2E6E010E306E780E9BEC72F071CD
:10F79700C001F072C002F0AA0E036EFF0E046E3DA8
:10F7A700EC6CF00B0E296E71C02AF072C02BF0FFC3
:10F7B7000E2D6E2C68000E2F6E000E2E6E010E3071
:10F7C7006E010E9BEC72F0140E296E6A0E2A6E0003
:10F7D7000E2B6EFF0E2D6E2C68000E2F6E000E2E58
:10F7E7006E010E306E080E9BEC72F0140E296E68D7
:10F7F7000E2A6E000E2B6EFF0E2D6E2C68000E2F3C
:10F807006E000E2E6E010E306E230E9BEC72F014FE
:10F817000E296E660E2A6E000E2B6EFF0E2D6E2CB5
:10F8270068000E2F6E000E2E6E010E306E3C0E9B82
:10F83700EC72F0140E296E640E2A6E000E2B6EFF0A
:10F847000E2D6E2C68000E2F6E000E2E6E010E30E0
:10F857006E550E9BEC72F0140E296E600E2A6E0028
:10F867000E2B6EFF0E2D6E2C68000E2F6E000E2EC7
:10F877006E010E306E6C0E9BEC72F0140E296E62E8
:10F887000E2A6E000E2B6EFF0E2D6E2C68000E2FAB
:10F897006E000E2E6E010E306E770E9BEC72F071BD
:10F8A700C001F072C002F0C00E036EFF0E046E3D81
:10F8B700EC6CF01E0E296E71C02AF072C02BF0FF9F
:10F8C7000E2D6EE00E2C6E000E2F6E000E2E6E01AA
:10F8D7000E306E1E0E9BEC72F0000E146E1E0E1391
:10F8E7006E000E166E260E156E000E186E3C0E1765
:10F8F7006E000E1A6E120E196EFF0E1C6EE00E1BB6
:10F907006E85EC6EF0000E0D6E280E0C6E000E0F5D
:10F917006E2E0E0E6E000E116E070E106EF80E1381
:10F927006E000E126E71EC77F0000E0D6E3C0E0C31
:10F937006E000E0F6E2E0E0E6E000E116E070E105D
:10F947006EFF0E136EE00E126E71EC77F0000E2C48
:10F957006E500E2B6E000E2E6E2E0E2D6E000E307C
:10F967006E070E2F6E070E326EE00E316E02EC6ED2
:10F97700F0280E296E550E2A6E000E2B6EFF0E2DE7
:10F987006EE00E2C6E000E2F6E000E2E6E020E30E5
:10F997006E640E9BEC72F071C001F072C002F0D67B
:10F9A7000E036EFF0E046E3DEC6CF03C0E296E717B
:10F9B700C02AF072C02BF0F80E2D6E1F0E2C6E00B1
:10F9C7000E2F6E000E2E6E010E306E1E0E9BEC7209
:10F9D700F0000E146E1E0E136E000E166E440E15FA
:10F9E7006E000E186E3C0E176E000E1A6E120E1970
:10F9F7006EF80E1C6E1F0E1B6E85EC6EF0000E2C43
:10FA07006E280E2B6E000E2E6E4C0E2D6E000E30D5
:10FA17006E070E2F6EF80E326E000E316E02EC6E10
:10FA2700F0000E0D6E3C0E0C6E000E0F6E4C0E0E9F
:10FA37006E000E116E070E106EFF0E136EE00E12A3
:10FA47006E71EC77F0000E0D6E500E0C6E000E0FFF
:10FA57006E4C0E0E6E000E116E070E106E070E1313
:10FA67006EE00E126E71EC77F0460E296E520E2A7A
:10FA77006E000E2B6EF80E2D6E1F0E2C6E000E2FC5
:10FA87006E000E2E6E020E306E640E9BEC72F071DD
:10FA9700C001F072C002F0CC0E036EFF0E046E3D83
:10FAA700EC6CF05A0E296E71C02AF072C02BF00769
:10FAB7000E2D6E2C68000E2F6E000E2E6E010E306E
:10FAC7006E1E0E9BEC72F0000E146E1E0E136E006F
:10FAD7000E166E620E156E000E186E3C0E176E0037
:10FAE7000E1A6E120E196E070E1C6E1B6885EC6ED1
:10FAF700F0000E2C6E280E2B6E000E2E6E6A0E2D49
:10FB07006E000E306E070E2F6EF80E326E000E313D
:10FB17006E02EC6EF0000E0D6E3C0E0C6E000E0FBA
:10FB27006E6A0E0E6E000E116E070E106EFF0E132C
:10FB37006EE00E126E71EC77F0000E0D6E500E0C2B
:10FB47006E000E0F6E6A0E0E6E000E116E070E100F
:10FB57006E070E136EE00E126E71EC77F0640E29CD
:10FB67006E4C0E2A6E000E2B6E070E2D6E2C680043
:10FB77000E2F6E000E2E6E020E306E640E9BEC7210
:10FB8700F071C001F072C002F0DD0E036EFF0E04CB
:10FB97006E3DEC6CF0780E296E71C02AF072C02BA6
:10FBA700F0FF0E2D6E2C68000E2F6E000E2E6E01CC
:10FBB7000E306E1E0E9BEC72F0000E146E1E0E13AE
:10FBC7006E000E166E800E156E000E186E3C0E1728
:10FBD7006E000E1A6E120E196EFF0E1C6E1B6885D4
:10FBE700EC6EF0000E2C6E280E2B6E000E2E6E881B
:10FBF7000E2D6E000E306E070E2F6EF80E326E0051
:10FC07000E316E02EC6EF0000E0D6E3C0E0C6E00A7
:10FC17000E0F6E880E0E6E000E116E070E106EFF21
:10FC27000E136EE00E126E71EC77F0000E0D6E5033
:10FC37000E0C6E000E0F6E880E0E6E000E116E0704
:10FC47000E106E070E136EE00E126E71EC77F082D7
:10FC57000E296E490E2A6E000E2B6EFF0E2D6E2C8E
:10FC670068000E2F6E000E2E6E020E306E640E9B15
:10FC7700EC72F071C001F072C002F0EF0E036EFF7C
:10FC87000E046E3DEC6CF01E0E296E71C02AF072E8
:10FC9700C02BF0FF0E2D6EE00E2C6E000E2F6E00A7
:10FCA7000E2E6E010E306E030E9BEC72F0280E299D
:10FCB7006E5B0E2A6E000E2B6EFF0E2D6EE00E2C65
:10FCC7006E000E2F6E000E2E6E020E306E020E9B11
:10FCD700EC72F071C001F072C002F0F30E036EFF18
:10FCE7000E046E3DEC6CF05A0E296E71C02AF0724C
:10FCF700C02BF0070E2D6E2C68000E2F6E000E2EF7
:10FD07006E010E306E030E9BEC72F0640E296E5876
:10FD17000E2A6E000E2B6E070E2D6E2C68000E2F0E
:10FD27006E000E2E6E020E306E020E9BEC72F00508
:10FD3700D0530E00019F6F500E04D0460E00019F56
:10FD47006F530E0001A06F320E0001A16F340E0039
:10FD570001A26F330E0001A46F310E0001A66F33AD
:10FD67000E0001A76F370E0001A96F350E0001AA1B
:10FD77006F380E0001AB6F350E0001AC6F360E0009
:10FD870001AD6F350E0001AE6F370E0001B06F3554
:10FD97000E0001B16F370E0001B26F350E0001B3CF
:10FDA7006F960E296E9F0E2A6E000E2B6EFF0E2D7C
:10FDB7006E2C68000E2F6E000E2E6E010E306E0137
:10FDC7000E9BEC72F0120000000000000000005FC4
:10FDD70000000007000700147F147F14242A7F2ADD
:10FDE700122313086462364956205000080703009F
:10FDF700001C2241000041221C002A1C7F1C2A08EB
:10FE0700083E08080080703000080808080800004D
:10FE170060600020100804023E5149453E00427FC1
:10FE2700400072494949462141494D331814127F10
:10FE37001027454545393C4A4949314121110907B0
:10FE47003649494936464949291E00001400000031
:10FE57004034000000081422411414141414004103
:10FE670022140802015909063E415D594E7C1211C0
:10FE7700127C7F494949363E414141227F414141F8
:10FE87003E7F494949417F090909013E4141517373
:10FE97007F0808087F00417F41002040413F017FE4
:10FEA700081422417F404040407F021C027F7F04AC
:10FEB70008107F3E4141413E7F090909063E4151F5
:10FEC700215E7F09192946264949493203017F01E5
:10FED700033F4040403F1F2040201F3F4038403FE6
:10FEE700631408146303047804036159494D4300FC
:10FEF7007F4141410204081020004141417F040233
:10FF070001020440404040400003070800205454C9
:10FF170078407F28444438384444442838444428A7
:10FF27007F385454541800087E090218A4A49C78FA
:10FF37007F0804047800447D40002040403D007F56
:10FF47001028440000417F40007C047804787C0836
:10FF57000404783844444438FC182424181824240A
:10FF670018FC7C08040408485454542404043F44EF
:10FF7700243C4040207C1C2040201C3C4030403C1E
:10FF870044281028444C9090907C4464544C44007E
:10FF970008364100000077000000413608000201E2
:10FFA7000204024E5350204E534C542045575020C4
:10FFB70045574C5420522053004E4F5254482F530C
:10FFC7004F55544800454153542F57455354004EFD
:10FFD7002F53204C5400452F57204C54004D6F642D
:10FFE700653A004C53563A00504E5300504557005F
:08FFF7002D440020002A000047
:020000040030CA
:04000000FF08191EBE
:0200060081FF78
:00000001FF
