:020000040000FA
:100000000F0EC16E000E946E956EFF0E926E936E83
:10001000070E966E67EF00F080500F0B206E201CCD
:100020000F0B226E22C083FF839E01E1838E12009C
:1000300080500F0B206E81500F0B216E2024226EFA
:1000400022C083FF839E01E1838E120080500F0B3C
:10005000206E81500F0B216E2010226E22C083FF74
:10006000839E01E1838E120080500F0B206E815021
:100070000F0B216E20502114226E22C083FF2252CA
:10008000839E01E1838E120080500F0B206E815001
:100090000F0B216E2018226E22C083FF839E01E188
:1000A000838E120080500F0B206E090E20655BEFCF
:1000B00000F05EEF00F0205060EF00F0060E20240C
:1000C000226E22C083FF839E01E1838E120084B4DE
:1000D0006CEF00F071EF00F084B276EF00F078EF93
:1000E00000F084B27AEF00F07FEF00F0A7EF00F0AD
:1000F000A0EF00F084B092EF00F099EF00F084B030
:100100008BEF00F084EF00F08294829282900CECEE
:1001100000F067EF00F082948292828018EC00F089
:1001200067EF00F082948282828026EC00F067EF15
:1001300000F082948282829034EC00F067EF00F04D
:1001400082848292829044EC00F067EF00F0828417
:0C0150008282829052EC00F067EF00F019
:02015C000000A1
:020000040030CA
:0100010008F6
:0100020019E4
:010003001EDE
:010006008178
:00000001FF
