:0400000078EF74F031
:10E55A0012001200010EC26E0E0EC16EA90EC06E1E
:10E56A001200036E839683940350D9EC72F083866B
:10E57A001200036E839683840350D9EC72F083866B
:10E58A0012008398000E086E640E076E26EC74F073
:10E59A0083881200000E026E190E016E3C0E13ECF7
:10E5AA0075F0700ED36E1200026E9E96C9CF01F0FE
:10E5BA0002C0C9FF00D0C7A0FED7120053503234A0
:10E5CA002F312F3031203030303030302030303061
:10E5DA003000000E086E800E096EA00E0A6E14C07E
:10E5EA000BF015C00CF0000EBCEC76F01200C282E3
:10E5FA0000D0C2B2FED7C450046E036AC3500324CB
:10E60A00056E000E0420066E05C001F006C002F079
:10E61A0000D0120001500302F3CF05F0F4CF06F048
:10E62A0001500402F350062602500302F350062654
:0CE63A0005C001F006C002F000D0120084
:10E6470001322E3556003030003030002D44003076
:10E6570030003030003030003030004400300030BF
:10E6670000300030003000300083868394800EC76E
:10E677006E300EC66E83EC78F09CEC73F00AEC7883
:10E68700F0360EB6EC72F0C00EBEEC72F0010E72F0
:10E697006E12000B6E800E0B6013D09F0E08640184
:10E6A700D00FD008C004F00B28056E0828066E0BA3
:10E6B70050FFEC73F00A50BEEC72F00950BEEC72DA
:10E6C700F0120001C005F002C006F005D0054A06A9
:10E6D7002A034A042A00D003C0F6FF04C0F7FF0547
:10E6E700C0D9FF06C0DAFF0800F5CFDFFFDF50D83B
:10E6F700A4EDD71200000E0C6E0AAE07D0096C0A03
:10E707001ED8B00A2A010E0C6E00D009C001F00A0B
:10E71700C002F0036A8E0E046E0CC005F059EC7649
:10E72700F001C009F002C00AF003C00BF000D012DC
:10E73700002A0EB6EC72F0000EBEEC72F0000EBEB0
:10E74700EC72F0000EBEEC72F07F0EBEEC72F02B96
:10E757000EB6EC72F0000EBEEC72F0000EBEEC725C
:10E76700F0000EBEEC72F09F0EBEEC72F0120001CC
:10E77700C005F002C006F003D0054A062A00D005FE
:10E78700C0D9FF06C0DAFFDF50D8A4F6D701C0030F
:10E79700F002C004F0031E041E034A042A055003B6
:10E7A70024016E06500420026E00D012001B6E1B5F
:10E7B700C01CF01D6A0ED013C008F015C009F01672
:10E7C700C00AF017C00BF01C50CAEC75F01C4A1DAC
:10E7D7002A00D014501BC018F0196A1826000E1909
:10E7E7002218501C5C1D50800A1A6E1950800A1A94
:10E7F70058D8A0E1D71200076E2A0EB6EC72F000C7
:10E807000EBEEC72F007507324BEEC72F0000EBE21
:10E81700EC72F005507324BEEC72F02B0EB6EC725E
:10E82700F0000EBEEC72F004507624BEEC72F000DD
:10E837000EBEEC72F006507624BEEC72F02C0EB6CB
:10E84700EC72F0120007C001F008C002F0000E04DD
:10E857006EFA0E036E0FEC73F001C00BF002C00CE2
:10E86700F00BC009F00CC00AF0091E0A1E094A0A7B
:10E877002AFF0E09240B6EFF0E0A200C6EB80EB18C
:10E887006E0BC0B2FF0C50B36EA192B18000D0A145
:10E89700A2FED7B19012002F5000082D24086ED881
:10E8A700802F34096E31C00AF032C00BF02B50CAEA
:10E8B700EC75F02BC013F02CC014F02DC015F02E02
:10E8C700C016F02FC017F030C018F0000E1A6E03F4
:10E8D7000E196E000E1C6E000E1B6E31C01DF0323D
:10E8E700C01EF00BEC79F0120000EE80F01F0EEE68
:10E8F7006AE806FDE100EE63F0140EEE6AE806FD35
:10E90700E1C60EF66EE50EF76E000EF86E00EE9F8E
:10E91700F010EE16F00900F5CFEEFFE550E150FAE2
:10E92700E1470EF66EE60EF76E000EF86E00EE3A51
:10E93700F010EE29F00900F5CFEEFFE550E150FAAF
:10E94700E1000EF86E00014BEF75F015C008F017E7
:10E95700C009F01BC00AF01CC00BF0135086EC7501
:10E96700F0155019241D6E1D04086E17C009F01B01
:10E97700C00AF01CC00BF0135086EC75F015C008E8
:10E98700F019C009F01BC00AF01CC00BF01350CAE5
:10E99700EC75F015C008F019C009F01BC00AF01C8F
:10E9A700C00BF0135017241D6E1D04CAEC75F0122E
:10E9B70000246E2450040DF328C26EFCEC72F001A3
:10E9C700C022F002C023F022C001F023C002F000F1
:10E9D7000E046E050E036E0FEC73F001C009F00212
:10E9E700C00AF07EEC73F009C00DF00AC00EF00B00
:10E9F700C00FF0000E106E800E116E440E126E994D
:10EA0700EC77F00DC01FF00EC020F00FC021F01FF3
:10EA1700C01CF020C01DF021C01EF000D012000362
:10EA27006E000EAC6E000EAB6E03A002D0AC880079
:10EA3700D003A203D0AC8CAB8C00D003A402D0AC23
:10EA47008E00D003A602D0AB8802D0AB8A00D003D9
:10EA5700B8AC849E9803AA02D0AB8600D003AC0260
:10EA6700D09D8A01D09D9A9E9A03AE02D09D8801BF
:10EA7700D09D9801C0AFFF0250B06EAC8AAB8E94A8
:10EA87009C948EACB8ACBE02D0948C00D0120070AF
:10EA97000ED36E1F0E926E070E936E000E946E00CD
:10EAA7000E956E000E966EAFEC72F0CFEC72F029F9
:10EAB700EC7BF0000EDCEC74F01CC063F01DC0644E
:10EAC700F01EC065F063C001F064C002F065C003CA
:10EAD700F0000E046E200E056E400E066E0EEC76EC
:10EAE700F0D8B002D0010E01D0000E6B6E00D06BD3
:10EAF70004D8A403D0ADEC72F0FAD7AEEC72F0F7FD
:10EB0700D700EF00F0126E800E12603FD09F0E0804
:10EB17006401D03BD0FF0E0C6EFF0E0D6E09501234
:10EB2700C00EF00F6A0E26000E0F220C500E260D97
:10EB3700500F220FBE0BD00F5004E1800E0E5CD891
:10EB4700A005D012500008800F096E00D00B50109E
:10EB57006E0AC011F008C004F0125009240C6E0CA4
:10EB670004056E08C006F01250FFEC73F08384832F
:10EB77009607D01050D9EC72F01150D9EC72F00012
:10EB8700D009060928D8A4F5D783861200126E800B
:10EB97000E12603FD09F0E086401D03BD0FF0E0CD1
:10EBA7006EFF0E0D6E095008C00EF00F6A0E26009C
:10EBB7000E0F220C500E260D500F220FBE0BD00F3A
:10EBC7005004E1A00E0E5CD8A005D008500008A0A4
:10EBD7000F096E00D00B50106E0AC011F008C00468
:10EBE700F012C005F0085009240C6E0C04066E12D2
:10EBF70050FFEC73F08384839607D01050D9EC72E2
:10EC0700F01150D9EC72F000D009060928D8A4F504
:10EC1700D78386120003AE17D001C007F002C008E1
:10EC2700F003C009F0071E081E091E072A000E0878
:10EC3700220922000E0724016E000E0820026E80B2
:10EC47000E0920036E00D006AE17D004C007F005EA
:10EC5700C008F006C009F0071E081E091E072A0093
:10EC67000E08220922000E0724046E000E08200554
:10EC77006E800E0920066E00D0000E011A000E02EB
:10EC87001A800E031A000E041A000E051A800E06CB
:10EC97001A0450015C0550025806500358D8B002B8
:10ECA700D0D89002D0D88000D012000450D8B40534
:10ECB700D0015002100310D8A40ED0000E016E0030
:10ECC7000E026E000E036E53D006D0042AD89003AE
:10ECD700320232013200D0000E0114066E000E021D
:10ECE70014076EFE0E0314086E065007100810D89E
:10ECF700B40ED0EBD70CD0042A010E0126000E0269
:10ED070022000E0322D89003320232013200D000D3
:10ED17000E0114066E000E0214076EFF0E03140890
:10ED27006E065007100810D8B408D0E5D706D004EF
:10ED370006D89001360236033600D002BE04D00250
:10ED47000E0460F5D700D004B002D0029E00D0D8E0
:10ED5700900432045003120550D8B402D0038E0039
:10ED6700D001C001F002C002F003C003F000D012CE
:10ED770000136E800E136069D09F0E086401D06582
:10ED8700D0FF0E0D6EFF0E0E6E095013C00FF01060
:10ED97006A0F26000E10220D500F260E501022105B
:10EDA700BE0AD0105004E1800E0F5CD8A004D01327
:10EDB700500008800F096EFF0E0D6EFF0E0E6E0AD3
:10EDC7005008C00FF0106A0F26000E10220D500FCA
:10EDD700260E50102210BE0BD0105004E1A00E0FCB
:10EDE7005CD8A005D008500008A00F0A6E00D00814
:10EDF700C004F0135009240D6E0D04056E08500A67
:10EE0700240E6E0E04066E1350FFEC73F00C5011B7
:10EE17006E0BC012F0838483960AC008F00850D89E
:10EE2700B413D001D011D009C013F01350D8B40ACD
:10EE3700D001D008D01150D9EC72F01250D9EC7231
:10EE4700F01306F3D70806EAD783861200356E3526
:10EE5700C039F029C038F02AC001F02BC002F0BB3E
:10EE6700EC73F001C033F002C034F0000E376E00CF
:10EE77000E366E54D03A50D8B42CD03050050D39D8
:10EE870050316E326AF3503126F450322232BE21AD
:10EE9700D0325004E1810E315CD8A01BD0000E396E
:10EEA7006E3050070DF3503824030F386EA00E381C
:10EEB7006403D0A00E386E00D036502A24D96E379E
:10EEC700502B20DA6E200EDE18D8B425D002D023BE
:10EED700D000D038C01EF036502A24D96E37502BB8
:10EEE70020DA6EDF501F6E2CC020F02DC021F02ECF
:10EEF700C022F02FC023F030C024F03950A7EC799E
:10EF0700F03050060DF3503924396E800E39640302
:10EF1700D0800E396E00D0364A372A00D0335036AB
:10EF27005C34503758D8A0A6D712000FC013F0147E
:10EF37006A156A0E34133601E3148013501A6E1AD9
:10EF470050D8A402D00ED061D012C013F0146A15A5
:10EF57006A1134133601E3148013501B6E1B50D80B
:10EF6700A407D0000E0D6E000E0E6E000E0F6E4D34
:10EF7700D0000E176E000E186E000E196E1B50890A
:10EF87000F1A5E0FC01BF012501B1A800E1B160EB5
:10EF97008EFF0E0D16FF0E0E16000E0F16118EFFAA
:10EFA7000E1016FF0E1116000E1216180E166E0012
:10EFB700D0D89017361836193610500D5C11500EF0
:10EFC7005812500F58D8A007D010500D5E11500E90
:10EFD7005A12500F5A1780D8900D360E360F361624
:10EFE7002EE7D700D017C001F018C002F019C003F0
:10EFF700F01AC004F01BC005F059EC76F001C00D03
:10F00700F002C00EF003C00FF000D01200E00EB601
:10F01700EC72F0020EBEEC72F01C0EBEEC72F00742
:10F027000EBEEC72F0120EBEEC72F0370EBEEC7232
:10F03700F0320EBEEC72F0290EBEEC72F02D0EBE51
:10F04700EC72F0290EBEEC72F0250EBEEC72F02BBE
:10F057000EBEEC72F0390EBEEC72F0000EBEEC7212
:10F06700F0010EBEEC72F0030EBEEC72F0100EBE95
:10F07700EC72F0E10EB6EC72F0030EBEEC72F01D0E
:10F087000EBEEC72F0070EBEEC72F0060EBEEC720E
:10F09700F02E0EBEEC72F02C0EBEEC72F0290EBEF6
:10F0A700EC72F02D0EBEEC72F02E0EBEEC72F02E4E
:10F0B7000EBEEC72F0370EBEEC72F03F0EBEEC7275
:10F0C700F0000EBEEC72F0000EBEEC72F0020EBE47
:10F0D700EC72F0100EBEEC72F0130EB6EC72F0008C
:10F0E7000E086E0A0E076E26EC74F0290EB6EC7247
:10F0F700F0000E086E640E076E26EC74F012000125
:10F107000EB6EC72F0000E086E960E076E26EC74C3
:10F11700F0110EB6EC72F0010E086EF40E076E26B3
:10F12700EC74F0B10EB6EC72F0010EBEEC72F02C7E
:10F137000EBEEC72F02D0EBEEC72F0B20EB6EC7293
:10F14700F0010EBEEC72F02C0EBEEC72F02D0EBE6E
:10F15700EC72F0B30EB6EC72F0010EBEEC72F02C4E
:10F167000EBEEC72F02D0EBEEC72F0010EBEEC720C
:10F17700F02C0EBEEC72F02D0EBEEC72F0B40EB693
:10F18700EC72F0070EBEEC72F0C00EB6EC72F0A295
:10F197000EBEEC72F0020EBEEC72F0840EBEEC7284
:10F1A700F0C10EB6EC72F0C50EBEEC72F0C20EB630
:10F1B700EC72F00A0EBEEC72F0000EBEEC72F0C3F9
:10F1C7000EB6EC72F08A0EBEEC72F02A0EBEEC722E
:10F1D700F0C40EB6EC72F08A0EBEEC72F0EE0EBE04
:10F1E700EC72F0C50EB6EC72F00E0EBEEC72F020AB
:10F1F7000EB6EC72F0360EB6EC72F0C80EBEEC72BC
:10F20700F03A0EB6EC72F0050EBEEC72F012001773
:10F21700C01FF018C020F01F1E201E1F4A202A0101
:10F227000E1F24256E000E2020266E000E226E0172
:10F237000E216E17C01FF018C020F0D8901F36207F
:10F24700361F1E201E1F4A202A1FC023F020C0245D
:10F25700F0000E286E000E276E17C029F018C02A7E
:10F26700F067D026BE0BD02906D8A02A06020E23A7
:10F2770026000E24222350252624502622274A28FA
:10F287002A020E2126000E22222150252622502650
:10F297002219A025D0295000081524086E295029C5
:10F2A700241B241F6E1F28096E1DC00AF01EC00BE9
:10F2B700F013502724CAEC75F027500008152408CE
:10F2C7006E275027241B241F6E1F28096E1DC00A96
:10F2D700F01EC00BF013502924CAEC75F000D019AA
:10F2E700A227D0295000081524086E295029241B6D
:10F2F700241F6E1F28096E1DC00AF01EC00BF027C1
:10F307005000081324CAEC75F0275000081524088C
:10F317006E275027241B241F6E1F28096E1DC00A45
:10F32700F01EC00BF0295000081324CAEC75F0003A
:10F33700D02950275C2850800A1F6E2A50800A1F48
:10F3470058D8A08FD71200266E800E2660A6D09FB1
:10F357000E1E6401D0A2D02450D8A403D0010E24DD
:10F367006E00D01F0E1F6404D07E0E1F6403D000F2
:10F37700D03F0E1F6E000E286E040E286401D08D3C
:10F38700D0530E1F6015D0E00E1F24016E026AFFD6
:10F397000E0222000E046E050E036E0FEC73F028AA
:10F3A700500126000E0222CF0E0124F66EFD0E1428
:10F3B700D0AD0E1F24016E026AFF0E0222000E045A
:10F3C7006E050E036E0FEC73F028500126000E0237
:10F3D70022CE0E0124F66EFE0E0220F76E0800F50F
:10F3E700CF25F000D0000E276E060E276401D053FC
:10F3F700D025A023D02404D8A40CD01E502724083D
:10F407006E20C009F021C00AF0265028244DEC7365
:10F41700F03ED027502402F3501E24136E24C0144C
:10F42700F024C015F020C016F021C017F028502492
:10F4370002F3502624DAEC73F02AD0205022180465
:10F44700E121502318D8B423D02404D8A40CD01E0B
:10F45700502724086E22C009F023C00AF02650283E
:10F46700244DEC73F014D027502402F3501E2413BC
:10F477006E24C014F024C015F022C016F023C01764
:10F48700F028502402F3502624DAEC73F000D0273A
:10F497002AD8902532A9D7282A6FD7120010C0146E
:10F4A700F011C015F0141E151E144A152A010E146A
:10F4B700241A6E000E15201B6E000E176E010E1615
:10F4C7006E10C014F011C015F0D89014361536140C
:10F4D7001E151E144A152A14C018F015C019F0007D
:10F4E7000E1D6E000E1C6E10C01EF011C01FF00E18
:10F4F700501024086E12C009F013C00AF00C504DCA
:10F50700EC73F0105000080E24086E12C009F013B7
:10F51700C00AF00C504DEC73F00EC008F012C00991
:10F52700F013C00AF00C5010244DEC73F00EC00815
:10F53700F012C009F013C00AF0105000080C244D57
:10F54700EC73F078D01BBE0BD01E06D8A01F0602A6
:10F557000E1826000E192218501A2619501B221CA5
:10F567004A1D2A020E1626000E172216501A2617B3
:10F57700501B220E501E24086E12C009F013C00A39
:10F58700F00C501C244DEC73F00E501E24086E1224
:10F59700C009F013C00AF01C5000080C244DEC738E
:10F5A700F01E5000080E24086E12C009F013C00A9E
:10F5B700F00C501C244DEC73F01E5000080E24086C
:10F5C7006E12C009F013C00AF01C5000080C244D3D
:10F5D700EC73F00E501C24086E12C009F013C00A19
:10F5E700F00C501E244DEC73F00E501C24086E12C4
:10F5F700C009F013C00AF01E5000080C244DEC732C
:10F60700F01C5000080E24086E12C009F013C00A3F
:10F61700F00C501E244DEC73F01C5000080E24080B
:10F627006E12C009F013C00AF01E5000080C244DDA
:10F63700EC73F000D01E501C5C1D50800A146E1F26
:10F6470050800A1458D8A07ED71200C6EC72F03842
:10F65700EC73F0000E156E000E146EEEEC72F08077
:10F667000E686E000E696E68C001F069C002F0E4B2
:10F677000E036EFF0E046E65EC73F0020E296E68C2
:10F68700C02AF069C02BF0FF0E2D6E2C68000E2FDC
:10F697006E000E2E6E010E306E020E2AEC77F0020F
:10F6A7000E296E550E2A6E000E2B6EFF0E2D6E2C38
:10F6B70068000E2F6E000E2E6E010E306E230E2A7E
:10F6C700EC77F068C001F069C002F0EA0E036EFF44
:10F6D7000E046E65EC73F0020E296E68C02AF0699D
:10F6E700C02BF0FF0E2D6E2C68000E2F6E000E2E15
:10F6F7006E010E306E320E2AEC77F0020E296E3B49
:10F707000E2A6E000E2B6EFF0E2D6E2C68000E2F2C
:10F717006E000E2E6E010E306E4B0E2AEC77F068DF
:10F72700C001F069C002F0F70E036EFF0E046E65AC
:10F73700EC73F0020E296E460E2A6E000E2B6EFF3A
:10F747000E2D6E2C68000E2F6E000E2E6E010E30E1
:10F757006E640E2AEC77F068C001F069C002F0FC15
:10F767000E036EFF0E046E65EC73F0020E296E68D1
:10F77700C02AF069C02BF0FF0E2D6E2C68000E2FEB
:10F787006E000E2E6E010E306E780E2AEC77F06842
:10F79700C001F069C002F0AA0E036EFF0E046E6589
:10F7A700EC73F00B0E296E68C02AF069C02BF0FFCE
:10F7B7000E2D6E2C68000E2F6E000E2E6E010E3071
:10F7C7006E010E2AEC77F0140E296E610E2A6E0078
:10F7D7000E2B6EFF0E2D6E2C68000E2F6E000E2E58
:10F7E7006E010E306E080E2AEC77F0140E296E5F4C
:10F7F7000E2A6E000E2B6EFF0E2D6E2C68000E2F3C
:10F807006E000E2E6E010E306E230E2AEC77F0146A
:10F817000E296E5D0E2A6E000E2B6EFF0E2D6E2CBE
:10F8270068000E2F6E000E2E6E010E306E3C0E2AF3
:10F83700EC77F0140E296E5B0E2A6E000E2B6EFF0E
:10F847000E2D6E2C68000E2F6E000E2E6E010E30E0
:10F857006E550E2AEC77F0140E296E570E2A6E009D
:10F867000E2B6EFF0E2D6E2C68000E2F6E000E2EC7
:10F877006E010E306E6C0E2AEC77F0140E296E595D
:10F887000E2A6E000E2B6EFF0E2D6E2C68000E2FAB
:10F897006E000E2E6E010E306E770E2AEC77F06832
:10F8A700C001F069C002F0C00E036EFF0E046E6562
:10F8B700EC73F01E0E296E68C02AF069C02BF0FFAA
:10F8C7000E2D6EE00E2C6E000E2F6E000E2E6E01AA
:10F8D7000E306E1E0E2AEC77F0000E146E1E0E13FD
:10F8E7006E000E166E260E156E000E186E3C0E1765
:10F8F7006E000E1A6E120E196EFF0E1C6EE00E1BB6
:10F907006EA9EC74F0000E0D6E280E0C6E000E0F33
:10F917006E2E0E0E6E000E116E070E106EF80E1381
:10F927006E000E126E52EC7AF0000E0D6E3C0E0C4D
:10F937006E000E0F6E2E0E0E6E000E116E070E105D
:10F947006EFF0E136EE00E126E52EC7AF0000E2C64
:10F957006E500E2B6E000E2E6E2E0E2D6E000E307C
:10F967006E070E2F6E070E326EE00E316E4FEC747F
:10F97700F0280E296E4C0E2A6E000E2B6EFF0E2DF0
:10F987006EE00E2C6E000E2F6E000E2E6E020E30E5
:10F997006E640E2AEC77F068C001F069C002F0D6F9
:10F9A7000E036EFF0E046E65EC73F03C0E296E6855
:10F9B700C02AF069C02BF0F80E2D6E1F0E2C6E00BA
:10F9C7000E2F6E000E2E6E010E306E1E0E2AEC7775
:10F9D700F0000E146E1E0E136E000E166E440E15FA
:10F9E7006E000E186E3C0E176E000E1A6E120E1970
:10F9F7006EF80E1C6E1F0E1B6EA9EC74F0000E2C19
:10FA07006E280E2B6E000E2E6E4C0E2D6E000E30D5
:10FA17006E070E2F6EF80E326E000E316E4FEC74BD
:10FA2700F0000E0D6E3C0E0C6E000E0F6E4C0E0E9F
:10FA37006E000E116E070E106EFF0E136EE00E12A3
:10FA47006E52EC7AF0000E0D6E500E0C6E000E0F1B
:10FA57006E4C0E0E6E000E116E070E106E070E1313
:10FA67006EE00E126E52EC7AF0460E296E490E2A9F
:10FA77006E000E2B6EF80E2D6E1F0E2C6E000E2FC5
:10FA87006E000E2E6E020E306E640E2AEC77F06852
:10FA9700C001F069C002F0CC0E036EFF0E046E6564
:10FAA700EC73F05A0E296E68C02AF069C02BF00774
:10FAB7000E2D6E2C68000E2F6E000E2E6E010E306E
:10FAC7006E1E0E2AEC77F0000E146E1E0E136E00DB
:10FAD7000E166E620E156E000E186E3C0E176E0037
:10FAE7000E1A6E120E196E070E1C6E1B68A9EC74A7
:10FAF700F0000E2C6E280E2B6E000E2E6E6A0E2D49
:10FB07006E000E306E070E2F6EF80E326E000E313D
:10FB17006E4FEC74F0000E0D6E3C0E0C6E000E0F67
:10FB27006E6A0E0E6E000E116E070E106EFF0E132C
:10FB37006EE00E126E52EC7AF0000E0D6E500E0C47
:10FB47006E000E0F6E6A0E0E6E000E116E070E100F
:10FB57006E070E136EE00E126E52EC7AF0640E29E9
:10FB67006E430E2A6E000E2B6E070E2D6E2C68004C
:10FB77000E2F6E000E2E6E020E306E640E2AEC777C
:10FB8700F068C001F069C002F0DD0E036EFF0E04DD
:10FB97006E65EC73F0780E296E68C02AF069C02B89
:10FBA700F0FF0E2D6E2C68000E2F6E000E2E6E01CC
:10FBB7000E306E1E0E2AEC77F0000E146E1E0E131A
:10FBC7006E000E166E800E156E000E186E3C0E1728
:10FBD7006E000E1A6E120E196EFF0E1C6E1B68A9B0
:10FBE700EC74F0000E2C6E280E2B6E000E2E6E8815
:10FBF7000E2D6E000E306E070E2F6EF80E326E0051
:10FC07000E316E4FEC74F0000E0D6E3C0E0C6E0054
:10FC17000E0F6E880E0E6E000E116E070E106EFF21
:10FC27000E136EE00E126E52EC7AF0000E0D6E504F
:10FC37000E0C6E000E0F6E880E0E6E000E116E0704
:10FC47000E106E070E136EE00E126E52EC7AF082F3
:10FC57000E296E400E2A6E000E2B6EFF0E2D6E2C97
:10FC670068000E2F6E000E2E6E020E306E640E2A86
:10FC7700EC77F068C001F069C002F0EF0E036EFF89
:10FC87000E046E65EC73F01E0E296E68C02AF069CB
:10FC9700C02BF0FF0E2D6EE00E2C6E000E2F6E00A7
:10FCA7000E2E6E010E306E030E2AEC77F0280E2909
:10FCB7006E520E2A6E000E2B6EFF0E2D6EE00E2C6E
:10FCC7006E000E2F6E000E2E6E020E306E020E2A82
:10FCD700EC77F068C001F069C002F0F30E036EFF25
:10FCE7000E046E65EC73F05A0E296E68C02AF0692F
:10FCF700C02BF0070E2D6E2C68000E2F6E000E2EF7
:10FD07006E010E306E030E2AEC77F0640E296E4FEB
:10FD17000E2A6E000E2B6E070E2D6E2C68000E2F0E
:10FD27006E000E2E6E020E306E020E2AEC77F00574
:10FD3700D0530E00019F6F500E04D0460E00019F56
:10FD47006F530E0001A06F320E0001A16F340E0039
:10FD570001A26F330E0001A46F310E0001A66F33AD
:10FD67000E0001A76F370E0001A96F350E0001AA1B
:10FD77006F380E0001AB6F350E0001AC6F360E0009
:10FD870001AD6F350E0001AE6F370E0001B06F3554
:10FD97000E0001B16F370E0001B26F350E0001B3CF
:10FDA7006F960E296E9F0E2A6E000E2B6EFF0E2D7C
:10FDB7006E2C68000E2F6E000E2E6E010E306E0137
:10FDC7000E2AEC77F0120000000000000000005F30
:10FDD70000000007000700147F147F14242A7F2ADD
:10FDE700122313086462364956205000080703009F
:10FDF700001C2241000041221C002A1C7F1C2A08EB
:10FE0700083E08080080703000080808080800004D
:10FE170060600020100804023E5149453E00427FC1
:10FE2700400072494949462141494D331814127F10
:10FE37001027454545393C4A4949314121110907B0
:10FE47003649494936464949291E00001400000031
:10FE57004034000000081422411414141414004103
:10FE670022140802015909063E415D594E7C1211C0
:10FE7700127C7F494949363E414141227F414141F8
:10FE87003E7F494949417F090909013E4141517373
:10FE97007F0808087F00417F41002040413F017FE4
:10FEA700081422417F404040407F021C027F7F04AC
:10FEB70008107F3E4141413E7F090909063E4151F5
:10FEC700215E7F09192946264949493203017F01E5
:10FED700033F4040403F1F2040201F3F4038403FE6
:10FEE700631408146303047804036159494D4300FC
:10FEF7007F4141410204081020004141417F040233
:10FF070001020440404040400003070800205454C9
:10FF170078407F28444438384444442838444428A7
:10FF27007F385454541800087E090218A4A49C78FA
:10FF37007F0804047800447D40002040403D007F56
:10FF47001028440000417F40007C047804787C0836
:10FF57000404783844444438FC182424181824240A
:10FF670018FC7C08040408485454542404043F44EF
:10FF7700243C4040207C1C2040201C3C4030403C1E
:10FF870044281028444C9090907C4464544C44007E
:10FF970008364100000077000000413608000201E2
:10FFA7000204024E5350204E534C542045575020C4
:10FFB70045574C5420522053004E4F5254482F530C
:10FFC7004F55544800454153542F57455354004EFD
:10FFD7002F53204C5400452F57204C54004D6F642D
:10FFE700653A004C53563A00504E5300504557005F
:08FFF7002D440020002A000047
:020000040030CA
:04000000FF08191EBE
:0200060081FF78
:00000001FF
