:040000000CEF00F011
:10000800FACF03F0FBCF04F0E9CF05F0D1ED0AF009
:100018000FEF0BF01F0E306E000E316E99D1250ECA
:100028003818D8B404D038509FEC0FF091D1000E96
:10003800376E000E366E000E356E05D035841D4ABB
:100048001E2A01D00BD01DC0F6FF1EC0F7FF080006
:10005800F550300AD8B4F2D701D0F5D71DC0F6FF55
:100068001EC0F7FF0800F550B3EC0EF0D8A03BD047
:10007800000E376E000E366E00D036C011F037C055
:1000880012F0000E146E0A0E136E7AEC0EF011C008
:1000980036F012C037F0D00E2B6EFF0E2C6E1DC03E
:1000A800F6FF1EC0F7FF0800F5502D6E2E6A2B5084
:1000B8002D262C502E222D5036262E5037221D4A02
:1000C8001E2A1DC0F6FF1EC0F7FF0800F550B3EC4E
:1000D8000EF0D8A008D0D1D706D048D11BD0358E85
:1000E80019D036D117D01DC0F6FF1EC0F7FF1D4A24
:1000F8001E2A0800F5CF38F03850000AD8B436D197
:10010800640AD8B407D00D0AD8B404D0110AD8B4F8
:10011800E6D71ED135BE15D030C0D9FF31C0DAFFC1
:10012800DECF33F0DDCF34F0020E3026000E312260
:1001380034AE4ED0030E3512336C341ED8B0342A88
:1001480047D030C0D9FF31C0DAFFDECF33F0DDCF82
:1001580034F0020E3026000E31223AD0010E386EED
:10016800050E3818D8B43DD001D03BD03850020D18
:100178004E0EF324F66EFF0EF420F76E0900F550CC
:10018800335C0900F5503458D8A02BD001D029D0C1
:10019800382AE6D726D0010E386E040E3818D8B49F
:1001A80020D001D01ED03850020D580EF324F66E20
:1001B800FF0EF420F76E0900F550335C0900F55086
:1001C8003458D8A00ED001D00CD0382AE6D709D0A0
:1001D8003550800B000AD8B4C1D7800AD8B4DBD711
:1001E80000D036503710D8B40AD035C02BF0030EE3
:1001F8002B16D8B404D03606D8A0370600D0800E07
:1002080038BE7F0E2B6E3650385C3750800A2B581C
:10021800D8B007D03850365E000E38BEFF0E375AB9
:1002280005D0000E376E000E366E00D035A41AD0F9
:1002380035C02BF0030E2B16D8B404D02D0E9FEC2E
:100248000FF000D036503710D8B426D0300E9FECBF
:100258000FF03606D8A0370636503710D8B41CD061
:10026800F5D71AD036503710D8B40CD0200E9FECE2
:100278000FF03606D8A0370636503710D8B402D05B
:10028800F5D700D035C02BF0030E2B16D8B404D008
:100298002D0E9FEC0FF000D038C032F053D045D06F
:1002A8003250020D4E0EF324F66EFF0EF420F76E58
:1002B8000900F5CF13F00A00F5CF14F033C011F0A0
:1002C80034C012F0E9EC0BF011C018F012C019F0AC
:1002D800000E1B6E0A0E1A6EE3EC0CF01850300F6D
:1002E800386E2CD033C011F034C012F03250020DE9
:1002F800580EF324F66EFF0EF420F76E0900F5CFC2
:1003080013F00A00F5CF14F0E9EC0BF011500F0BC5
:100318002F6E2F50010DE50EF324F66EFF0EF4201C
:10032800F76E0800F5CF38F009D03550800B000A79
:10033800D8B4B6D7800AD8B4D5D700D038509FECF7
:100348000FF000D032063228D8B402D0EED700D051
:100358001DC0F6FF1EC0F7FF1D4A1E2A0800F5CF74
:1003680038F03850D8B402D05AD600D0120047EC32
:100378000FF0700ED36EF19E070E936E010E946E01
:10038800000E956E0F0EC16E000E926E000E966EE8
:10039800EAEC09F0030EB16EA00E116E860E126E15
:1003A800010E136E000E146EB7EC0FF0E5EC0EF0B4
:1003B8001CEC0FF0CBEC0FF0000E446E000E456EF7
:1003C800000E466E000E476E8382010E526E8384C5
:1003D800320E5E6E5E508FEC09F000D0B7EC0BF079
:1003E80063506E18D8B45AD063C06EF018EC0EF093
:1003F8000001F16F0001F151090DF3CF11F0F4CFB5
:1004080012F0000E146E050E136E42EC0AF0115035
:10041800200F0001F06F9CEC0DF019C04EF01AC0CF
:100428004FF05EC019F01A6A09EC0DF04EC019F0D1
:100438004FC01AF06AEC0CF08B0E1D6EFF0E1E6E8C
:100448005FC01FF0206A60C021F0226A63C023F0F9
:10045800246A61C025F0266A5CC027F0286A6DC04E
:1004680029F02A6A0EEC00F0600E1D6EFF0E1E6E5B
:10047800F1C01FF0206AF0C021F0226A0EEC00F0F3
:10048800D20E1D6EFF0E1E6E4EC01FF04FC020F024
:100498005EC021F0226A0EEC00F000D0480449103A
:1004A800D8A49CD7000E496E000E486EDBEC0FF006
:1004B800900E5318D8A403D084EC0BF000D0C20ED1
:1004C8005318D8A403D033EC0FF000D0E00E531823
:1004D800D8A403D0C4EC0EF000D0A80E5318D8A4AA
:1004E80003D0A1EC0EF000D05204D8A402D083842B
:1004F80002D0839400D0BF0E1D6EFF0E1E6E53C037
:100508001FF0206A0EEC00F00001F269000E0001F5
:10051800F36F140E0001F36501D013D00001F351FD
:10052800010DAA0EF324D96E000EF420DA6E535092
:10053800DE18D8A403D0F3C0F2F000D00001F32BEA
:10054800E8D70001F229D8B449D7A90E1D6EFF0ECD
:100558001E6EF2C01FF0206A0EEC00F0000E3C6E1A
:100568003C0E3B6E000E3E6E500E3D6E000E406E11
:10057800140E3F6E0001F251020D800EF324D96E65
:10058800000EF420DA6EDECF41F0DDCF42F041EC10
:100598000CF0000E1D6E3C0E1C6E000E1F6E500EF1
:1005A8001E6E000E216E140E206EFF0E236E226842
:1005B80003EC03F04D0E396E0001F251040D000EEC
:1005C800F3243A6E010EF4203B6EFF0E3D6E3C683C
:1005D800000E3F6E000E3E6E010E406E340E60EC53
:1005E80006F0838663EC0FF0BCEC0FF0CBEC0FF059
:1005F8005E508FEC09F08396F1D60CEF00F020C026
:1006080024F021C025F0241E251E244A252A010E87
:1006180024242A6E000E25202B6E000E276E010E54
:10062800266E20C024F021C025F0D8902436253627
:10063800241E251E244A252A24C028F025C029F076
:10064800000E2D6E000E2C6E20C02EF021C02FF053
:100658001E502024186E22C019F023C01AF01C5016
:100668004DEC0EF0205000081E24186E22C019F020
:1006780023C01AF01C504DEC0EF01EC018F022C01A
:1006880019F023C01AF01C5020244DEC0EF01EC0A7
:1006980018F022C019F023C01AF0205000081C24BA
:1006A8004DEC0EF078D02BBE0BD02E06D8A02F061E
:1006B800020E2826000E292228502A2629502B22ED
:1006C8002C4A2D2A020E2626000E272226502A26DC
:1006D80027502B221E502E24186E22C019F023C03A
:1006E8001AF01C502C244DEC0EF01E502E24186EBF
:1006F80022C019F023C01AF02C5000081C244DEC1D
:100708000EF02E5000081E24186E22C019F023C0C7
:100718001AF01C502C244DEC0EF02E5000081E240C
:10072800186E22C019F023C01AF02C5000081C249F
:100738004DEC0EF01E502C24186E22C019F023C068
:100748001AF01C502E244DEC0EF01E502C24186E5E
:1007580022C019F023C01AF02E5000081C244DECBA
:100768000EF02C5000081E24186E22C019F023C069
:100778001AF01C502E244DEC0EF02C5000081E24AC
:10078800186E22C019F023C01AF02E5000081C243D
:100798004DEC0EF000D02E502C5C2D50800A246EAB
:1007A8002F50800A2458D8A07ED71200F0925450B7
:1007B800D8B4A1D0CE50CFCF01F0026A01C002F068
:1007C800016A01104A6E02504B6E000ECF6E000E89
:1007D800CE6E91D0000ECF6E000ECE6E9E90900E13
:1007E800CD6ECD80000E5A6E000E446E000E456E22
:1007F800000E466E000E476E010E546EF18854C00E
:1008080080FF8AD0350E4A5C210E4B58D8A009D0FB
:100818001C0E4A5C250E4B58D8B003D0020E546EFD
:1008280027D0D7EC0FF02AD029D076D0A10E4A5C79
:100838000F0E4B58D8A009D0880E4A5C130E4B589F
:10084800D8B003D0030E546E4ED0D7EC0FF051D071
:1008580050D062D0910E4A5C010E4B58D8A00BD0F4
:10086800BC0E4A5C020E4B58D8B005D0040ED7D740
:1008780054C080FF03D0D7EC0FF000D0F1984CD0D3
:10088800910E4A5C010E4B58D8A030D0080E4A5C35
:10089800070E4B58D8B02AD0D8904434446E45340B
:1008A800456E4634466E4734476EE90E4A5C030E81
:1008B8004B58D8A007D0010E4426000E45224622E8
:1008C800472200D05A2A1F0E5A64BCD745C053F09D
:1008D800000E546E54C080FF000E496E010E486E23
:1008E800F09807D0AFD754C080FF03D0D7EC0FF0F3
:1008F80000D0F18811D05450000AD8B46BD7010A3F
:10090800D8B480D7030AD8B491D7010AD8B4A2D7EB
:10091800070AD8B4B5D700D01200366E800E3660FC
:10092800A6D09F0E2E6401D0A2D03450D8A403D0F4
:10093800010E346E00D01F0E2F6404D07E0E2F647B
:1009480003D000D03F0E2F6E000E386E040E3864B0
:1009580001D08DD0530E2F6015D0E00E2F24116ECC
:10096800126AFF0E1222000E146E050E136E7AEC38
:100978000EF038501126000E1222730E1124F66E56
:10098800FD0E14D0AD0E2F24116E126AFF0E122226
:10099800000E146E050E136E7AEC0EF03850112608
:1009A800000E1222720E1124F66EFE0E1220F76E41
:1009B8000800F5CF35F000D0000E376E060E37640C
:1009C80001D053D035A023D03404D8A40CD02E5055
:1009D8003724186E30C019F031C01AF03650382458
:1009E8004DEC0EF03ED037503402F3502E24236ED7
:1009F80034C024F034C025F030C026F031C027F0D0
:100A080038503402F35036242EEC0DF02AD03050F2
:100A1800321804E131503318D8B423D03404D8A4A0
:100A28000CD02E503724186E32C019F033C01AF08B
:100A3800365038244DEC0EF014D037503402F350B1
:100A48002E24236E34C024F034C025F032C026F0A2
:100A580033C027F038503402F35036242EEC0DF012
:100A680000D0372AD8903532A9D7382A6FD7120044
:100A780027C02FF028C030F02F1E301E2F4A302AF2
:100A8800010E2F24356E000E3020366E000E326EA9
:100A9800010E316E27C02FF028C030F0D8902F36C5
:100AA80030362F1E301E2F4A302A2FC033F030C068
:100AB80034F0000E386E000E376E27C039F028C0AB
:100AC8003AF067D036BE0BD03906D8A03A06020EE7
:100AD8003326000E34223350352634503622374A16
:100AE800382A020E3126000E322231503526325075
:100AF800362229A025D0395000082524186E3950EF
:100B080039242B242F6E2F28196E2DC01AF02EC0D1
:100B18001BF0235037248DEC0AF0375000082524A9
:100B2800186E375037242B242F6E2F28196E2DC09E
:100B38001AF02EC01BF0235039248DEC0AF000D097
:100B480029A227D0395000082524186E3950392495
:100B58002B242F6E2F28196E2DC01AF02EC01BF0D3
:100B68003750000823248DEC0AF03750000825245C
:100B7800186E375037242B242F6E2F28196E2DC04E
:100B88001AF02EC01BF03950000823248DEC0AF00F
:100B980000D03950375C3850800A2F6E3A50800A9E
:100BA8002F58D8A08FD71200010E97EC0FF0000E27
:100BB800186E960E176E93EC0CF0110E97EC0FF062
:100BC800010E186EF40E176E93EC0CF0B10E97EC44
:100BD8000FF0010E8FEC0FF02C0E8FEC0FF02D0E96
:100BE8008FEC0FF0B20E97EC0FF0010E8FEC0FF0B8
:100BF8002C0E8FEC0FF02D0E8FEC0FF0B30E97EC40
:100C08000FF0010E8FEC0FF02C0E8FEC0FF02D0E65
:100C18008FEC0FF0010E8FEC0FF02C0E8FEC0FF015
:100C28002D0E8FEC0FF0B40E97EC0FF0070E8FEC33
:100C38000FF0C00E97EC0FF0A20E8FEC0FF0020E23
:100C48008FEC0FF0840E8FEC0FF0C10E97EC0FF0C5
:100C5800C50E8FEC0FF0C20E97EC0FF00A0E8FEC5A
:100C68000FF0000E8FEC0FF0C30E97EC0FF08A0E0A
:100C78008FEC0FF02A0E8FEC0FF0C40E97EC0FF0EC
:100C88008A0E8FEC0FF0EE0E8FEC0FF0C50E97EC7E
:100C98000FF00E0E8FEC0FF0200E97EC0FF0360EC3
:100CA80097EC0FF0C80E8FEC0FF03A0E97EC0FF0A0
:100CB800050E8FEC0FF012000001E86FE8C0EEF0AF
:100CC80039C0EDF03AC011F03BC012F0BBEC0DF0AA
:100CD80011C0E9F012C0EAF0000E0001EC6F000E3E
:100CE800EB6F64D06F50D8B434D04050050D00017C
:100CF800EE51416E426AF3504126F450422242BE00
:100D080028D0425004E1810E415CD8A022D0000EC8
:100D18000001EE6F4050070DF3500001ED25030F61
:100D28000001ED6FA00E0001ED6504D0A00E0001DA
:100D3800ED6F00D00001EB513A24D96E0001EC515F
:100D48003B20DA6E200EDE18D8B42CD002D02AD080
:100D580000D0EDC02EF00001EB513A24D96E00010D
:100D6800EC513B20DA6EDF502F6E3CC030F03DC0B6
:100D780031F03EC032F03FC033F040C034F00001E3
:100D8800EE5191EC04F04050060DF3500001EE25B1
:100D98000001EE6F800E0001EE6504D0800E0001A8
:100DA800EE6F00D00001EB4BEC2B00D00001E951B5
:100DB8000001EB5D0001EA510001EC59D8A092D77F
:100DC80012001FC023F0246A256A1E34233601E36B
:100DD80024802350266E2650D8A402D00ED06CD082
:100DE80022C023F0246A256A2134233601E32480B3
:100DF80023502B6E2B50D8A407D0000E1D6E000E6A
:100E08001E6E000E1F6E58D02B507B0F26261FC05B
:100E18002BF022502B1A800E2B161E8E218EFF0EC1
:100E28002016FF0E2116000E2216000E276E000E49
:100E3800286E000E296E070E2A6E00D01DA007D05E
:100E480020502726215028222250292200D0D8902D
:100E58001F321E321D32D8902036213622362A2ED5
:100E6800EDD700D0090E2A6E00D01DA007D0205063
:100E78002726215028222250292200D0D8901F321C
:100E88001E321D32D8902932283227322A2EEDD729
:100E980000D027C011F028C012F029C013F026C0D6
:100EA80014F02BC015F02CEC09F011C01DF012C085
:100EB8001EF013C01FF000D01200E00E97EC0FF0E8
:100EC800020E8FEC0FF01C0E8FEC0FF0070E8FEC5C
:100ED8000FF0120E8FEC0FF0370E8FEC0FF0320E72
:100EE8008FEC0FF0290E8FEC0FF02D0E8FEC0FF01A
:100EF800290E8FEC0FF0250E8FEC0FF02B0E8FECD8
:100F08000FF0390E8FEC0FF0000E8FEC0FF0010E82
:100F18008FEC0FF0030E8FEC0FF0100E8FEC0FF02C
:100F2800E10E97EC0FF0030E8FEC0FF01D0E8FEC17
:100F38000FF0070E8FEC0FF0060E8FEC0FF02E0E51
:100F48008FEC0FF02C0E8FEC0FF0290E8FEC0FF0BA
:100F58002D0E8FEC0FF02E0E8FEC0FF02E0E8FEC67
:100F68000FF0370E8FEC0FF03F0E8FEC0FF0000EE6
:100F78008FEC0FF0000E8FEC0FF0020E8FEC0FF0DD
:100F8800100E8FEC0FF0130E97EC0FF0000E186E8A
:100F98000A0E176E93EC0CF0290E97EC0FF0000E6A
:100FA800186E640E176E93EC0CF0120013C015F057
:100FB800166A176A1234153601E3168015501F6E2B
:100FC8001F50D8A402D039D063D0170E156E11C0A7
:100FD80016F012C017F013C018F01528196E04D0B7
:100FE800D890183217321632192EFAD716501A6EB0
:100FF800128EFF0E1116FF0E1216000E1316115048
:101008001B6E12501C6E13501D6E1E6A8E0E1F5ED4
:101018001FAE10D01F50800A8F0FD8B003D00DD04C
:1010280037D000D0D8901E321D321C321B321F3EE2
:10103800F9D719D0170E1F6411D0000E116E000ECB
:10104800126E000E136E000E146E22D007D0D890C8
:101058001B361C361D361E361F0600D01F50D8B44E
:1010680002D0F5D700D01A50D8B409D01E1E1D1EC4
:101078001C1E1B6C000E1C221D221E2200D01BC031
:1010880011F01CC012F01DC013F01EC014F000D0E7
:1010980012002EC032F0336A346A2D34323601E33E
:1010A80033803250396E3950D8A402D00ED061D076
:1010B80031C032F0336A346A3034323601E3338077
:1010C80032503A6E3A50D8A407D0000E2C6E000E5B
:1010D8002D6E000E2E6E4DD0000E366E000E376E41
:1010E800000E386E3A50890F395E2EC03AF03150F2
:1010F8003A1A800E3A162D8EFF0E2C16FF0E2D165C
:10110800000E2E16308EFF0E2F16FF0E3016000E14
:101118003116180E356E00D0D89036363736383638
:101128002F502C5C30502D5831502E58D8A007D055
:101138002F502C5E30502D5A31502E5A3680D89070
:101148002C362D362E36352EE7D700D036C011F086
:1011580037C012F038C013F039C014F03AC015F097
:101168002CEC09F011C02CF012C02DF013C02EF099
:1011780000D01200236E800E236069D09F0E186481
:1011880001D065D0FF0E1D6EFF0E1E6E195023C0D4
:101198001FF0206A1F26000E20221D501F261E50F9
:1011A800202220BE0AD0205004E1800E1F5CD8A067
:1011B80004D023500008800F196EFF0E1D6EFF0E1D
:1011C8001E6E1A5018C01FF0206A1F26000E20221B
:1011D8001D501F261E50202220BE0BD0205004E197
:1011E800A00E1F5CD8A005D018500008A00F1A6EDA
:1011F80000D018C014F0235019241D6E1D04156E5C
:1012080018501A241E6E1E04166E2350BCEC0CF0E7
:101218001C50216E1BC022F0838E82981AC018F0D1
:101228001850D8B413D001D011D019C023F02350CE
:10123800D8B40AD001D008D021503DEC0FF022508C
:101248003DEC0FF02306F3D71806EAD78288120080
:101258001450D8B405D0115012101310D8A40ED0C1
:10126800000E116E000E126E000E136E53D006D0D3
:10127800142AD89013321232113200D0000E1114F1
:10128800166E000E1214176EFE0E1314186E1650FA
:1012980017101810D8B40ED0EBD70CD0142A010EA2
:1012A8001126000E1222000E1322D8901332123289
:1012B800113200D0000E1114166E000E1214176EA3
:1012C800FF0E1314186E165017101810D8B408D043
:1012D800E5D706D01406D89011361236133600D04A
:1012E80012BE04D0020E1460F5D700D014B002D09C
:1012F800129E00D0D8901432145013121550D8B43E
:1013080002D0138E00D011C011F012C012F013C019
:1013180013F000D01200416E040ECB6E070ECA6E99
:10132800000E206E800E216E400E226E41508EEC13
:101338000EF019C01DF01AC01EF01BC01FF0E5EC1E
:1013480006F01DC02CF01EC02DF01FC02EF0000EA0
:101358002F6EA00E306E410E316E4DEC08F02CC091
:101368003EF02DC03FF02EC040F03EC011F03FC00F
:1013780012F040C013F0DAEC07F011C042F012C0CE
:1013880043F041503B6E3C6A42503B5C3C50800A03
:101398003D6E4350800A3D58D8B003D0424A432A94
:1013A80000D042C03BF0030E3B163B38F00B0C0953
:1013B800BD6E42C03BF043C03CF03C343C323B3253
:1013C8003C343C323B323B50BE6E120051EC0FF0C5
:1013D80065EC0EF0000E256E000E246EF4EC0EF097
:1013E800C90E506E000E516E50C011F051C012F06F
:1013F800F60E136EFF0E146E34EC0EF0020E396EFC
:1014080050C03AF051C03BF0FF0E3D6E3C68000EF4
:101418003F6E000E3E6E010E406E320E60EC06F01E
:1014280005D0530E0001BF6F500E04D0460E0001C8
:10143800BF6F410E0001C06F320E0001C16F340E44
:101448000001C26F330E0001C46F310E0001C66F78
:10145800330E0001C76F960E396EBF0E3A6E000E3E
:101468003B6EFF0E3D6E3C68000E3F6E000E3E6EFA
:10147800010E406E010E60EC06F01200000E166EB2
:1014880014AE07D0136C141ED8B0142A010E166EB1
:1014980000D012AE07D0116C121ED8B0122A010E5D
:1014A800161A00D0000E186E000E176E1350141086
:1014B800D8B421D0010E156E05D0D8901336143645
:1014C800152A00D014BE02D0F8D700D0D89017360D
:1014D80018361350115C14501258D8A006D0135067
:1014E800115E1450125A178000D0D890143213325B
:1014F800152EECD700D01650D8B405D0176C181E8E
:10150800D8B0182A00D017C011F018C012F000D0B7
:101518001200226E800E22603FD09F0E186401D008
:101528003BD0FF0E1C6EFF0E1D6E195018C01EF02A
:101538001F6A1E26000E1F221C501E261D501F2229
:101548001FBE0BD01F5004E1A00E1E5CD8A005D012
:1015580018500008A00F196E00D01B50206E1AC03A
:1015680021F018C014F022C015F0185019241C6E70
:101578001C04166E2250BCEC0CF0838E829807D0A7
:1015880020503DEC0FF021503DEC0FF000D0190633
:101598001928D8A4F5D7828812000600EACF06F0E9
:1015A800E1CF07F0E2CF08F0D9CF09F0DACF0AF09F
:1015B800F3CF0BF0F4CF0CF0F6CF0DF0F7CF0EF021
:1015C800F8CF0FF0F5CF10F09EA003D0ACEC0FF0E1
:1015D80000D0F0A203D0DAEC03F000D010C0F5FF81
:1015E8000FC0F8FF0EC0F7FF0DC0F6FF0CC0F4FFE8
:1015F8000BC0F3FF0AC0DAFF09C0D9FF08C0E2FF39
:1016080007C0E1FF06C0EAFF05C0E9FF04C0FBFF11
:1016180003C0FAFF110000EEC9F01F0EEE6AE806DB
:10162800FDE100EE44F02A0EEE6AE806FDE12E0E1A
:10163800F66E180EF76E000EF86E01EE00F010EE62
:1016480054F00900F5CFEEFFE550E150FAE1A60E9F
:10165800F66E1A0EF76E000EF86E00EE80F010EEC1
:1016680049F00900F5CFEEFFE550E150FAE1BC0E74
:10167800F66E1F0EF76E000EF86E0900F5CF6EF0CD
:101688000900F5CF6FF0000EF86E0001BBEF01F016
:10169800136E000EAC6E000EAB6E13A002D0AC88B9
:1016A80000D013A203D0AC8CAB8C00D013A402D012
:1016B800AC8E00D013A602D0AB8802D0AB8A00D083
:1016C80013B8AC849E9813AA02D0AB8600D013AC92
:1016D80002D09D8A01D09D9A9E9A13AE02D09D8811
:1016E80001D09D9811C0AFFF1250B06EAC8AAB8E7E
:1016F800949C948EACB8ACBE02D0948C00D01200EE
:10170800680E136E000E146E000E636E150E606E7A
:10171800070E5F6E040E5D6E070E5C6E110E616E35
:10172800240E6D6E7EEC0FF013501324F9EC0DF0BF
:101738001450F9EC0DF06350F9EC0DF06050F9EC31
:101748000DF05F50F9EC0DF05D50F9EC0DF05C50C8
:10175800F9EC0DF06150F9EC0DF06D50F9EC0DF06D
:1017680075EC0FF01200680E156E000E146E7EEC0C
:101778000FF015501524F9EC0DF01450F9EC0DF09C
:1017880028EC0FF0D8801534F9EC0DF0010E78EC48
:101798000DF0636E010E78EC0DF0606E010E78ECC2
:1017A8000DF05F6E010E78EC0DF05D6E010E78ECB9
:1017B8000DF05C6E010E78EC0DF0616E000E78ECA9
:1017C8000DF06D6E75EC0FF01200000E176E000E26
:1017D800166E13501410D8B421D0010E156E05D012
:1017E800D89013361436152A00D014BE02D0F8D774
:1017F80000D0D890163617361350115C1450125872
:10180800D8A006D01350115E1450125A168000D07A
:10181800D89014321332152EECD700D016C011F020
:1018280017C012F0120043482D00434800004348F7
:101838002B004257440046574400504C5900564C20
:101848002D00564C2B00455120002030200031300F
:101858003000323030002031200020322000203388
:10186800200020342000203520002036200020379A
:10187800200020382000203920003F5000083D2457
:10188800186ED8803F34196E41C01AF042C01BF060
:101898003B508DEC0AF03BC023F03CC024F03DC027
:1018A80025F03EC026F03FC027F040C028F0000ECB
:1018B8002A6E030E296E000E2C6E000E2B6E41C090
:1018C8002DF042C02EF03CEC05F0120019C011F0CA
:1018D8001AC012F0010E146EF40E136E42EC0AF0E8
:1018E800010E11241B6E000E12201C6E1CBE0BD0A4
:1018F8001C5004E1080E1B5CD8A005D0000E1C6E1D
:10190800070E1B6E00D019501A10D8A405D0000E6F
:101918001C6E000E1B6E00D01BC084FF120017C087
:1019280011F018C012F0000E146EFA0E136E7AEC55
:101938000EF011C01BF012C01CF01BC019F01CC027
:101948001AF0191E1A1E194A1A2AFF0E19241B6E9C
:10195800FF0E1A201C6EB80EB16E1BC0D6FF1C50AD
:10196800D76EA192B18000D0A1A2FED7B19012008B
:10197800176E2A0E97EC0FF0000E8FEC0FF0175031
:101988005B248FEC0FF0000E8FEC0FF015505B24EA
:101998008FEC0FF02B0E97EC0FF0000E8FEC0FF082
:1019A800145062248FEC0FF0000E8FEC0FF01650DD
:1019B80062248FEC0FF02C0E97EC0FF012001A50E7
:1019C8001B10D8B41DD0010E1C6E05D0D8901A3645
:1019D8001B361C2A00D01BBE02D0F8D700D01A50E4
:1019E800185C1B501958D8A005D01A50185E1B5007
:1019F800195A00D0D8901B321A321C2EF0D700D0BA
:101A080018C018F019C019F0120019C011F01AC046
:101A180012F0000E146E0A0E136E42EC0AF011C09A
:101A28001CF012C01DF01DBE0BD01D5004E1080EA5
:101A38001C5CD8A005D0000E1D6E070E1C6E00D0D1
:101A48001CC01BF01B3AF00E1B1683508F0B1B108B
:101A5800836E12002B6E2BC02CF02D6A0ED023C083
:101A680018F025C019F026C01AF027C01BF02C501A
:101A78008DEC0AF02C4A2D2A00D024502BC028F0D7
:101A8800296A2826000E292228502C5C2D50800A0D
:101A98002A6E2950800A2A58D8A0E1D7120000F8E7
:101AA80000F800F81F001F00E0071F001F001FF8C4
:101AB800000000000000000000000000000000001E
:101AC8000000000000000000A262E22202C2E0A8BA
:101AD800906898B030187A10385A424A52535032A7
:101AE800342F332F30310000116ED3EC0FF0000E7D
:101AF800126E070E126401D00FD0A6EC0FF081AA67
:101B080003D0D880133604D013501324136E00D09A
:101B1800CFEC0FF0122AEDD71150D8B403D06CECEB
:101B28000FF003D0C1EC0FF000D0135000D012001A
:101B3800B2CF11F0126A000E146E020E136E42EC50
:101B48000AF011C01BF012C01CF0000EB26E1BC0D0
:101B580011F01CC012F0000E146E3C0E136E7AECDD
:101B68000EF011C019F012C01AF000D0120011C006
:101B780015F012C016F003D0154A162A00D015C069
:101B8800D9FF16C0DAFFDF50D8A4F6D711C013F07A
:101B980012C014F0131E141E134A142A15501324CD
:101BA800116E16501420126E00D012002A0E97ECF7
:101BB8000FF0000E8FEC0FF0000E8FEC0FF0000E00
:101BC8008FEC0FF07F0E8FEC0FF02B0E97EC0FF0D1
:101BD800000E8FEC0FF0000E8FEC0FF0000E8FEC64
:101BE8000FF09F0E8FEC0FF01200116E000E126EA8
:101BF800070E126401D011D011AE03D0D3EC0FF050
:101C080003D0C6EC0FF000D0A6EC0FF0CFEC0FF02D
:101C180011501124116E122AEBD7D3EC0FF0A6EC59
:101C28000FF0CFEC0FF01200480E166EAA0E146ECD
:101C38007EEC0FF016501624F9EC0DF01450F9EC68
:101C48000DF028EC0FF0D8801634F9EC0DF0000EEA
:101C580078EC0DF0156E75EC0FF0155000D01200F1
:101C680011C015F012C016F005D0154A162A134AED
:101C7800142A00D013C0F6FF14C0F7FF15C0D9FF0F
:101C880016C0DAFF0800F5CFDFFFDF50D8A4EDD784
:101C980012001B6E800E1B6013D09F0E186401D0BB
:101CA8000FD018C014F01B28156E1828166E1B507C
:101CB800BCEC0CF01A508FEC0FF019508FEC0FF0B1
:101CC80012008288839E800EC76E300EC66ED8ECD6
:101CD80005F0DAEC0DF061EC07F0360E97EC0FF03A
:101CE800C00E8FEC0FF0010E556E1200115013024A
:101CF800F3CF15F0F4CF16F011501402F350162656
:101D080012501302F350162615C011F016C012F027
:101D180000D012001C6E1C50116E126A136A8E0ECF
:101D2800146E000E156E2CEC09F011C019F012C0DB
:101D38001AF013C01BF000D01200640E5E18D8A46D
:101D480006D05AEC0FF05E508FEC09F007D05E50C9
:101D5800050F5E6E5E508FEC09F000D01200136E16
:101D6800000E126E3A0E136006D02F0E136403D0C5
:101D7800010E126E00D012C011F0113000D0120006
:101D88005E50D8A406D05AEC0FF05E508FEC09F0E4
:101D980007D05E50FB0F5E6E5E508FEC09F000D0EE
:101DA8001200156E7EEC0FF015501524F9EC0DF0AD
:101DB8001350F9EC0DF01450F9EC0DF075EC0FF030
:101DC8001200480E166EAC0E136E020E146E1650EC
:101DD800D5EC0EF0EE0E136E16500FEC0FF012004D
:101DE800000E186E800E196EA00E1A6E24C01BF01D
:101DF80025C01CF0000EBEEC08F01200030ED56ED4
:101E0800DB0ED66E0B0ED76EF294D58E00D0F2A4F0
:101E1800FED7D59E1200146E7EEC0FF014501424D9
:101E2800F9EC0DF01350F9EC0DF075EC0FF0120011
:101E3800F092F198F088000ECF6E000ECE6E9E9054
:101E48009D80F28CF28E1200CFEC0FF0D3EC0FF0E5
:101E5800A6EC0FF0C6EC0FF0CFEC0FF01200520416
:101E6800D8A403D0B2EC0FF003D087EC0FF000D069
:101E78001200126E9E96C9CF11F012C0C9FF00D091
:101E8800C7A0FED71200000E126E190E116E3C0E7E
:101E98004CEC0BF0700ED36E12008390000E186E8F
:101EA800640E176E93EC0CF08380120063EC0FF055
:101EB800BCEC0FF0CBEC0FF0BCEC0FF01200F90EFD
:101EC800CB6E050ECA6E4A0EBB6E3C0EBA6E120081
:101ED800C6EC0FF0A6EC0FF0CFEC0FF0D3EC0FF040
:101EE8001200CFEC0FF0C6EC0FF0A6EC0FF0D3EC1D
:101EF8000FF01200D3EC0FF0A6EC0FF0C6EC0FF0C9
:101F0800CFEC0FF01200010E526E5E508FEC09F00C
:101F1800838283841200136E8298838E13503DEC63
:101F28000FF082881200136E8298839E13503DEC46
:101F38000FF082881200116E00D0ACA2FED711C03B
:101F4800ADFF12009388060EE82EFED700D01200CF
:101F5800000E546EF198CD909E901200000E526EB5
:101F6800839283941200A6EC0FF0D3EC0FF01200CA
:101F780002EC0FF002EC0FF01200A6EC0FF0CFEC21
:101F88000FF01200819A939A00D000D01200000E30
:101F9800BA6E829212008198939800D01200938AA8
:101FA80000D000D01200000E546ECD901200F088C0
:061FB800F1981200FF0188
:10FD720000000000000000005F0000000700070014
:10FD8200147F147F14242A7F2A12231308646236F4
:10FD9200495620500008070300001C224100004180
:10FDA200221C002A1C7F1C2A08083E0808008070BA
:10FDB20030000808080808000060600020100804ED
:10FDC200023E5149453E00427F4000724949494640
:10FDD2002141494D331814127F1027454545393CBE
:10FDE2004A494931412111090736494949364649AB
:10FDF20049291E00001400000040340000000814CD
:10FE02002241141414141400412214080201590945
:10FE1200063E415D594E7C1211127C7F494949369A
:10FE22003E414141227F4141413E7F494949417F13
:10FE3200090909013E414151737F0808087F0041C9
:10FE42007F41002040413F017F081422417F404012
:10FE520040407F021C027F7F0408107F3E414141E7
:10FE62003E7F090909063E4151215E7F0919294653
:10FE7200264949493203017F01033F4040403F1F69
:10FE82002040201F3F4038403F631408146303049E
:10FE92007804036159494D43007F414141020408FE
:10FEA2001020004141417F040201020440404040D1
:10FEB20040000307080020545478407F2844443807
:10FEC2003844444428384444287F38545454180051
:10FED200087E090218A4A49C787F080404780044D0
:10FEE2007D40002040403D007F1028440000417FBB
:10FEF20040007C047804787C080404783844444444
:10FF020038FC1824241818242418FC7C080404083B
:10FF1200485454542404043F44243C4040207C1C54
:10FF22002040201C3C4030403C44281028444C9047
:10FF320090907C4464544C440008364100000077A1
:10FF420000000041360800020102040201000A001A
:10FF52006400E80310270100100000010010205483
:10FF6200656D7065726174757265203D202564202F
:10FF72006465677265657343203D2025642064656E
:10FF82006772656573460D0A00253032783A25306E
:10FF920032783A2530327820253032782F253032A7
:10FFA200782F25303278004B6579204C6F6361746D
:10FFB200696F6E203D202564200D0A0A004E4543DC
:10FFC2005F427574746F6E203D202578200D0A0003
:10FFD20052504D203D202564206463203D2025643D
:10FFE2000D0A0030313233343536373839616263C5
:0EFFF200646566004C41422031312000000061
:020000040030CA
:04000000FF08191EBE
:0200060081FF78
:00000001FF
