:040000000CEF00F011
:10000800FACF03F0FBCF04F0E9CF05F0F5ED07F0E8
:10001800B4EF07F079EC0AF0700ED36EF19E040E7F
:10002800936E000E946E000E956E0F0EC16E000E4C
:10003800926E000E966E16EC07F063EC0AF0000E56
:100048005D6E000E5E6E000E5F6E000E606E00D07C
:10005800B7EC0AF061046210D8A4FAD7000E626EF9
:10006800000E616EBFEC0AF0D20E1D6EFF0E1E6E02
:1000780069C01FF0206A3DEC01F00001D969000E4B
:100088000001D86F140E0001D86501D013D000010B
:10009800D851010D3D0EF324D96E000EF420DA6E0E
:1000A8006950DE18D8A403D0D8C0D9F000D0000118
:1000B800D82BE8D70001D929D8B4CAD7BC0E1D6EF1
:1000C800FF0E1E6ED9C01FF0206A3DEC01F0000E35
:1000D8000001CA6F3C0EC96F000E0001CC6F500EB4
:1000E800CB6F000E0001CE6F140ECD6F0001D951F9
:1000F800020D800EF324D96E000EF420DA6EDECFE6
:10010800CFF0DDCFD0F099EC08F0000E1D6E3C0E5C
:100118001C6E000E1F6E500E1E6E000E216E140E09
:10012800206EFF0E236E226846EC02F04D0E000191
:10013800C96F0001D951040D000EF3240001CA6FE4
:10014800010EF4200001CB6FFF0E0001CD6FCC69CA
:10015800000E0001CF6F000ECE6F010E0001D06FB0
:10016800340E1BEC05F00001D951020D800EF3246A
:10017800D96E000EF420DA6EDE500EE1F80EDE18AD
:10018800D8A40AD08392839483968490849284948A
:100198008388839A839C00D00001D951020D800E78
:1001A800F324D96E000EF420DA6E1F0EDE18DE106E
:1001B800D8A40AD08392839483968490849284846A
:1001C8008398839A839C00D00001D951020D800E38
:1001D800F324D96E000EF420DA6EE00EDE180EE17C
:1001E800070EDE18D8A40AD083928394839684904D
:1001F800848284948398839A839C00D00001D95187
:10020800020D800EF324D96E000EF420DA6E1F0E54
:10021800DE180EE1F80EDE18D8A40AD08392839473
:1002280083968480849284848398839A839C00D064
:100238000001D951020D800EF324D96E000EF4206E
:10024800DA6EDE50DE10D8A409D0838283848386D8
:100258008490849284948398839A839C82808CEC83
:100268000AF0B2EC0AF0B7EC0AF08290F1D60CEF83
:1002780000F01F0E236E000E246EF5D0250E2918EF
:10028800D8B404D02950A5EC0AF0EDD0000E266EA3
:1002980006D0F7D01BD0268E19D0E5D017D01DC0B8
:1002A800F6FF1EC0F7FF1D4A1E2A0800F5CF29F0E9
:1002B8002950000AD8B4E5D0640AD8B407D00D0A8A
:1002C800D8B404D0110AD8B4E6D7CDD026BE15D0FC
:1002D80023C0D9FF24C0DAFFDECF27F0DDCF28F016
:1002E800020E2326000E242228AE4ED0030E26121C
:1002F800276C281ED8B0282A47D023C0D9FF24C08D
:10030800DAFFDECF27F0DDCF28F0020E2326000E1D
:1003180024223AD0010E296E050E2918D8B43DD0F2
:1003280001D03BD02950020DAA0EF324F66EFF0E21
:10033800F420F76E0900F550275C0900F55028589D
:10034800D8A02BD001D029D0292AE6D726D0010E53
:10035800296E040E2918D8B420D001D01ED02950F7
:10036800020DB40EF324F66EFF0EF420F76E0900AA
:10037800F550275C0900F5502858D8A00ED001D0B8
:100388000CD0292AE6D709D02650800B000AD8B409
:10039800C1D7800AD8B4DBD700D026C021F0030E1D
:1003A8002116D8B404D02D0EA5EC0AF000D029C02F
:1003B80025F053D045D02550020DAA0EF324F66E31
:1003C800FF0EF420F76E0900F5CF13F00A00F5CF01
:1003D80014F027C011F028C012F06BEC08F011C01F
:1003E80018F012C019F0000E1B6E0A0E1A6E40ECBF
:1003F80009F01850300F296E2CD027C011F028C0F2
:1004080012F02550020DB40EF324F66EFF0EF42000
:10041800F76E0900F5CF13F00A00F5CF14F06BEC76
:1004280008F011500F0B226E2250010DE50EF32437
:10043800F66EFF0EF420F76E0800F5CF29F009D00C
:100448002650800B000AD8B4B6D7800AD8B4D5D7BE
:1004580000D02950A5EC0AF000D025062528D8B4EC
:1004680002D0EED700D01DC0F6FF1EC0F7FF1D4A10
:100478001E2A0800F5CF29F02950D8B402D0FED69C
:1004880000D0120020C024F021C025F0241E251E13
:10049800244A252A010E24242A6E000E25202B6EBC
:1004A800000E276E010E266E20C024F021C025F014
:1004B800D89024362536241E251E244A252A24C0F1
:1004C80028F025C029F0000E2D6E000E2C6E20C0DD
:1004D8002EF021C02FF01E502024186E22C019F0D3
:1004E80023C01AF01C50E2EC09F0205000081E242A
:1004F800186E22C019F023C01AF01C50E2EC09F063
:100508001EC018F022C019F023C01AF01C50202475
:10051800E2EC09F01EC018F022C019F023C01AF04E
:10052800205000081C24E2EC09F078D02BBE0BD038
:100538002E06D8A02F06020E2826000E29222850A3
:100548002A2629502B222C4A2D2A020E2626000E56
:10055800272226502A2627502B221E502E24186E7A
:1005680022C019F023C01AF01C502C24E2EC09F028
:100578001E502E24186E22C019F023C01AF02C50D9
:1005880000081C24E2EC09F02E5000081E24186E06
:1005980022C019F023C01AF01C502C24E2EC09F0F8
:1005A8002E5000081E24186E22C019F023C01AF01D
:1005B8002C5000081C24E2EC09F01E502C24186E64
:1005C80022C019F023C01AF01C502E24E2EC09F0C6
:1005D8001E502C24186E22C019F023C01AF02E5079
:1005E80000081C24E2EC09F02C5000081E24186EA8
:1005F80022C019F023C01AF01C502E24E2EC09F096
:100608002C5000081E24186E22C019F023C01AF0BE
:100618002E5000081C24E2EC09F000D02E502C5C6F
:100628002D50800A246E2F50800A2458D8A07ED7D7
:100638001200F0926A50D8B4A1D0CE50CFCF01F0BA
:10064800026A01C002F0016A0110636E0250646E12
:10065800000ECF6E000ECE6E91D0000ECF6E000E43
:10066800CE6E9E90900ECD6ECD80000E6C6E000EFC
:100678005D6E000E5E6E000E5F6E000E606E010E07
:100688006A6EF1886AC080FF8AD0350E635C210EDD
:100698006458D8A009D01C0E635C250E6458D8B0E5
:1006A80003D0020E6A6E27D0BBEC0AF02AD029D0FC
:1006B80076D0A10E635C0F0E6458D8A009D0880EBE
:1006C800635C130E6458D8B003D0030E6A6E4ED024
:1006D800BBEC0AF051D050D062D0910E635C010E91
:1006E8006458D8A00BD0BC0E635C020E6458D8B016
:1006F80005D0040ED7D76AC080FF03D0BBEC0AF040
:1007080000D0F1984CD0910E635C010E6458D8A0CB
:1007180030D0080E635C070E6458D8B02AD0D89041
:100728005D345D6E5E345E6E5F345F6E6034606E45
:10073800E90E635C030E6458D8A007D0010E5D264D
:10074800000E5E225F22602200D06C2A1F0E6C64AD
:10075800BCD75EC069F0000E6A6E6AC080FF000EEA
:10076800626E010E616EF09807D0AFD76AC080FF45
:1007780003D0BBEC0AF000D0F18811D06A50000A0F
:10078800D8B46BD7010AD8B480D7030AD8B491D7A4
:10079800010AD8B4A2D7070AD8B4B5D700D0120036
:1007A800366E800E3660A6D09F0E2E6401D0A2D081
:1007B8003450D8A403D0010E346E00D01F0E2F641D
:1007C80004D07E0E2F6403D000D03F0E2F6E000E93
:1007D800386E040E386401D08DD0530E2F6015D0BA
:1007E800E00E2F24116E126AFF0E1222000E146EF4
:1007F800050E136E24EC0AF038501126000E122252
:10080800CF0E1124F66EFD0E14D0AD0E2F24116EEE
:10081800126AFF0E1222000E146E050E136E24ECDF
:100828000AF038501126000E1222CE0E1124F66E50
:10083800FE0E1220F76E0800F5CF35F000D0000E3E
:10084800376E060E376401D053D035A023D0340458
:10085800D8A40CD02E503724186E30C019F031C0EF
:100868001AF036503824E2EC09F03ED03750340202
:10087800F3502E24236E34C024F034C025F030C049
:1008880026F031C027F038503402F350362466EC95
:1008980009F02AD03050321804E131503318D8B456
:1008A80023D03404D8A40CD02E503724186E32C06C
:1008B80019F033C01AF036503824E2EC09F014D09D
:1008C80037503402F3502E24236E34C024F034C041
:1008D80025F032C026F033C027F038503402F350E8
:1008E800362466EC09F000D0372AD8903532A9D7DB
:1008F800382A6FD7120027C02FF028C030F02F1EDB
:10090800301E2F4A302A010E2F24356E000E30205B
:10091800366E000E326E010E316E27C02FF028C0E1
:1009280030F0D8902F3630362F1E301E2F4A302AFE
:100938002FC033F030C034F0000E386E000E376E22
:1009480027C039F028C03AF067D036BE0BD0390638
:10095800D8A03A06020E3326000E3422335035262C
:1009680034503622374A382A020E3126000E3222F7
:10097800315035263250362229A025D0395000086A
:100988002524186E395039242B242F6E2F28196EE0
:100998002DC01AF02EC01BF02350372470EC07F03E
:1009A800375000082524186E375037242B242F6E13
:1009B8002F28196E2DC01AF02EC01BF02350392491
:1009C80070EC07F000D029A227D039500008252460
:1009D800186E395039242B242F6E2F28196E2DC0EC
:1009E8001AF02EC01BF037500008232470EC07F0D3
:1009F800375000082524186E375037242B242F6EC3
:100A08002F28196E2DC01AF02EC01BF0395000087F
:100A1800232470EC07F000D03950375C3850800A36
:100A28002F6E3A50800A2F58D8A08FD71200000195
:100A3800D16FD1C0D7F0C9C0D6F0CAC011F0CBC0B1
:100A480012F08BEC09F011C0D2F012C0D3F0000EF6
:100A58000001D56F000ED46F6BD05250D8B438D087
:100A68000001D051050D0001D751396E3A6AF35093
:100A78003926F4503A223ABE2BD03A5004E1810E7E
:100A8800395CD8A025D0000E0001D76F0001D051E5
:100A9800070DF3500001D625030F0001D66FA00EF5
:100AA8000001D66504D0A00E0001D66F00D0000169
:100AB800D4510001CA25D96E0001D5510001CB21BE
:100AC800DA6E200EDE18D8B42FD002D02DD000D088
:100AD800D6C02EF00001D4510001CA25D96E0001FC
:100AE800D5510001CB21DA6EDF502F6ECCC030F02B
:100AF800CDC031F0CEC032F0CFC033F0D0C034F02A
:100B08000001D751D4EC03F00001D051060DF35089
:100B18000001D7250001D76F800E0001D76504D0EA
:100B2800800E0001D76F00D00001D44BD52B00D028
:100B38000001D2510001D45D0001D3510001D55903
:100B4800D8A08BD71200010E9DEC0AF0000E186E8B
:100B5800960E176EF0EC08F0110E9DEC0AF0010EDF
:100B6800186EF40E176EF0EC08F0B10E9DEC0AF05A
:100B7800010E95EC0AF02C0E95EC0AF02D0E95EC72
:100B88000AF0B20E9DEC0AF0010E95EC0AF02C0E5C
:100B980095EC0AF02D0E95EC0AF0B30E9DEC0AF0D8
:100BA800010E95EC0AF02C0E95EC0AF02D0E95EC42
:100BB8000AF0010E95EC0AF02C0E95EC0AF02D0EB9
:100BC80095EC0AF0B40E9DEC0AF0070E95EC0AF0CD
:100BD800C00E9DEC0AF0A20E95EC0AF0020E95EC00
:100BE8000AF0840E95EC0AF0C10E9DEC0AF0C50ED1
:100BF80095EC0AF0C20E9DEC0AF00A0E95EC0AF08C
:100C0800000E95EC0AF0C30E9DEC0AF08A0E95ECE6
:100C18000AF02A0E95EC0AF0C40E9DEC0AF08A0E32
:100C280095EC0AF0EE0E95EC0AF0C50E9DEC0AF074
:100C38000E0E95EC0AF0200E9DEC0AF0360E9DEC97
:100C48000AF0C80E95EC0AF03A0E9DEC0AF0050E73
:100C580095EC0AF01200E00E9DEC0AF0020E95ECFD
:100C68000AF01C0E95EC0AF0070E95EC0AF0120E2D
:100C780095EC0AF0370E95EC0AF0320E95EC0AF076
:100C8800290E95EC0AF02D0E95EC0AF0290E95EC3C
:100C98000AF0250E95EC0AF02B0E95EC0AF0390EA9
:100CA80095EC0AF0000E95EC0AF0010E95EC0AF0AE
:100CB800030E95EC0AF0100E95EC0AF0E10E9DEC8F
:100CC8000AF0030E95EC0AF01D0E95EC0AF0070EDB
:100CD80095EC0AF0060E95EC0AF02E0E95EC0AF04B
:100CE8002C0E95EC0AF0290E95EC0AF02D0E95ECD9
:100CF8000AF02E0E95EC0AF02E0E95EC0AF0370E3F
:100D080095EC0AF03F0E95EC0AF0000E95EC0AF00F
:100D1800000E95EC0AF0020E95EC0AF0100E95EC18
:100D28000AF0130E9DEC0AF0000E186E0A0E176EEC
:100D3800F0EC08F0290E9DEC0AF0000E186E640E17
:100D4800176EF0EC08F01200236E800E236069D055
:100D58009F0E186401D065D0FF0E1D6EFF0E1E6E2B
:100D6800195023C01FF0206A1F26000E20221D5094
:100D78001F261E50202220BE0AD0205004E1800EDB
:100D88001F5CD8A004D023500008800F196EFF0EF6
:100D98001D6EFF0E1E6E1A5018C01FF0206A1F2607
:100DA800000E20221D501F261E50202220BE0BD0D0
:100DB800205004E1A00E1F5CD8A005D018500008F0
:100DC800A00F1A6E00D018C014F0235019241D6EFD
:100DD8001D04156E18501A241E6E1E04166E23501C
:100DE80019EC09F01C50216E1BC022F082848298F5
:100DF8001AC018F01850D8B413D001D011D019C0A7
:100E080023F02350D8B40AD001D008D021506FEC79
:100E18000AF022506FEC0AF02306F3D71806EAD737
:100E28008288120083EC0AF00FEC0AF0000E256E9F
:100E3800000E246E48EC0AF0AA0E676E000E686E6B
:100E480067C011F068C012F0F60E136EFF0E146E34
:100E5800C9EC09F0020E0001C96F67C0CAF068C08A
:100E6800CBF0FF0E0001CD6FCC69000E0001CF6FF3
:100E7800000ECE6F010E0001D06F320E1BEC05F094
:100E880004D0530E536E500E03D0460E536E410ECF
:100E9800546E320E556E340E566E330E586E310E39
:100EA8005A6E330E5B6E960E0001C96F530E000129
:100EB800CA6F000E0001CB6FFF0E0001CD6FCC6929
:100EC800000E0001CF6F000ECE6F010E0001D06F33
:100ED800010E1BEC05F01200226E800E22603FD03E
:100EE8009F0E186401D03BD0FF0E1C6EFF0E1D6EC6
:100EF800195018C01EF01F6A1E26000E1F221C5013
:100F08001E261D501F221FBE0BD01F5004E1A00E2D
:100F18001E5CD8A005D018500008A00F196E00D08C
:100F28001B50206E1AC021F018C014F022C015F012
:100F3800185019241C6E1C04166E225019EC09F066
:100F48008284829807D020506FEC0AF021506FEC11
:100F58000AF000D019061928D8A4F5D782881200FB
:100F680000EEAAF01F0EEE6AE806FDE100EE5DF065
:100F7800120EEE6AE806FDE18C0EF66E110EF76EA3
:100F8800000EF86E01EE00F010EE54F00900F5CFF7
:100F9800EEFFE550E150FAE1F40EF66E130EF76E2F
:100FA800000EF86E00EE80F010EE2AF00900F5CF82
:100FB800EEFFE550E150FAE1700EF66E140EF76E92
:100FC800000EF86E00EE3DF010EE20F00900F5CFAF
:100FD800EEFFE550E150FAE1000EF86E00010EEF69
:100FE80000F00600EACF06F0E1CF07F0E2CF08F004
:100FF800D9CF09F0DACF0AF0F3CF0BF0F4CF0CF029
:10100800F6CF0DF0F7CF0EF0F8CF0FF0F5CF10F0C8
:101018009EA003D0ACEC0AF000D0F0A203D01DECE7
:1010280003F000D010C0F5FF0FC0F8FF0EC0F7FFA7
:101038000DC0F6FF0CC0F4FF0BC0F3FF0AC0DAFFC7
:1010480009C0D9FF08C0E2FF07C0E1FF06C0EAFFF8
:1010580005C0E9FF04C0FBFF03C0FAFF1100136ECF
:10106800000EAC6E000EAB6E13A002D0AC8800D0A0
:1010780013A203D0AC8CAB8C00D013A402D0AC8EDE
:1010880000D013A602D0AB8802D0AB8A00D013B828
:10109800AC849E9813AA02D0AB8600D013AC02D0C1
:1010A8009D8A01D09D9A9E9A13AE02D09D8801D048
:1010B8009D9811C0AFFF1250B06EAC8AAB8E949C55
:1010C800948EACB8ACBE02D0948C00D01200000E46
:1010D800176E000E166E13501410D8B421D0010EDE
:1010E800156E05D0D89013361436152A00D014BEC4
:1010F80002D0F8D700D0D890163617361350115CA6
:1011080014501258D8A006D01350115E1450125A19
:10111800168000D0D89014321332152EECD700D098
:1011280016C011F017C012F012000001CD510008CE
:101138000001CB25186ED8800001CD35196ECFC0BF
:101148001AF0D0C01BF00001C95170EC07F0C9C0FB
:1011580023F0CAC024F0CBC025F0CCC026F0CDC007
:1011680027F0CEC028F0000E2A6E030E296E000E5E
:101178002C6E000E2B6ECFC02DF0D0C02EF07FEC61
:1011880004F0120043482D004348000043482B0058
:101198004257440046574400504C5900564C2D00C5
:1011A800564C2B00455120002030200031303000B3
:1011B800323030002031200020322000203320003F
:1011C8002034200020352000203620002037200041
:1011D800203820002039200017C011F018C012F064
:1011E800000E146EFA0E136E24EC0AF011C01BF0F8
:1011F80012C01CF01BC019F01CC01AF0191E1A1ED0
:10120800194A1A2AFF0E19241B6EFF0E1A201C6E8B
:10121800B80EB16E1BC0D6FF1C50D76EA192B1801C
:1012280000D0A1A2FED7B1901200176E2A0E9DEC35
:101238000AF0000E95EC0AF017506D2495EC0AF0B0
:10124800000E95EC0AF015506D2495EC0AF02B0E63
:101258009DEC0AF0000E95EC0AF014506E2495EC03
:101268000AF0000E95EC0AF016506E2495EC0AF080
:101278002C0E9DEC0AF012001A501B10D8B41DD089
:10128800010E1C6E05D0D8901A361B361C2A00D0C9
:101298001BBE02D0F8D700D01A50185C1B50195842
:1012A800D8A005D01A50185E1B50195A00D0D890F3
:1012B8001B321A321C2EF0D700D018C018F019C0F3
:1012C80019F012002B6E2BC02CF02D6A0ED023C003
:1012D80018F025C019F026C01AF027C01BF02C50B2
:1012E80070EC07F02C4A2D2A00D024502BC028F08F
:1012F800296A2826000E292228502C5C2D50800AA5
:101308002A6E2950800A2A58D8A0E1D7120011C0A5
:1013180015F012C016F003D0154A162A00D015C0D1
:10132800D9FF16C0DAFFDF50D8A4F6D711C013F0E2
:1013380012C014F0131E141E134A142A1550132435
:10134800116E16501420126E00D012002A0E9DEC59
:101358000AF0000E95EC0AF0000E95EC0AF0000E6B
:1013680095EC0AF07F0E95EC0AF02B0E9DEC0AF036
:10137800000E95EC0AF0000E95EC0AF0000E95ECC4
:101388000AF09F0E95EC0AF0120011C015F012C079
:1013980016F005D0154A162A134A142A00D013C08D
:1013A800F6FF14C0F7FF15C0D9FF16C0DAFF080012
:1013B800F5CFDFFFDF50D8A4EDD712001B6E800EEB
:1013C8001B6013D09F0E186401D00FD018C014F002
:1013D8001B28156E1828166E1B5019EC09F01A50A8
:1013E80095EC0AF0195095EC0AF0120000F800F894
:1013F80000F81F001F00E0071F001F001FF8000073
:1014080000000000000000000000000000000000D4
:1014180000000000000082888294800EC76E300EA3
:10142800C66EA7EC05F0AAEC09F02FEC06F0360E14
:101438009DEC0AF0C00E95EC0AF0010E6B6E1200DE
:1014480011501302F3CF15F0F4CF16F01150140217
:10145800F350162612501302F350162615C011F039
:1014680016C012F000D01200A262E22202C2E0A866
:10147800906898B030187A10385A424A520153503E
:1014880032342F332F303100000E186E800E196E53
:10149800A00E1A6E24C01BF025C01CF0000EA8EC8C
:1014A80006F01200030ED56EDB0ED66E0B0ED76E4D
:1014B800F294D58E00D0F2A4FED7D59E1200F092F9
:1014C800F198F088000ECF6E000ECE6E9E909D8033
:1014D800F28CF28E1200126E9E96C9CF11F012C0D5
:1014E800C9FF00D0C7A0FED71200000E126E190E59
:1014F800116E3C0E33EC08F0700ED36E1200839020
:10150800000E186E640E176EF0EC08F0838012005F
:10151800F90ECB6E050ECA6E4A0EBB6E3C0EBA6E45
:101528001200136E8298828413506FEC0AF082883E
:101538001200136E8298829413506FEC0AF082881E
:101548001200116E00D0ACA2FED711C0ADFF120080
:10155800000E6A6EF198CD909E90120056EC0AF03B
:1015680056EC0AF01200000EBA6E82921200000EBB
:0C1578006A6ECD901200F088F19812000D
:10FDCE0000000000000000005F00000007000700B8
:10FDDE00147F147F14242A7F2A1223130864623698
:10FDEE00495620500008070300001C224100004124
:10FDFE00221C002A1C7F1C2A08083E08080080705E
:10FE0E003000080808080800006060002010080490
:10FE1E00023E5149453E00427F40007249494946E3
:10FE2E002141494D331814127F1027454545393C61
:10FE3E004A4949314121110907364949493646494E
:10FE4E0049291E0000140000004034000000081470
:10FE5E0022411414141414004122140802015909E9
:10FE6E00063E415D594E7C1211127C7F494949363E
:10FE7E003E414141227F4141413E7F494949417FB7
:10FE8E00090909013E414151737F0808087F00416D
:10FE9E007F41002040413F017F081422417F4040B6
:10FEAE0040407F021C027F7F0408107F3E4141418B
:10FEBE003E7F090909063E4151215E7F09192946F7
:10FECE00264949493203017F01033F4040403F1F0D
:10FEDE002040201F3F4038403F6314081463030442
:10FEEE007804036159494D43007F414141020408A2
:10FEFE001020004141417F04020102044040404075
:10FF0E0040000307080020545478407F28444438AA
:10FF1E003844444428384444287F385454541800F4
:10FF2E00087E090218A4A49C787F08040478004473
:10FF3E007D40002040403D007F1028440000417F5E
:10FF4E0040007C047804787C0804047838444444E7
:10FF5E0038FC1824241818242418FC7C08040408DF
:10FF6E00485454542404043F44243C4040207C1CF8
:10FF7E002040201C3C4030403C44281028444C90EB
:10FF8E0090907C4464544C44000836410000007745
:10FF9E0000000041360800020102040201000A00BE
:10FFAE006400E803102701001000000100104B65EB
:10FFBE0079204C6F636174696F6E203D202564203B
:10FFCE000D0A0A004E45435F427574746F6E203DF4
:10FFDE00202578200D0A003031323334353637384B
:10FFEE0039616263646566004C4142203130200005
:02FFFE00000001
:020000040020DA
:08000000FFFFFFFFFFFFFFFF00
:020000040030CA
:0E000000FF08191EFF8381FF0FC00FE00F40A5
:00000001FF
