:04000000BEEF7FF0E0
:10FF48000601020304000507020304050006070171
:10FF5800000E126E000E116E12BE08D0D80E115C83
:10FF6800450E1258D8B005D001D003D0114A122A34
:10FF7800F3D71200480EF66EFF0EF76E000EF86EFD
:10FF880000EE01F010EE10F00900F5CFEEFFE5509D
:10FF9800E150FAE10001D1EF7FF09268000E936E14
:10FFA800000E946E000E956E0F0EC16E000E146E4C
:10FFB800070E146401D0FAD71450010D010EF32472
:10FFC800D96E000EF420DA6EDF50816E1450010DE8
:10FFD800090EF324D96E000EF420DA6EDF50136E8A
:10FFE800D8901336D8901334836EACEC7FF0142A73
:08FFF800DFD7DCD700EF00F0B9
:020000040030CA
:04000000FF08191EBE
:0200060081FF78
:00000001FF
