:040000008FEF14F07A
:1010000000010000000A00000064000000E8030086
:101010000010270000A086010040420F0080969833
:101020000000E1F50500CA9A3B00803FCDCC3DD7DA
:10103000233C12833AB7D138C62737388635C0D615
:1010400033CC2B32708930E7DB2EE53C1E42A20DFB
:1010500000803F00204100C842007A44401C4650B6
:10106000C34724744997184BBCBE4C6B6E4E031596
:101070005079AD60F34971566F6C74616765203DBE
:10108000202566200D0A0000430E4F6E000E506EA4
:10109000FFD2250E6218D8B404D062502DEC15F0A2
:1010A000F7D2000E526E000E516E05D0FFD2528460
:1010B00013D0EED211D041C0F6FF42C0F7FF414A33
:1010C000422A0800F5CF62F06250000AD8B4EED28E
:1010D000660AD8B4ECD7DCD2070E5214D8B4CAD200
:1010E000000E546E060E536E4FC0D9FF50C0DAFF8B
:1010F000DECF5FF0DECF60F0DDCF61F0030E4F2674
:10110000000E502261AE11D05FC00DF060C00EF035
:1011100061C00FF0F7EC14F00DC05FF00EC060F08E
:101120000FC061F0030E511200D0000E5A6E000E77
:10113000596E5F5060106110D8B485D0820E466E33
:10114000FF0E476E5FC048F060C049F061C04AF0D2
:1011500062C04BF0100E05D0D8904B324A32493263
:101160004832E82EF9D748504624596E000E4720E1
:101170005A6E5906D8A05A0659C00FF05AC010F03E
:10118000000E126E030E116EAAEC14F00FC059F08F
:1011900010C05AF059C007F05AC008F0000E0A6E8D
:1011A0000A0E096EB0EC12F007C059F008C05AF0F0
:1011B0005AAE04D05906D8A05A0600D0595000089B
:1011C00057EC0BF02BC05BF02CC05CF02DC05DF039
:1011D0005BC01CF05CC01DF05DC01EF05FC01FF066
:1011E00060C020F061C021F0EDEC10F01CC05BF09D
:1011F0001DC05CF01EC05DF05BC001F05CC002F081
:101200005DC003F0000E046E800E056E3F0E066E8C
:10121000FBEC12F0D8B004D05906D8A05A0613D06F
:101220005BC001F05CC002F05DC003F0000E046E14
:10123000200E056E410E066EFBEC12F0D8A003D016
:10124000594A5A2A00D054BE06D054501CE10D0E03
:10125000535CD8B018D05FC010F060C011F061C00E
:1012600012F0535047EC0DF02BC013F02CC014F0CB
:101270002DC015F069EC0EF010C05FF011C060F0E9
:1012800012C061F000D05ABE06D05A5020E10A0EBA
:10129000595CD8B01CD05F5060106110D8B46DD0CC
:1012A0005FC032F060C033F061C034F069EC11F01F
:1012B0003250331034103510D8B45ABE5ED05A5064
:1012C00006E1020E595CD8B002D057D000D05BC006
:1012D00001F05CC002F05DC003F0700E046E890E78
:1012E000056E400E066EFBEC12F0D8B002D0F70E81
:1012F00001D0F80E5926FF0E5A2200D0595057EC53
:101300000BF02BC05BF02CC05CF02DC05DF017D053
:101310005FC001F060C002F061C003F05BC004F088
:101320005CC005F05DC006F068EC10F001C055F03F
:1013300002C056F003C057F004C058F017D05FC089
:1013400001F060C002F061C003F05BC004F05CC05B
:1013500005F05DC006F0E0EC0FF001C055F002C0F2
:1013600056F003C057F004C058F000D0000E5F6E76
:10137000000E606E000E616E33D05FC032F060C050
:1013800033F061C034F069EC11F032C055F033C075
:1013900056F034C057F035C058F05FC01CF060C044
:1013A0001DF061C01EF055C009F056C00AF057C0CC
:1013B0000BF058C00CF03DEC14F009C01FF00AC04F
:1013C00020F00BC021F06DEC14F01CC05FF01DC0CC
:1013D00060F01EC061F0000E5A6E000E596E00D013
:1013E000010E626E0A0E6218D8B41CD001D01AD059
:1013F0006250040D010EF324F66E100EF420F76E09
:101400000900F550555C0900F55056580900F55093
:1014100057580900F5505858D8A004D001D002D030
:10142000622AE0D7030E5114466E000E5214476E26
:1014300046504710D8B449D02D0E2DEC15F045D0AC
:1014400055C001F056C002F057C003F058C004F078
:101450006250040D010EF324F66E100EF420F76EA8
:101460000900F5CF05F00900F5CF06F00900F5CF2A
:1014700007F00A00F5CF08F046EC13F001C05BF06E
:1014800002C05CF003C05DF004C05EF05BC001F020
:101490005CC002F05DC003F05EC004F00A0E056E91
:1014A000000E066E000E076E000E086ECDEC13F0F7
:1014B00001C05BF002C05CF003C05DF004C05EF0F0
:1014C0005B50300F2DEC15F000D062066228D8B4C6
:1014D00009D0B6D707D0300E2DEC15F05906D8A09C
:1014E0005A0600D05ABE05D05A50F5E15904D8B07A
:1014F000F2D754BE09D0545004E1090E535CD8A071
:1015000003D0080E626E03D053C062F000D0625068
:10151000535E000E62BEFF0E545A6250D8B404D01F
:101520002E0E2DEC15F000D0625057EC0BF02BC0B6
:101530004CF02CC04DF02DC04EF05FC01FF060C0CD
:1015400020F061C021F04CC01CF04DC01DF04EC019
:101550001EF0EDEC10F01CC032F01DC033F01EC0C8
:1015600034F069EC11F032C055F033C056F034C09D
:1015700057F035C058F06BD055C001F056C002F09E
:1015800057C003F058C004F06250040D010EF3245C
:10159000F66E100EF420F76E0900F5CF05F0090085
:1015A000F5CF06F00900F5CF07F00A00F5CF08F0F7
:1015B00046EC13F001C05BF002C05CF003C05DF0CC
:1015C00004C05EF05BC001F05CC002F05DC003F0DF
:1015D0005EC004F00A0E056E000E066E000E076E69
:1015E000000E086ECDEC13F001C05BF002C05CF0A1
:1015F00003C05DF004C05EF05B50300F2DEC15F0C1
:1016000055C001F056C002F057C003F058C004F0B6
:101610006250040D010EF324F66E100EF420F76EE6
:101620000900F5CF05F00900F5CF06F00900F5CF68
:1016300007F00A00F5CF08F0CDEC13F001C055F02B
:1016400002C056F003C057F004C058F000D0620644
:101650006228D8B409D090D707D0300E2DEC15F001
:101660005306D8A0540600D053505410D8B410D00C
:10167000F4D70ED0030E5114466E000E5214476E6E
:1016800046504710D8B404D02D0E2DEC15F000D0E4
:1016900041C0F6FF42C0F7FF414A422A0800F5CF99
:1016A00062F06250D8B402D0F4D400D01200316E8F
:1016B00031AEEFD0316C3150800A120FD8A08DD0EE
:1016C000000E126E030E116E000E0A6E0A0E096EE7
:1016D000000E046E640E036E3150016E026A01BE8C
:1016E00002068CEC13F001C007F002C008F0B0EC69
:1016F00012F0090E07240F6E000E0820106EAAECDF
:1017000014F0290E0F24F66E100E1020F76E09004B
:10171000F5CF1FF00900F5CF20F00A00F5CF21F03A
:10172000000E0A6E640E096E3150076E086A07BE1D
:101730000806B0EC12F0120E07240F6E000E0820FF
:10174000106E000E126E030E116EAAEC14F0290E2C
:101750000F24F66E100E1020F76E0900F5CF1CF066
:101760000900F5CF1DF00A00F5CF1EF0EDEC10F0EA
:101770001CC02EF01DC02FF01EC030F02EC01CF07B
:101780002FC01DF030C01EF0000E126E030E116E41
:10179000000E046E0A0E036E3150016E026A01BE25
:1017A00002068CEC13F001C00FF002C010F0AAEC9E
:1017B00014F0290E0F24F66E100E1020F76E09009B
:1017C000F5CF1FF00900F5CF20F00A00F5CF21F08A
:1017D000EDEC10F041D15AD154D03150800A750F40
:1017E000D8A04FD0000E0A6E0A0E096E3150076E57
:1017F000086A07BE0806B0EC12F0090E07240F6E47
:10180000000E0820106E000E126E030E116EAAEC70
:1018100014F0290E0F24F66E100E1020F76E09003A
:10182000F5CF1CF00900F5CF1DF00A00F5CF1EF032
:10183000000E126E030E116E000E046E0A0E036E81
:101840003150016E026A01BE02068CEC13F001C039
:101850000FF002C010F0AAEC14F0290E0F24F66E5F
:10186000100E1020F76E0900F5CF1FF00900F5CF1C
:1018700020F00A00F5CF21F0EDEC10F0EDD006D10C
:1018800000D03150030D290EF324F66E100EF2D065
:10189000FDD03150800A120FD8A08DD0000E126EEC
:1018A000030E116E000E0A6E0A0E096E000E046E13
:1018B000640E036E3150016E026A01BE02068CECAA
:1018C00013F001C007F002C008F0B0EC12F0090EEE
:1018D00007240F6E000E0820106EAAEC14F0500EB4
:1018E0000F24F66E100E1020F76E0900F5CF1FF0D2
:1018F0000900F5CF20F00A00F5CF21F0000E0A6EA6
:10190000640E096E3150076E086A07BE0806B0EC17
:1019100012F0120E07240F6E000E0820106E000E3B
:10192000126E030E116EAAEC14F0500E0F24F66E18
:10193000100E1020F76E0900F5CF1CF00900F5CF4E
:101940001DF00A00F5CF1EF0EDEC10F01CC02EF0DB
:101950001DC02FF01EC030F02EC01CF02FC01DF097
:1019600030C01EF0000E126E030E116E000E046EDB
:101970000A0E036E3150016E026A01BE02068CEC43
:1019800013F001C00FF002C010F0AAEC14F0500EDA
:101990000F24F66E100E1020F76E0900F5CF1FF021
:1019A0000900F5CF20F00A00F5CF21F0EDEC10F0A2
:1019B00053D06CD059D03150800A750FD8A054D074
:1019C000000E0A6E0A0E096E3150076E086A07BED5
:1019D0000806B0EC12F0090E07240F6E000E082066
:1019E000106E000E126E030E116EAAEC14F0500E63
:1019F0000F24F66E100E1020F76E0900F5CF1CF0C4
:101A00000900F5CF1DF00A00F5CF1EF0000E126E92
:101A1000030E116E000E046E0A0E036E3150016E3D
:101A2000026A01BE02068CEC13F001C00FF002C086
:101A300010F0AAEC14F0500E0F24F66E100E1020C9
:101A4000F76E0900F5CF1FF00900F5CF20F00A006E
:101A5000F5CF21F0EDEC10F01CC02BF01DC02CF0E8
:101A60001EC02DF013D000D03150030D500EF324C2
:101A7000F66E100EF420F76E0900F5CF2BF009007A
:101A8000F5CF2CF00A00F5CF2DF000D01200346E07
:101A90006D0E34649BD0000E126E030E116E000E9C
:101AA0000A6E0A0E096E000E046E640E036E34C0D8
:101AB00001F0026A8CEC13F001C007F002C008F0DC
:101AC000B0EC12F0090E07240F6E000E0820106E05
:101AD000AAEC14F0290E0F24F66E100E1020F76EEB
:101AE0000900F5CF1FF00900F5CF20F00A00F5CF6F
:101AF00021F0000E0A6E640E096E34C007F0086A09
:101B0000B0EC12F0120E07240F6E000E0820106EBB
:101B1000000E126E030E116EAAEC14F0290E0F24A3
:101B2000F66E100E1020F76E0900F5CF1CF00900BC
:101B3000F5CF1DF00A00F5CF1EF0EDEC10F01CC043
:101B400031F01DC032F01EC033F0000E126E030ED5
:101B5000116E000E046E0A0E036E34C001F0026AAC
:101B60008CEC13F001C00FF002C010F0AAEC14F0DE
:101B7000290E0F24F66E100E1020F76E0900F5CF17
:101B80001FF00900F5CF20F00A00F5CF21F031C099
:101B90001CF032C01DF033C01EF0EDEC10F01CC084
:101BA0002EF01DC02FF01EC030F02EC01CF02FC034
:101BB0001DF030C01EF0000E1F6E000E206E3F0E96
:101BC000216EEDEC10F07DD083D062D00A0E34642B
:101BD0005FD0000E126E030E116E000E046E0A0E20
:101BE000036E34C001F0026A8CEC13F001C00FF0F8
:101BF00002C010F0AAEC14F0290E0F24F66E100E9D
:101C00001020F76E0900F5CF1FF00900F5CF20F086
:101C10000A00F5CF21F0000E0A6E0A0E096E34C0DC
:101C200007F0086AB0EC12F0090E07240F6E000EE0
:101C30000820106E000E126E030E116EAAEC14F046
:101C4000290E0F24F66E100E1020F76E0900F5CF46
:101C50001CF00900F5CF1DF00A00F5CF1EF0EDECE9
:101C600010F01CC031F01DC032F01EC033F031C086
:101C70001CF032C01DF033C01EF0000E1F6E000EAF
:101C8000206E3F0E216EEDEC10F01BD021D000D065
:101C90003450030D290EF324F66E100EF420F76E67
:101CA0000900F5CF1CF00900F5CF1DF00A00F5CFB3
:101CB0001EF0000E1F6E000E206E3F0E216EEDEC2A
:101CC00010F01CC02BF01DC02CF01EC02DF000D059
:101CD000120012C016F0176A186A1134163601E3A2
:101CE000178016501B6E15C016F0176A186A143448
:101CF000163601E3178016501A6E1B50D8B40BD05D
:101D00001A501B5CD8B00ED01B5000081A24166E57
:101D1000180E166407D013C010F014C011F015C0CF
:101D200012F0B8D01A50D8B40BD01B501A5CD8B0EF
:101D30000ED01A5000081B24166E180E166407D019
:101D400010C010F011C011F012C012F0A3D0060E96
:101D5000196E12AE02D0198E00D015BE198C118EDC
:101D6000FF0E1016FF0E1116000E1216148EFF0E27
:101D70001316FF0E1416000E15161A501B5CD8B061
:101D80001ED0D8901336143615361A061B501A1862
:101D9000D8B40FD0190619C016F0070E1616D8B40D
:101DA00008D0EFD706D0D8901232113210321B2A49
:101DB00000D01A501B18D8B424D0F5D722D01B500D
:101DC0001A5CD8B01ED0D8901036113612361B06C9
:101DD0001B501A18D8B40FD0190619C016F0070EE8
:101DE0001616D8B408D0EFD706D0D89015321432D2
:101DF00013321A2A00D01A501B18D8B402D0F5D7C3
:101E000000D019AE0CD0FF0E101AFF0E111AFF0EE3
:101E1000121A010E1026000E1122000E122219AC09
:101E20000DD0FF0E131AFF0E141AFF0E151A010E15
:101E30001326000E1422000E152200D0000E196E7B
:101E400010501326115014221250152215AE0FD027
:101E5000FF0E131AFF0E141AFF0E151A010E132689
:101E6000000E1422000E1522010E196E00D013C0B0
:101E700001F014C002F015C003F01BC004F019C03B
:101E800005F04DEC12F001C010F002C011F003C0DB
:101E900012F000D0120019EC15F034EC15F023EC20
:101EA00015F0000E3BEC15F000D0BEEC14F001C0B4
:101EB00077F002C078F077C063F078C064F0D89013
:101EC00063366436D8906336643663C009F064C004
:101ED0000AF0D1EC14F009C00CF00AC00DF00BC0F0
:101EE0000EF0000E0F6E7A0E106E440E116EDCECCA
:101EF00011F00CC074F00DC075F00EC076F074C017
:101F000032F075C033F076C034F069EC11F0325025
:101F1000666E000E1F6E200E206E410E216E74C084
:101F200013F075C014F076C015F06650E4EC14F0B0
:101F300009C00DF00AC00EF00BC00FF0F7EC14F062
:101F40000DC010F00EC011F00FC012F069EC0EF0D1
:101F500010C01CF011C01DF012C01EF0EDEC10F00E
:101F60001CC032F01DC033F01EC034F069EC11F01B
:101F70003250656E09EC15F06650010D670EF324C2
:101F8000D96E000EF420DA6EDF50816E6550010DBF
:101F9000670EF324D96E000EF420DA6EDF50836EE4
:101FA000839E770E416E100E426E74C043F075C072
:101FB00044F076C045F044EC08F077D700EF00F02D
:101FC00003C007F0086A096A0234073601E3088093
:101FD00007500F6E0F50D8A402D05DD078D006C045
:101FE00007F0086A096A0534073601E308800750DC
:101FF0000E6E0E50D8A402D04ED069D0028EFF0EC5
:102000000116FF0E0216000E0316058EFF0E0416B3
:10201000FF0E0516000E0616000E0A6E000E0B6E61
:10202000000E0C6E000E0D6E7F0E0F5E0E50980FA0
:102030000F5E180E0E6ED8900A360B360C360D3623
:102040000450015C0550025806500358D8A007D030
:102050000450015E0550025A0650035A0A80D89077
:102060000136023603360E2EE6D700D00FAE10D062
:102070000F50800A970FD8B003D00DD028D000D0D1
:10208000D8900D320C320B320A320F3EF9D717D0EE
:10209000170E0F6411D0000E016E000E026E000EBE
:1020A000036E000E046E13D007D0D8900A360B369C
:1020B0000C360D360F0600D00F50D8A4F6D70AC044
:1020C00001F00BC002F00CC003F00DC004F01200D0
:1020D000033404340C6E0C50D8A402D061D07CD0F0
:1020E000063407340B6E0B50D8A402D059D074D0EC
:1020F000038EFF0E0116FF0E0216FF0E0316000ED2
:102100000416068EFF0E0416FF0E0516FF0E0616A9
:10211000000E0716000E076E000E086E000E096E08
:10212000000E0A6E7F0E0C5E0B50A00F0C5E200E90
:102130000B6E00D0D8900736083609360A360450A0
:10214000015C055002580650035807500458D8A0A7
:102150000AD00450015E0550025A0650035A075037
:10216000045A078000D0D890013602360336043670
:102170000B2EE0D700D00CAE10D00C50800A9F0F71
:10218000D8B003D00DD028D000D0D8900A32093270
:10219000083207320C3EF9D717D01F0E0C6411D04D
:1021A000000E016E000E026E000E036E000E046E35
:1021B00013D007D0D8900736083609360A360C06F1
:1021C00000D00C50D8A4F6D707C001F008C002F028
:1021D00009C003F00AC004F012001EC022F0236AF6
:1021E000246A1D34223601E323802250256E2550B7
:1021F000D8A402D00ED06CD021C022F0236A246A69
:102200002034223601E3238022502A6E2A50D8A49B
:1022100007D0000E1C6E000E1D6E000E1E6E58D0F4
:102220002A507B0F25261EC02AF021502A1A800E24
:102230002A161D8E208EFF0E1F16FF0E2016000E72
:102240002116000E266E000E276E000E286E070E59
:10225000296E00D01CA007D01F5026262050272210
:102260002150282200D0D8901E321D321C32D89026
:102270001F3620362136292EEDD700D0090E296EC3
:1022800000D01CA007D01F50262620502722215006
:10229000282200D0D8901E321D321C32D89028320D
:1022A00027322632292EEDD700D026C001F027C0D4
:1022B00002F028C003F025C004F02AC005F04DEC60
:1022C00012F001C01CF002C01DF003C01EF000D0CF
:1022D000120034C036F0376A386A3334363601E3D8
:1022E00037803650406E4050D8A402D039D063D0E9
:1022F000170E366E32C037F033C038F034C039F0C4
:1023000036283A6E04D0D8903932383237323A2EE5
:10231000FAD737503B6E338EFF0E3216FF0E331650
:10232000000E341632503C6E33503D6E34503E6ECB
:102330003F6A8E0E405E40AE10D04050800A8F0F34
:10234000D8B003D00DD037D000D0D8903F323E3235
:102350003D323C32403EF9D719D0170E406411D0BF
:10236000000E326E000E336E000E346E000E356EAF
:1023700022D007D0D8903C363D363E363F36400618
:1023800000D04050D8B402D0F5D700D03B50D8B4DC
:1023900009D03F1E3E1E3D1E3C6C000E3D223E22DB
:1023A0003F2200D03CC032F03DC033F03EC034F09C
:1023B0003FC035F000D012000EC012F0136A146A4C
:1023C0000D34123601E313801250196E1950D8A43F
:1023D00002D00ED061D011C012F0136A146A10340A
:1023E000123601E3138012501A6E1A50D8A407D087
:1023F000000E0C6E000E0D6E000E0E6E4DD0000E17
:10240000166E000E176E000E186E1A50890F195EA8
:102410000EC01AF011501A1A800E1A160D8EFF0EE9
:102420000C16FF0E0D16000E0E16108EFF0E0F1658
:10243000FF0E1016000E1116180E156E00D0D89053
:102440001636173618360F500C5C10500D581150B8
:102450000E58D8A007D00F500C5E10500D5A1150D6
:102460000E5A1680D8900C360D360E36152EE7D73C
:1024700000D016C001F017C002F018C003F019C058
:1024800004F01AC005F04DEC12F001C00CF002C0CF
:102490000DF003C00EF000D012000450D8B405D0E7
:1024A000015002100310D8A40ED0000E016E000ED1
:1024B000026E000E036E53D006D0042AD890033269
:1024C0000232013200D0000E0114066E000E02141A
:1024D000076EFE0E0314086E065007100810D8B4DD
:1024E0000ED0EBD70CD0042A010E0126000E0222DA
:1024F000000E0322D89003320232013200D0000EC7
:102500000114066E000E0214076EFF0E0314086E0F
:10251000065007100810D8B408D0E5D706D0040636
:10252000D89001360236033600D002BE04D0020E27
:102530000460F5D700D004B002D0029E00D0D8903D
:102540000432045003120550D8B402D0038E00D0D8
:1025500001C001F002C002F003C003F000D012007D
:10256000000E0C6E0AAE07D0096C0A1ED8B00A2AFB
:10257000010E0C6E00D008AE07D0076C081ED8B054
:10258000082A010E0C1A00D0000E0E6E000E0D6E01
:1025900009500A10D8B421D0010E0B6E05D0D89086
:1025A00009360A360B2A00D00ABE02D0F8D700D06E
:1025B000D8900D360E360950075C0A500858D8A03E
:1025C00006D00950075E0A50085A0D8000D0D890F6
:1025D0000A3209320B2EECD700D00C50D8B405D0FB
:1025E0000D6C0E1ED8B00E2A00D00DC007F00EC024
:1025F00008F000D0120003AE17D001C007F002C0EF
:1026000008F003C009F0071E081E091E072A000E65
:1026100008220922000E0724016E000E0820026E17
:10262000800E0920036E00D006AE17D004C007F05C
:1026300005C008F006C009F0071E081E091E072A7B
:10264000000E08220922000E0724046E000E082046
:10265000056E800E0920066E00D0000E011A000ED5
:10266000021A800E031A000E041A000E051A800EBC
:10267000061A0450015C0550025806500358D8B0A1
:1026800002D0D89002D0D88000D01200000E096E7F
:10269000000E0A6E000E0B6E000E0C6E055006103A
:1026A00007100810D8B42FD0010E0D6E07D0D890A7
:1026B00005360636073608360D2A00D008BE02D089
:1026C000F6D700D0D89009360A360B360C360550AE
:1026D000015C065002580750035808500458D8A00F
:1026E0000AD00550015E0650025A0750035A08509E
:1026F000045A098000D0D8900832073206320532D9
:102700000D2EE0D700D009C001F00AC002F00BC0C6
:1027100003F00CC004F01200000E066E02AE07D0EB
:10272000016C021ED8B0022A010E066E00D004AE63
:1027300005D0036C041ED8B0042A00D00350041046
:10274000D8B41DD0010E056E05D0D89003360436DE
:10275000052A00D004BE02D0F8D700D00350015C97
:1027600004500258D8A005D00350015E0450025A0C
:1027700000D0D89004320332052EF0D700D0065096
:10278000D8B405D0016C021ED8B0022A00D001C016
:1027900001F002C002F000D0120005500610071030
:1027A0000810D8B429D0010E096E07D0D89005368C
:1027B000063607360836092A00D008BE02D0F6D7FA
:1027C00000D00550015C06500258075003580850CD
:1027D0000458D8A009D00550015E0650025A07508F
:1027E000035A0850045A00D0D890083207320632F3
:1027F0000532092EE6D700D001C001F002C002F078
:1028000003C003F004C004F01200036E000EAC6EAF
:10281000000EAB6E03A002D0AC8800D003A203D0A0
:10282000AC8CAB8C00D003A402D0AC8E00D003A63D
:1028300002D0AB8802D0AB8A00D003B8AC849E989B
:1028400003AA02D0AB8600D003AC02D09D8A01D08F
:102850009D9A9E9A03AE02D09D8801D09D9801C09A
:10286000AFFF0250B06EAC8AAB8E949C948EACB825
:10287000ACBE02D0948C00D012008E0E116E07D028
:10288000D8900C320B320A320932112A00D0000ED5
:1028900009140D6E000E0A140E6E000E0B140F6E4E
:1028A000FF0E0C14106E0D500E100F101010D8A447
:1028B000E7D709C001F00AC002F00BC003F011C055
:1028C00004F0000E056E4DEC12F001C009F002C0DC
:1028D0000AF003C00BF000D012001F50201021108E
:1028E000D8B407D0000E1F1A000E201A800E211A2D
:1028F00000D01CC010F01DC011F01EC012F01FC08F
:1029000013F020C014F021C015F069EC0EF010C0D7
:102910001CF011C01DF012C01EF000D0120000EE1D
:1029200071F0080EEE6AE806FDE1820EF66E2A0EE0
:10293000F76E000EF86E00EE67F010EE0AF0090078
:10294000F5CFEEFFE550E150FAE1000EF86E000120
:102950004BEF0FF00F501102F3CF13F0F4CF14F040
:102960000F501202F350142610501102F350142687
:1029700013C00FF014C010F000D01200C28200D0BB
:10298000C2B2FED7C450046E036AC3500324056E5E
:10299000000E0420066E05C001F006C002F000D053
:1029A000120009C001F00AC002F0036A8E0E046E24
:1029B000000E056E4DEC12F001C009F002C00AF0E5
:1029C00003C00BF000D012000C6E0C50016E026AB6
:1029D000036A8E0E046E000E056E4DEC12F001C0FF
:1029E00009F002C00AF003C00BF000D012000D5035
:1029F0000E100F10D8B406D0000E0D1A000E0E1ACD
:102A0000800E0F1A0DC00DF00EC00EF00FC00FF0AB
:102A10001200000E026E000E016E012805E1022870
:102A2000D8B406D001D004D0014A022AF6D7FCD788
:102A30001200000E026E190E016E3C0E05EC14F031
:102A4000600ED36E12009268000E936E000E946EAC
:102A5000000E956E000E966E1200016E00D0ACA2B4
:102A6000FED701C0ADFF1200010EC26E1A0EC16E7C
:102A7000A90EC06E1200016E0150040DF328C26E43
:0C2A80001200014F12064C24200F000C25
:020000040030CA
:04000000FF08191EBE
:0200060081FF78
:00000001FF
